:1000000086C1000020C600009FC100009DC1000005
:100010009BC1000099C1000097C100000C94ED0C39
:1000200093C1000091C100008FC10000E4C5000031
:100030008BC1000089C100000C94670B85C10000D2
:1000400083C1000081C100007FC100007DC10000AC
:100050007BC1000079C1000077C1000075C10000BC
:1000600073C1000071C10000BA28C628E72B4529DA
:10007000E629E72BE72BAE2AE72BE72BE72BE72B2D
:10008000E72BE72BE72BE72BE72BE72BE72BE72BE0
:10009000E72BE72BE72BE72BE72BE72BE72BE72BD0
:1000A000E72BE72BE72BE72BE72BE72BE72BE72BC0
:1000B000E72BE72BE72BE72BE72BE72BE72BE72BB0
:1000C000E72BE72BE72BE72BE72BE72B3A2A412AF5
:1000D0005A2A732A932AB62A272B922B23253033A8
:1000E00064005243563A257300233F3F3F0052437A
:1000F000563A3F3F3F3F3F3F3F3F2E3F3F3F002568
:1001000030336400235858582F253033642563203A
:10011000257300534E443A25730046525F25530021
:1001200072633D2575004F4B004449534B5F455268
:100130005200494E545F455252004E4F545F524553
:10014000414459004E4F5F46494C45004E4F5F5069
:1001500041544800494E56414C49445F4E414D453B
:100160000044454E49454400455849535400494EC2
:1001700056414C49445F4F424A4543540057524907
:1001800054455F50524F54454354454400494E56E0
:10019000414C49445F4452495645004E4F545F45D7
:1001A0004E41424C4544004E4F5F46494C455F53DB
:1001B000595354454D004D4B46535F41424F5254A5
:1001C00045440054494D454F5554004C4F434B4511
:1001D00044004E4F545F454E4F5547485F434F5282
:1001E0004500544F4F5F4D414E595F4F50454E5F54
:1001F00046494C455300004552524F520025640079
:100200002573005B456D707479204469725D005BF5
:100210004449525D002E2E205B474F2055505D0013
:10022000C34B432D544150452062792041462E2036
:1002300000544150004B432D444154454900004275
:100240004C4B53495A452045584345454445440085
:100250004D415820424C4F434B5321005752495473
:10026000452046494C45004F50454E20464F5220B0
:100270005752495445007263763D256420636C6390
:100280003D25640057524F4E4720434845434B534A
:10029000554D004F56455252554E2100494E464F3E
:1002A0003A2046494C4520534156454400546F6F0F
:1002B0002073686F72743A257562004552523A2570
:1002C0007300454F4620746F6F206561726C792111
:1002D0000053454E442046494C4500494E54455232
:1002E0005255505445442100424C4F434B20544FEB
:1002F0004F2053484F52542100494E495449414CD4
:10030000495A494E47005344204341524400112466
:100310001FBECFEFD8E0DEBFCDBF11E0A0E0B1E05F
:10032000E8EDFAE502C005900D92A834B107D9F7BF
:1003300024E0A8E4B1E001C01D92AE39B207E1F7B4
:100340000E94500D0C946A2D5BCE8A3019F48DE01A
:1003500001D08AE0FF93EF93E0914801F0914901C9
:10036000309709F00995EF91FF910895FC0185916F
:10037000803011F0EADFFBCF0895FF27E0E230E2A2
:1003800047FF0CC0419597FF09C0EDE2609570955D
:1003900080959095611D711D811D911D27FF02C0E3
:1003A000219530E350E2AA27660F771F881F991F17
:1003B000AA1FA41710F0A41B63955A95A9F7AA3099
:1003C00008F0A95FA05DAF93F395611571058105F4
:1003D000910541F7ED3211F4EF93F395F21718F40C
:1003E0003F93F395FBCF8F91B0DFFA95E1F7089536
:1003F000E991F9918591803021F0853219F0A5DFDE
:10040000F9CF089520E0E89455915532C1F3503367
:1004100011F4689455915A3348F4505390F3220FD5
:10042000022E220F220F200D250FF4CF0EF421955E
:1004300089919991533619F3533729F1533559F16D
:10044000BC0188279927E8945C3621F48991999119
:1004500068945591543639F446EF7EF077FF0DC01D
:100460008FEF9FEF0AC055374AE039F0583540E129
:1004700021F0523642E009F00895FF93EF937DDFBB
:10048000EF91FF91B7CFFF93EF93FC018191803003
:10049000B9F35BDFFBCFFF93EF9368DFF1CFDF931F
:1004A000CF93CDB7DEB72596A3DFCF91DF91089527
:1004B000F70181937F010895DF93CF93CDB7DEB726
:1004C0002596E0914801F0914901EF93FF93E8E50B
:1004D000F2E0E0934801F0934901FF92EF92E99036
:1004E000F99086DFF7011082EF90FF90FF91EF9176
:1004F000E0934801F0934901CF91DF9108950B01FA
:10050000DC01ED91FD912227332744275527E894FC
:100510009AE001C0319660816032E1F3A8F16D325A
:1005200011F46894F7CF6A3378F5603368F171F4A9
:1005300098E031966081613248F1623611F492E0C0
:1005400003C0683719F490E1319660816132F0F0B0
:10055000613608F060526053B8F06A3018F06750A6
:100560006A3090F0691780F481E2771B08F4790F04
:10057000769557954795379527958A95B9F7260F1C
:10058000381F481F581FE0CF80E001C081E04EF4C3
:1005900066272095309540955095261F361F461F9B
:1005A000561FFE93EE93D0012D933D934D935D9393
:1005B0001124089580E090E069C0FC01EE0FFF1F58
:1005C000E050FF4F2081223011F12330E9F121303A
:1005D00009F056C054B1FC01EE0FFF1FE050FF4F71
:1005E00021E030E0B901018002C0660F771F0A9454
:1005F000E2F7462F4095452344B945B1018002C03A
:10060000220F331F0A94E2F7242B25B939C057B1C2
:10061000FC01EE0FFF1FE050FF4F21E030E0B90179
:10062000018002C0660F771F0A94E2F7462F4095BB
:10063000452347B948B1018002C0220F331F0A94F5
:10064000E2F7242B28B91CC05AB1FC01EE0FFF1FA2
:10065000E050FF4F21E030E0B901018002C0660F99
:10066000771F0A94E2F7462F409545234AB94BB1CC
:10067000018002C0220F331F0A94E2F7242B2BB90A
:10068000FC01E55BFE4F23E020830196833091055A
:100690000CF493CF089580E090E0A4C0FC01EE0F2D
:1006A000FF1FE050FF4F2081213019F0223019F058
:1006B00004C023B103C026B101C029B12095FC01BB
:1006C000EE0FFF1FE050FF4F41E050E0018002C0FD
:1006D000440F551F0A94E2F7422320914A0130E06B
:1006E000082E02C0359527950A94E2F720FF22C014
:1006F000442369F0FC01E55BFE4F20812230D0F5F8
:10070000FC01E55BFE4F20812F5F208333C0FC019D
:10071000E55BFE4F108221E030E0082E02C0220F80
:10072000331F0A94E2F730914A0120952323209346
:100730004A0120C0442391F0FC01E55BFE4F10828A
:1007400021E030E0082E02C0220F331F0A94E2F7A6
:1007500030914A01232B20934A010CC0FC01E55B38
:10076000FE4F2081223030F4FC01E55BFE4F2081FA
:100770002F5F2083FC01E55BFE4F2081223089F54D
:10078000FC01E55BFE4F20812F5F2083442371F045
:1007900021E030E0082E02C0220F331F0A94E2F756
:1007A00030916801232B209368010EC021E030E0D6
:1007B000082E02C0220F331F0A94E2F7309168011D
:1007C000209523232093680121E030E0082E02C009
:1007D000220F331F0A94E2F730916601232B2093F6
:1007E00066010196833091050CF458CF08950F935C
:1007F0001F93CF93DF938C0190930A048093090495
:1008000040E050E0C6E2D1E009C0CE010196FE0111
:100810002491EC012111F9CF4F5F5F4F4017510731
:1008200021F0FE0184918111F0CF0E94A22C1F9330
:100830000F9380E291E09F938F9331DE61E080E03F
:100840000E949A2CDF93CF938AE191E09F938F933C
:1008500026DEEDB7FEB738960FB6F894FEBF0FBE92
:10086000EDBFDF91CF911F910F910895009761F037
:10087000BEDF2FEF81E19AE7215080409040E1F701
:1008800000C0000081E0089580E00895CF93DF93D9
:10089000EC010E94A22C809150019091510100978F
:1008A000C9F489E691E09F938F9380E092E09F9353
:1008B0008F93F5DD61E080E00E949A2C85E192E063
:1008C0009F938F93ECDD0F900F900F900F900F90F0
:1008D0000F903CC0019759F48985811108C083E0CD
:1008E00092E09F938F93DBDD0F900F902FC0CE018E
:1008F00009969F938F9380E092E09F938F93CFDD33
:1009000061E080E00E949A2C88850F900F900F90F4
:100910000F9084FF08C08FE092E09F938F93BFDD1C
:100920000F900F9013C08B818F938A818F93898151
:100930008F9388818F938DEF91E09F938F93AFDD9D
:100940000F900F900F900F900F900F90DF91CF911D
:100950000895EF92FF920F931F93CF93DF93F82E9A
:10096000E92E062F142FE9010E94A22CEF92FF928C
:1009700083E191E09F938F9392DD61E080E00E949C
:100980009A2C0F900F900F900F90C230D10591F0DC
:1009900028F4209761F02197E1F018C0C530D10507
:1009A00079F0C630D10579F0249781F406C08FE044
:1009B00091E011C081E291E00EC08DE191E00BC0A9
:1009C00084E291E008C08AE291E005C081E391E011
:1009D00002C086E191E0003819F421E230E002C063
:1009E00020E230E09F938F933F932F931F921F93AA
:1009F00084E091E09F938F9352DD8DB79EB7089668
:100A00000FB6F8949EBF0FBE8DBFDF91CF911F919F
:100A10000F91FF90EF900895CF93C82F61E081E090
:100A20000E949A2C1F92CF938FEF90E09F938F9309
:100A300036DD0F900F900F900F90CF9108951F9378
:100A4000CF93DF93EC01162F0E94A22C209799F4EC
:100A50008EEE90E09F938F9322DD61E080E00E9414
:100A60009A2C89EE90E09F938F9319DD0F900F9051
:100A70000F900F901AC0DF93CF9382EE90E09F9378
:100A80008F930DDD61E080E00E949A2C1F921F93EE
:100A90008CED90E09F938F9302DD8DB79EB7089603
:100AA0000FB6F8949EBF0FBE8DBFDF91CF911F91FF
:100AB00008950F931F93CF93DF93182F092FC62FFD
:100AC000D72F0E94A22C0F931F93E9DC61E080E0F6
:100AD0000E949A2CDF93CF93E2DC2FEF81E19AE71B
:100AE000215080409040E1F700C000000F900F902F
:100AF0000F900F90DF91CF911F910F91089591E08A
:100B000080E007C0E92FF0E0E55FFB4F2081820F16
:100B10009F5F9138B8F30895EBE0F4E08181228182
:100B200033819DE2980F973030F4821306C083170B
:100B300031F080E0089580E0089580E0089581E03C
:100B40000895109259011092560110925801109276
:100B5000910485B18F7785B90895DEDF8823D1F0C0
:100B600010928D042FE034E01AC0AE2FB0E0AC5EDE
:100B7000BB4F8C9181323CF4F0E0E357FB4F108285
:100B80002CE034E00CC0AE2FB0E0A357BB4F8C93E9
:100B9000EF5F01C0E0E0E33040F32CE034E010927E
:100BA000900480E00CC0F901E80FF11D90819132B2
:100BB00044F0E82FF0E0EF56FB4F90838F5F8830D2
:100BC00090F3811109C049E050E065E372E081E9EA
:100BD00094E00E94362D88E090E0FC01EF56FB4F38
:100BE0002EE2208344E050E061E372E08E569B4F9A
:100BF0000C94362D08951F920F920FB60F92112468
:100C00008F939F93109281001092800010926F003A
:100C100016BA8091070190910801039739F482E098
:100C200090E0909308018093070106C084E090E073
:100C300090930801809307019F918F910F900FBEB1
:100C40000F901F9018951F920F920FB60F921124BC
:100C50002F938F939F938091840090918500909320
:100C6000530180935201809106018823B1F080E006
:100C70009AEF9093890080938800109285001092DB
:100C8000840016BA82E080936F001092800081E0A9
:100C900080938100109206015DC010928100109235
:100CA000800010926F0016BA8091070190910801A0
:100CB000039739F084E090E0909308018093070156
:100CC00046C0809152019091530181379741C8F0FD
:100CD00080915401909155010A9740F010920801BB
:100CE0001092070185B1806885B906C081E090E067
:100CF00090930801809307011092550110925401BE
:100D000026C08091570186958093570180915201AA
:100D100090915301893B9B40B0F08091520190919A
:100D200053018137974178F4809154019091550196
:100D300001969093550180935401809157018068EA
:100D40008093570104C0109255011092540181E024
:100D5000809306019F918F912F910F900FBE0F905E
:100D60001F90189584B1806884B985B18F7785B953
:100D70008AB18B7F8AB98BB18B7F8BB98CB3817031
:100D80008CBB8DB381608DBB81E080936900D9CE2F
:100D90000895CF93DF9300D0CDB7DEB780910701E0
:100DA000909108018130910559F1B8F08230910598
:100DB00009F4EBC0049709F0F6C0C3DE8091590135
:100DC000882309F4F0C08FEB93E00E94022263E9CC
:100DD00072E087EF91E06DDEE6C082E8EBE0F4E0E0
:100DE000DF011D928A95E9F710925801809159010F
:100DF0008111D9C081E08093590110925601D3C06E
:100E000085B18F7785B980915901882309F4CBC0CA
:100E100080915801813880F4E0915801F0E0809190
:100E20005701E55FFB4F8083809158018F5F80936E
:100E3000580110925701B7C080915801813809F0CC
:100E400099C05DDE90915701891759F17ADE8FEBD9
:100E500093E00E9402220E94A22C84E892E09F93D9
:100E60008F931DDB61E080E00E949A2C48DE909118
:100E700057011F928F931F929F9386E792E09F9353
:100E80008F930DDBBFEF21E18AE7B1502040804016
:100E9000E1F700C000000FB6F894DEBF0FBECDBF73
:100EA00082C080915601811127C08FEB93E00E9490
:100EB000022253DE4AE061E974E08FEB93E00E9486
:100EC0009D1C90930A0480930904892B81F039DEDC
:100ED0008FEB93E00E9402228091090490910A0412
:100EE000C5DC67E672E087EF91E0E3DD5CC060910E
:100EF0000B0481E994E0A3DD1A8219829E012F5F21
:100F00003F4F41E850E06BE074E08FEB93E00E94CC
:100F1000C21F90930A0480930904892B29F48981C4
:100F20009A818138910591F00CDE8FEB93E00E945D
:100F300002228091090490910A04009709F096DC3E
:100F40006CE572E087EF91E0B4DD2DC08091560131
:100F50008F5F8093560180915601811124C0F1DD8D
:100F60008FEB93E00E94022260E572E08CE992E050
:100F7000A0DD19C0E6DD8FEB93E00E9402226FE353
:100F800072E087EF91E095DD0EC0809159018823D2
:100F900051F0D7DD8FEB93E00E9402226EE372E006
:100FA0008CE992E086DD83E090E0909308018093E5
:100FB00007010F900F90DF91CF91089587BD16BC68
:100FC00015BA82E084BD80936E0083E085BD0895EC
:100FD000CF93DF93EC0181E090E090935E018093EA
:100FE0005D01209721F0C130D10529F002C08CE6C7
:100FF00003C08EE101C088E39BB192609BB9DEDF44
:10100000209731F080915D0190915E01892BC1F7AD
:10101000DF91CF9108951F93CF93DF93182F809185
:101020005D0190915E01892BD1F7C0E0D1E00CC049
:101030008D2F812321F081E090E0CADF03C082E0A0
:1010400090E0C6DFDD0FCF5FC83090F380E090E026
:10105000BFDFDF91CF911F910895CF93DF9340E0E1
:1010600050E0BA018FEB93E00E947E23FFDBD82F84
:10107000882321F18FEB93E00E940222D0E032C05E
:101080008FEB93E00E9402222DC080910B048230EE
:10109000A8F08CE094E090930D0180930C0180E81F
:1010A00080930B0140E050E0BA018FEB93E00E9487
:1010B0007E23DCDB811111C0D1E014C02BE531E0CF
:1010C00041E850E06BE074E08FEB93E00E94491E32
:1010D000CDDBC82F8823C9F2D3CF8FEB93E00E94DA
:1010E0000222DC2F8D2FDF91CF910895CF9324E042
:1010F00030E030930A0120930901FC018081918145
:10110000A281B381BC01CD016051710981099109AE
:1011100021E830E040E050E00E94F52C20935A0195
:1011200040E150E060E070E08FEB93E00E947E23AE
:101130009DDB811110C040910B0150E060910C01CA
:1011400070910D012BE531E08FEB93E00E94491E79
:101150008DDB882331F08FEB93E00E940222C0E008
:1011600051C0DADCC82F882339F085E090E09093F5
:101170000A018093090146C040910B0150E0609143
:101180000C0170910D012BE531E08FEB93E00E9493
:10119000491E6CDB882329F08FEB93E00E9402222A
:1011A00031C0BADCC82F882361F086E090E09093CC
:1011B0000A018093090180915A01815080935A015C
:1011C00021C040E150E060E070E08FEB93E00E94CE
:1011D0007E234CDB811110C040910B0150E06091E7
:1011E0000C0170910D012BE531E08FEB93E00E9433
:1011F000491E3CDB882329F08FEB93E00E940222FA
:1012000001C0C1E08C2FCF910895CF92DF92EF9271
:10121000FF920F931F93CF93DF938C011EDFC82F94
:10122000882309F4C7C140910B0150E060910C0183
:1012300070910D012BE531E08FEB93E00E94491E88
:1012400015DB882331F08FEB93E00E940222C0E08F
:10125000B1C162DCD82F8823E9F081E090E090935F
:101260000A0180930901D8016D917D918D919C9126
:10127000C0910B012C2F30E040E050E00E94F52C93
:1012800020935A01C03809F094C181E080930B0487
:10129000CD2F90C16801B9E0CB0ED11C6EE270E099
:1012A000C6010E945F2DFC017C018FEFE81AF80A4D
:1012B00093E5AFC02181022E000C330B492F50E083
:1012C0002417350709F0A4C02281022E000C330B2D
:1012D0004217530709F09CC02381022E000C330BE8
:1012E0004217530709F094C010920A0110920901A5
:1012F000A0910C01B0910D0190589C93A0910C010C
:10130000B0910D0111969C93A0910C01B0910D012B
:1013100012969C9320E023C0822F90E0A601480FF4
:10132000591F4E175F0788F40396A0910C01B091E6
:101330000D01AD01480F591FC801820F911DDC013D
:1013400019968C91DA018C9309C00396A0910C0137
:10135000B0910D01A80FB91F80E28C932F5F283048
:10136000D8F240E050E0BA018FEB93E00E947E2378
:101370007DDAD82E882331F08FEB93E00E94022291
:10138000CD2F18C180910B018B50E82EF12C60916C
:101390000C0170910D01655F7F4F2BE531E0A701D6
:1013A0008FEB93E00E94491E61DAD82F882331F039
:1013B0008FEB93E00E940222CD2DFCC080915B0157
:1013C00090915C01E816F90639F068EE72E087EF5B
:1013D00091E06FDBCD2FEEC0F80180819181A28179
:1013E000B381BC01CD01655F7F4F8F4F9F4FD0917F
:1013F0000B012D2F30E040E050E00E94F52C2093AF
:101400005A01D03809F0D6C081E080930B04D2C0D5
:101410009F5F9A3508F44ECF20910B01203811F4CC
:1014200010920B0482E090E090930A0180930901EE
:1014300080E042C0E82FF0E0E55FFB4F9181913200
:101440004CF4992339F083E090E090930A01809363
:10145000090135C06091090170910A01623071057E
:1014600051F512C0E92FF0E0E55FFB4F31853132D5
:101470004CF4332339F063E070E070930A01609319
:10148000090105C09F5F01C090E0933058F360915F
:10149000090170910A016230710569F4D8016D91FA
:1014A0007D918D919C9130E040E050E00E94F52CC0
:1014B00020935A017FC08F5F883008F4BBCF422F42
:1014C00050E060E070E080910C0190910D010E946D
:1014D000582D80E018C09601280F311D2E153F05AC
:1014E00058F4282F30E0F801E20FF31F9185F9013D
:1014F000E55FFB4F918306C0E82FF0E0E55FFB4F0F
:1015000090E291838F5F883030F380E090E018C0E4
:1015100091110EC0E82FF0E03196EE0DFF1D2081F5
:10152000222331F0E82FF0E0E55FFB4F218707C071
:10153000E82FF0E0E55FFB4F90E2918391E08F5F51
:10154000833030F380E093E090931E0480931D0479
:10155000F8016081718182819381D0910B012D2FDF
:1015600030E040E050E00E94F52C2F5F20935A01BC
:10157000D03859F4F80180819181A281B3819D5FB7
:101580009093200480931F040DC0F8018081918105
:10159000A281B38130E0821B930B9D5F9093200466
:1015A00080931F048FEF9FEF909322048093210478
:1015B00001C0CD2F8C2FDF91CF911F910F91FF9004
:1015C000EF90DF90CF9008951F93CF93DF93EC01BE
:1015D00081E880930B018BE094E090930D01809360
:1015E0000C0188819981AA81BB8180389105A10570
:1015F000B10588F50E94A22CCE0109969F938F9386
:101600008BEB92E09F938F930E944F0261E080E00A
:101610000E949A2C8B818F938A818F9389818F93DB
:1016200088818F938DEA92E09F938F930E944F025F
:101630002FEF81E19AE7215080409040E1F700C010
:1016400000008DB79EB70A960FB6F8949EBF0FBEE6
:101650008DBF10E037C041E0BE01675F7F4F8FEB69
:1016600093E00E949D1C02D9182F882331F08FEB44
:1016700093E00E94022210E025C02BE531E040E11A
:1016800050E06BE074E08FEB93E00E94491EEED8CF
:10169000882329F08FEB93E00E94022213C040912F
:1016A0005B0150915C0160E272E08BE094E00E948B
:1016B0004A2D892B21F0CE01A8DD182F03C0CE01C1
:1016C00015DD182F812FDF91CF911F9108951F9263
:1016D0000F920FB60F9211248F939F9380915D010B
:1016E00090915E018130910521F068F0029799F4A4
:1016F0000AC08BB18D7F8BB982E090E090935E0140
:1017000080935D0108C010925E0110925D0115BCCE
:1017100016BC10926E009F918F910F900FBE0F908C
:101720001F9018958AB182608AB98BB18D7F8BB971
:101730000895FF920F931F93CF93DF93EC011092C4
:10174000670142DF882309F4B7C020910901309175
:101750000A0140915A0160910B01CE010996F9D816
:10176000FF24F394CCD980938C0481E0F81639F0EF
:1017700080915A01F81631F000EA10E005C000E748
:1017800017E102C000EB14E180910B0445D9809170
:101790005D0190915E01892BD1F7C0E0D0E004C0DB
:1017A00081E090E015DC2196C017D107CCF380E0F2
:1017B00090E00EDCC0E017C0EC2FF0E0E55FFB4FDF
:1017C000808129DC80916701882361F01092670194
:1017D0006BED72E081ED92E06CD98FEB93E00E94AB
:1017E00002226AC0CF5FC23838F380915A01F812E2
:1017F0000DC080E090E0ECDB80915D0190915E0196
:10180000892BD1F78BB182608BB952C040910B010B
:1018100050E060910C0170910D012BE531E08FEBF0
:1018200093E00E94491E22D8882331F062EC72E0D6
:1018300087EF91E03ED93CC080910B01482F50E0EA
:1018400020915B0130915C014217530731F068EE43
:1018500072E087EF91E02DD92BC08038C9F4EBE01E
:10186000F4E080818F5F808390E020915A0130E026
:10187000215031098217930759F480910901909101
:101880000A01009729F0019719F08FEF80930B045C
:101890008091090190910A01069741F480910B040F
:1018A0008F3F21F480915A0180930B04F3945ACF17
:1018B0008FEB93E00E940222DF91CF911F910F9155
:1018C000FF9008958DE48093B30082E08093B00090
:1018D00095E09093B1008093700008958FEF85B9E3
:1018E00088B98BB9E4E6F0E08081806880838081EC
:1018F0008160808380818260808383B7817F83BFA2
:1019000085B7806685BF8F7D85BF83B7816083BFC4
:101910000895CF93DF938091500190915101181653
:1019200019065CF50197909351018093500181EE67
:1019300093E00E94B42580915001909151011816B6
:101940001906BCF466E371E081EE93E00E9448253D
:10195000C1E0D0E007C069EA73E081EE93E00E9445
:10196000CD25219680915001909151018C179D07B2
:1019700094F789EA93E00E944604DF91CF9108959D
:1019800080915001909151018F3F2FE7920701F113
:1019900001969093510180935001019731F466E3D1
:1019A00071E081EE93E00E94482580915001909172
:1019B00051011816190664F469EA73E081EE93E0A8
:1019C0000E94CD258091B203811102C0A2CF08955B
:1019D00089EA93E00C94460408951F920F920FB683
:1019E0000F9211242F933F934F935F936F937F93A5
:1019F0008F939F93AF93BF93EF93FF932ED18091DB
:101A0000660180FF0CC08091680180FD08C0809154
:101A100066018E7F8093660181E0809367018091EB
:101A2000660181FF13C0809166018D7F80936601FE
:101A30008091680181FD0AC08091680182FF06C023
:101A400081E090E090934F0180934E018091660178
:101A500082FF13C0809166018B7F80936601809125
:101A6000680182FD0AC08091680181FF06C082E0A2
:101A700090E090934F0180934E010E944B03FF91A1
:101A8000EF91BF91AF919F918F917F916F915F91F6
:101A90004F913F912F910F900FBE0F901F9018956F
:101AA0001DDF8CE00E94B72C85EA9CE290934901EF
:101AB000809348010E94DA0205DF78942FEF84E3D7
:101AC0009CE0215080409040E1F700C0000041E0E0
:101AD00067E371E086E791E00E94501C90930A044E
:101AE00080930904009761F08330910539F466E032
:101AF00073E089EF92E00E94590502C00E9436040B
:101B00008091090490910A04892BC1F60BDE2AD931
:101B10006DE070E089E691E00E9479228FEF9FEFFF
:101B200090935101809350012BDF33D980914E0166
:101B300090914F018130910519F0029739F00BC057
:101B4000E8DE10924F0110924E0105C019DF10928D
:101B50004F0110924E0180916701882309F441C022
:101B60008091500190915101892B91F485E391E08E
:101B70000E941F226DE070E089E691E00E947922C8
:101B80008FEF9FEF9093510180935001F9DE27C0B2
:101B90008091B10384FF12C082EB93E00E941F2268
:101BA0006DE070E089E691E00E9479228FEF9FEF6F
:101BB0009093510180935001E3DE11C08091B203F4
:101BC000882369F089EA93E0B4DD80915D0190910A
:101BD0005E01892BD1F789EA93E00E9446041092B6
:101BE00067018895A2CF811103C00C94DA2708956C
:101BF00081E00895811103C00C940527089581E0C8
:101C000008950F931F93FB01811107C0BA01A90129
:101C1000CF0198010E94DD2702C084E090E01F916F
:101C20000F9108950F931F93FB01811107C0BA0113
:101C3000A901CF0198010E942A2802C084E090E007
:101C40001F910F910895811105C0862FBA010C9440
:101C50009628089584E090E008950C94172C089538
:101C6000FC01218130E0322F22278081A901482BFD
:101C7000CA010895FC016381862F90E0A0E0B0E0E6
:101C8000BA2FA92F982F88272281822BBA2FA92F0C
:101C9000982F88272181822BBA2FA92F982F882748
:101CA0002081BC01CD01622B0895FC01608371830A
:101CB0000895FC0140835183628373830895DC019E
:101CC000FB014115510549F080818C934150510928
:101CD0001196319641155105B9F70895FC016083BD
:101CE00041505109319641155105C9F70895CF93D7
:101CF000DF93DC01FB01ED0121968C9190E0BF01A7
:101D00006F5F7F4F2081821B91094150510921F063
:101D1000DE01FB01009779F3DF91CF910895FC017B
:101D200001C031968081882339F0282F082E000CBD
:101D3000330B26173707A9F7082E000C990B0895C7
:101D40000F931F93FC019A01AB0122503109410905
:101D500051098789908DA18DB28D0297A109B10992
:101D6000281739074A075B0768F4A185B2850E94E6
:101D70002C2D03A514A525A536A5600F711F821F64
:101D8000931F03C060E070E0CB011F910F91089595
:101D9000CF92DF92EF92FF920F931F93CF93DF9337
:101DA0008C01EB01CB014A965BDF6C01E12CF12C3D
:101DB000F8018081833061F4CE01449651DFA0E0C8
:101DC000B0E0DC0199278827C82AD92AEA2AFB2A09
:101DD000C701B601DF91CF911F910F91FF90EF9056
:101DE000DF90CF900895CF92DF92EF92FF920F9302
:101DF0001F93CF93DF938C01EB0169017A01B90145
:101E0000CE014A9652DFF8018081833031F4B70168
:101E100088279927CE01449648DFDF91CF911F9103
:101E20000F91FF90EF90DF90CF9008950F931F9345
:101E3000CF93DF93EC01FB0111868E899F89A88DDA
:101E4000B98D892B8A2B8B2B09F441C0E0E0F0E09F
:101E500020E030E01EC0AA8DBB8DA9014F5F5F4F0F
:101E6000A20FB31F9C91903299F0953009F495EE32
:101E70004930510539F4DB01AE0FBF1F8EE21996D0
:101E80008C933196DB01AE0FBF1F19969C93319650
:101E90009A012B303105F8F28B01E60FF71F1186FE
:101EA000EA8DFB8D8385FB0180878A8D9B8D4C9607
:101EB000E1DEF80160837183828393838A8D9B8D39
:101EC0004696D8DEF8017783668395838483DF9115
:101ED000CF911F910F9108954F925F926F927F92D1
:101EE0008F929F92AF92BF92CF92DF92EF92FF922A
:101EF0000F931F93CF93DF935C013B01FB01C081E4
:101F0000D1816C01FCE1CF0ED11C4BE050E060E2CE
:101F100070E0C601E3DE88818E3281F540E050E05A
:101F200080E090E09C012F5F3F4FFE01E80FF91F1A
:101F300080818E3259F42330310540F4F601E40FEC
:101F4000F51F8083C9014F5F5F4FECCF8F3229F0BF
:101F50008C3519F0813208F081C0C20FD31FF30114
:101F6000D183C083813210F484E201C080E2F501A4
:101F700087A380E090E083C0C80108C0E12CF12C69
:101F800080E090E06894882483F8912C8C010F5FA6
:101F90001F4FFE01E80FF91F4080542CF0E2F415AA
:101FA00008F044C08FE2481631F09CE549120CC09D
:101FB00002C00F5F1F4FFE01E00FF11F80818F32C3
:101FC000C1F38C35B1F332C0EEE24E1619F0E814CD
:101FD000F90490F0FBE08F16910409F442C08EE200
:101FE000581242C06894EE24E3F8F12C0F2EFBE067
:101FF0008F2E912CF02DC0CF4420CCF1642D70E0B9
:1020000088E391E08CDE892BA9F58FE9840D8A3174
:1020100028F40F2EF0EE5F2EF02D540CF601EE0D8D
:10202000FF1D5082F70131967F01A6CFC00FD11F4F
:10203000F301D183C083EF2801F1F501848D853E42
:1020400011F485E0848FF0E2F51510F084E001C012
:1020500080E0F50187A380E090E011C086E090E089
:102060000EC086E090E00BC086E090E008C086E0FD
:1020700090E005C086E090E002C086E090E0DF914D
:10208000CF911F910F91FF90EF90DF90CF90BF9075
:10209000AF909F908F907F906F905F904F9008953A
:1020A000CF93DF93EC01A881B981109729F48FEFCA
:1020B0009FEF2AC0319601C0FD019081913210F04E
:1020C0009A33C1F79A33A9F4AD014F5F5F4F2C915A
:1020D000022E000C330BC901C0978A30910560F4C1
:1020E000E417F50761F4009769F43196F983E88302
:1020F0000BC080E090E008C08FEF9FEF05C08FEF2E
:102100009FEF02C08FEF9FEFDF91CF9108950F9364
:102110001F93CF93DF93EC018B01892B91F0E88122
:10212000F981309771F08081882359F025813681BB
:102130008A819B812817390721F4818154DD80FF32
:1021400006C0F8011182108289E090E007C0888102
:102150009981F8019183808380E090E0DF91CF91B5
:102160001F910F9108958F929F92AF92BF92CF923D
:10217000DF92EF92FF920F931F93CF93DF93FC01B7
:102180002381222309F442C0EC01C7A4D0A8E1A80E
:10219000F2A85C01F3E3AF0EB11C01E010E0A7016F
:1021A0009601B50189813EDD892B99F51B828BA1B2
:1021B0009CA1ADA1BEA1B701A601481B590B6A0B9A
:1021C0007B0B8B8D9C8DAD8DBE8D481759076A0793
:1021D0007B0710F58A80912C12C08B8D9C8DAD8D64
:1021E000BE8DC80ED91EEA1EFB1E01E010E0A7013D
:1021F0009601B501898116DD81E0881A9108E2E037
:102200008E16910450F780E090E008C080E090E0E6
:1022100005C081E090E002C080E090E0DF91CF91C6
:102220001F910F91FF90EF90DF90CF90BF90AF90F4
:102230009F908F9008958F929F92AF92BF92EF924E
:10224000FF920F931F93CF93DF93EC014A015B0141
:102250008FA598A9A9A9BAA984179507A607B707B2
:10226000E1F0CE0180DF7C01892BC9F401E010E0B0
:10227000A5019401BE016D5C7F4F8981C2DC892B71
:1022800039F0EE24E394F12C88248A94982C54019C
:102290008FA698AAA9AABAAA02C0E12CF12CC7015C
:1022A000DF91CF911F910F91FF90EF90BF90AF9072
:1022B0009F908F900895CF93DF93EC011B828FEF57
:1022C0009FEFDC018FA798ABA9ABBAABCE01B3DF10
:1022D000892B31F5CE018F5C9D4FC2DC85359A4A42
:1022E00009F58BA9893E29F08B3EF1F48DA980393F
:1022F000E9F4CE0187599F4FBDDCDC01CB01BB2740
:1023000086349144A445B10599F0CE018B579F4F77
:10231000B1DC663471448445934361F480E00BC0C2
:1023200084E009C083E007C082E005C082E003C00A
:1023300080E001C082E0DF91CF9108954F925F92DB
:102340006F927F928F929F92AF92BF92CF92DF92C5
:10235000EF92FF920F931F93CF93DF93CDB7DEB72A
:10236000A0970FB6F894DEBF0FBECDBF6B01B42EA1
:10237000DB011D921C9294DE7C0199230CF456C261
:10238000FC01EE0FFF1FEF59FE4F00811181011577
:10239000110509F44EC2F60111830083FB2DFE7F67
:1023A000BF2ED8018C91882369F011968C911BDC8B
:1023B00080FD08C0BB2009F43FC282FD40C280E01E
:1023C00090E06FC2F8011082E1828E2D13DC80FD57
:1023D00039C2BB2011F082FD38C240E050E0BA01A2
:1023E000C80169DF823071F1C12CD12C760155C052
:1023F000F701E295F295F07FFE27E07FFE27E25499
:10240000FE4FC801C396E80FF91F8481882321F08D
:10241000CF0108962FDC03C060E070E0CB01F7012C
:10242000EE0FFF1FEE0FFF1F21E030E02C0F3D1FCE
:10243000E20FF31F60837183828393833FEFE31A7C
:10244000F30A02C0E12CF12C44E0E416F10480F21E
:10245000A12CB12CF501EE0FFF1FEE0FFF1F61E065
:1024600070E06C0F7D1FE60FF71FC080D180E28007
:10247000F380C114D104E104F10429F0B701A601ED
:10248000C80119DF01C083E0823038F07FEFA71A5E
:10249000B70A94E0A916B104E8F2843009F4D8C16F
:1024A000823008F0D8C1C801CE96DADB811592409F
:1024B00009F0D4C1C801875B9F4FD2DB9C0140E08B
:1024C00050E0298B3A8B4B8B5C8B232B242B252BB9
:1024D00041F4C801895A9F4FCDDB698B7A8B8B8B76
:1024E0009C8B49895A896B897C89D8015B964D936D
:1024F0005D936D937C935E97F801ED5BFF4FA08138
:10250000F801A2838FEF8A0F823008F0AAC1B0E0F1
:102510009A01AB010E942C2D698F7A8F8B8F9C8F33
:10252000E05CFF4FA080B12CD8011A96BC92AE920D
:102530001997A114B10409F497C1C50101978A2123
:102540009B21892B09F093C1C8018C5B9F4F88DBCD
:102550004C01F801908787838F709927892B09F0A8
:1025600089C1C8018A5B9F4F7BDB2C01612C712CD8
:10257000411451046104710431F4C8018D5A9F4F14
:1025800079DB2B013C01C8018F5B9F4F69DB009712
:1025900009F473C19C0140E050E02D8F3E8F4F8FB6
:1025A00058A3898D9A8DAB8DBC8D820F931FA41F6C
:1025B000B51F9401329522952F7023273F70232752
:1025C000AC01BD01420F531F611D711D4D8B5E8B10
:1025D0006F8B788F441655066606770608F450C14F
:1025E000C301B2012D893E894F89588D621B730B3F
:1025F000840B950B950140E050E00E94F52CDA0128
:10260000C901211531054105510509F43CC1263F99
:102610006FEF36074105510528F00F2EF3E0BF2E6E
:10262000F02D03C06894BB24B1F8863F9F40A105FC
:10263000B10510F4BB24B39429013A0182E0480E9D
:10264000511C611C711CD80157964D925D926D9280
:102650007C925A97F801C78ED0A2E1A2F2A28D8D8A
:102660009E8DAF8DB8A18C0D9D1DAE1DBF1D83A38A
:1026700094A3A5A3B6A34D895E896F89788D4C0D6F
:102680005D1D6E1D7F1D43A754A765A776A7F3E0C8
:10269000BF121EC0C801835A9F4FE2DA892B09F08E
:1026A000F5C0892809F0F5C0C801815A9F4FE2DAC8
:1026B000D80197966D937D938D939C939A97440C34
:1026C000551C661C771C440C551C661C771C2DC0C1
:1026D000892809F4E1C0298D3A8D4B8D5C8D820FDC
:1026E000931FA41FB51FF80187A390A7A1A7B2A7A6
:1026F000F2E0BF1205C0440C551C661C771C15C0C7
:10270000A3E0B0E0A30192010E942C2DDC01CB01DB
:10271000B695A7959795879521E042225524662482
:102720007724480E591E6A1E7B1E3FEF430E31E090
:10273000531E611C711C032E39E0769467945794E4
:1027400047943A95D1F7302D49895A896B897C890C
:10275000441555056605770508F4A1C08FEF9FEF76
:10276000DC01F8018787908BA18BB28B83879487DC
:10277000A587B68780E88483F3E0BF1240C0C80114
:102780008D599F4F6DDA019709F039C0B701A60145
:102790004F5F5F4F6F4F7F4FC8014DDD892B79F53C
:1027A000D80114961C92C8018F5C9D4F59DA85356B
:1027B0009A4A29F5C801C3965DDA623572458146A9
:1027C0009144E9F4C801895E9D4F54DA623772473B
:1027D00081449146A1F4C801855E9D4F4BDAD80132
:1027E0001F966D937D938D939C935297C801815E44
:1027F0009D4F40DAF8016387748785879687D801F3
:10280000BC9280915F01909160010196909360016C
:1028100080935F0116969C938E931597F801138A07
:10282000148A158A168A80E090E03BC08BE090E025
:1028300038C08CE090E035C080E090E032C08AE0A3
:1028400090E02FC083E090E02CC08AE090E029C0A7
:1028500081E090E026C08DE090E023C08DE090E024
:1028600020C08DE090E01DC08DE090E01AC08DE0AA
:1028700090E017C08DE090E014C08DE090E011C0B2
:102880008DE090E00EC08DE090E00BC08DE090E018
:1028900008C08DE090E005C08DE090E002C08DE0C2
:1028A00090E0A0960FB6F894DEBF0FBECDBFDF91CB
:1028B000CF911F910F91FF90EF90DF90CF90BF903D
:1028C000AF909F908F907F906F905F904F90089502
:1028D0002F923F924F925F926F927F928F929F9230
:1028E000AF92BF92CF92DF92EF92FF920F931F931E
:1028F000CF93DF9300D000D0CDB7DEB74230510583
:102900006105710508F4EDC0FC01C788D08CE18C2D
:10291000F28C4C155D056E057F0508F0E5C02801B9
:1029200039016A017B019C838B838081823009F4A9
:1029300075C0833009F498C0813009F0D8C04A01CD
:1029400096948794840E951E43A154A165A176A107
:10295000C401892F99278695480F591F611D711D44
:10296000CF0169DC8C01892B09F0C3C02B803C802E
:10297000F3E32F0E311C94012F5F3F4F3A832983DD
:1029800031E09322F101E80DF91D4601570181E084
:1029900088229924AA24BB24C0FE08C0208130E1EB
:1029A000439EC00111242F70822B01C0842D80838F
:1029B00081E0EB81FC81838343A154A165A176A1D1
:1029C00089819A81892F99278695480F591F611D02
:1029D000711DCF0130DC8C01892B09F08AC08981FF
:1029E0009A819170F101E80FF91F89288A288B28B4
:1029F00049F0689413F87694679457944794169422
:102A0000D1F706C09081907F852D8F70492E482A7E
:102A1000408281E0EB81FC8183836BC0EB81FC8190
:102A200043A154A165A176A1BB27AF2D9E2D8D2D6D
:102A3000480F591F6A1F7B1FCF01FDDB8C01892BBB
:102A400009F057C02B813C812D5C3F4FCC0CDD1C25
:102A5000C6018E7F9170B201820F931F26D981E04B
:102A6000EB81FC81838345C0EB81FC8143A154A1B0
:102A700065A176A1D701C601689416F8B695A79509
:102A8000979587951694D1F7480F591F6A1F7B1F9A
:102A9000CF01D1DB8C01892B61F5FFE07F228B8197
:102AA0009C81C396CC0CDD1CCC0CDD1C2CEFC2220F
:102AB00021E0D222C80ED91EC601DCD8DC01CB0130
:102AC00088279927AA27B07FB301A201482B592B49
:102AD0006A2B7B2BC601EDD881E0EB81FC818383DF
:102AE00008C002E010E005C002E010E002C002E011
:102AF00010E0C8010F900F900F900F90DF91CF91D1
:102B00001F910F91FF90EF90DF90CF90BF90AF900B
:102B10009F908F907F906F905F904F903F902F90FD
:102B20000895AF92BF92CF92DF92EF92FF920F93F0
:102B30001F93CF93DF93FC01C081D18142305105B7
:102B40006105710508F4A4C08F89988DA98DBA8D8F
:102B5000481759076A077B0708F09FC06A017B0185
:102B60008881823009F450C0833009F46CC0813010
:102B700009F098C08A0116950795040F151F4BA1FF
:102B80005CA16DA17EA1C801892F99278695480F68
:102B9000591F611D711DCE014EDB892B09F087C0C5
:102BA0005801FFEFAF1ABF0A1170FE01E00FF11FCD
:102BB00003A910E04BA15CA16DA17EA1C501892FE5
:102BC00099278695480F591F611D711DCE0133DB72
:102BD000892B09F070C081E0B822CA0DDB1D6BA9FA
:102BE00070E0762F6627602B712BC0FE09C07295AE
:102BF00062956F7067277F70672780E090E066C0FE
:102C00007F7080E090E062C04BA15CA16DA17EA1CD
:102C1000BB27AF2D9E2D8D2D480F591F6A1F7B1F7F
:102C2000CE0109DB892B09F04AC0CE01C396A6016B
:102C3000440F551F4E7F5170840F951F11D8BC0152
:102C400080E090E043C04BA15CA16DA17EA1D701C3
:102C5000C601689416F8B695A7959795879516942A
:102C6000D1F7480F591F6A1F7B1FCE01E4DA892B69
:102C700051F5E396A601440F551F440F551FCA0195
:102C80008C7F91708C0F9D1F0E943A0E9F701EC00A
:102C900061E070E080E090E019C061E070E080E009
:102CA00090E014C061E070E080E090E00FC06FEF52
:102CB0007FEFCB010BC06FEF7FEFCB0107C06FEF52
:102CC0007FEFCB0103C06FEF7FEFCB01DF91CF919F
:102CD0001F910F91FF90EF90DF90CF90BF90AF903A
:102CE00008954F925F926F927F928F929F92AF92D0
:102CF000BF92CF92DF92EF92FF920F931F93CF93E9
:102D0000DF93EC016A017B010881198141155105AE
:102D100080E26807710508F0ACC0DB01CA018F7161
:102D20009927AA27BB27892B8A2B8B2B09F0A4C0B4
:102D30004E875F87688B798B8E809F80A884B9844B
:102D400081149104A104B10441F4F801808183301D
:102D500020F087A090A4A1A4B2A481149104A1049E
:102D6000B104F1F4F80187819085A0E0B0E0B701EB
:102D7000A601689414F8769567955795479516942B
:102D8000D1F7481759076A077B0708F078C087A171
:102D900090A5A1A5B2A58E8B9F8BA88FB98F3FC0A0
:102DA000F80141845284612C712C032E39E0440CCB
:102DB000551C661C771C3A95D1F7302D22C0B50101
:102DC000A401CE01AEDE4B015C016F3F7F4F8F4F00
:102DD0009F4F09F457C082E088169104A104B10402
:102DE00008F453C0F8018789908DA18DB28D8816A3
:102DF0009906AA06BB0608F04BC0C418D508E60819
:102E0000F708C414D504E604F704C8F6B501A40114
:102E1000C8010E94A00E6E8B7F8B888F998F8A8A43
:102E20009B8AAC8ABD8A8E899F89A88DB98D0097AF
:102E3000A105B10581F1B701A601032E39E0769510
:102E40006795579547953A95D1F7302D840F951F83
:102E5000A61FB71F8E8B9F8BA88FB98F0D5C1F4F3E
:102E6000F1E0DF22C00ED11EDB8ECA8E80E090E042
:102E700014C082E090E011C082E090E00EC082E0D9
:102E800090E00BC081E090E008C082E090E005C0D7
:102E900082E090E002C082E090E0DF91CF911F914C
:102EA0000F91FF90EF90DF90CF90BF90AF909F90E9
:102EB0008F907F906F905F904F9008954F925F92A8
:102EC0006F927F928F929F92AF92BF92CF92DF923A
:102ED000EF92FF920F931F93CF93DF938C012A0100
:102EE0003B01FC01C081D18141155105610571058E
:102EF00099F48B849C84AD84BE8481149104A104D4
:102F0000B10429F18F89988DA98DBA8D88169906FB
:102F1000AA06BB0608F524C004DE623071058105EF
:102F2000910508F496C06F3FFFEF7F078F079F075B
:102F300009F494C0CF88D88CE98CFA8C6C157D0587
:102F40008E059F0508F48EC05301420109C0812CF3
:102F5000912C5401839404C0812C912C54018394AE
:102F6000750164012FEFC21AD20AE20AF20A8F89B0
:102F7000988DA98DBA8DC816D906EA06FB0660F0B1
:102F800082E088169104A104B10408F46FC0C12C3A
:102F9000D12C76016894C1F8B701A601C801C1DD42
:102FA000611571058105910599F061307105810503
:102FB000910509F460C06F3FEFEF7E078E079E0713
:102FC00009F45DC0C814D904EA04FB0459F65BC0D7
:102FD0000FEF1FEF9801B701A601CE0179DC009732
:102FE00059F4411451046104710431F097018601D0
:102FF000B301A201CE016CDC009721F5CB86DC8603
:10300000ED86FE868F859889A989BA894F89588D62
:10301000698D7A8D42505109610971094817590724
:103020006A077B0738F00197A109B1098F87988B50
:10303000A98BBA8B8C8181608C834C2D3D2D2E2DDC
:103040009F2D2AC0019721F54FEF3FEF2FEF9FEF04
:1030500023C041E030E020E090E01EC0462F372F33
:10306000282F1AC0462F372F282F16C040E030E0F7
:1030700020E090E011C0462F372F282F0DC0462F9B
:10308000372F282F09C040E030E020E090E004C056
:1030900041E030E020E090E0642F732F822FDF9139
:1030A000CF911F910F91FF90EF90DF90CF90BF9045
:1030B000AF909F908F907F906F905F904F9008950A
:1030C0004F925F926F927F92AF92BF92CF92DF92B8
:1030D000EF92FF920F931F93CF93DF935C016A01EE
:1030E0007B01B901A801FC01C081D181F2E0CF16BA
:1030F000D104E104F10408F461C08F89988DA98D91
:10310000BA8DC816D906EA06FB0608F05AC0012B8C
:10311000022B032B41F00FEF1FEF9801CE01D8DBFC
:10312000009709F059C0B701A601C501FADC2B01CF
:103130003C01611571058105910509F445C06130B7
:1031400071058105910509F442C08FEF48165806B4
:103150006806780609F43EC000E010E09801B70167
:10316000A601CE01B5DB0097B9F58F859889A989AD
:10317000BA894F89588D698D7A8D6A017B01E2E0A9
:10318000CE1AD108E108F1088C159D05AE05BF05E2
:1031900050F40196A11DB11D8F87988BA98BBA8B16
:1031A0008C8181608C83730162014416550666062A
:1031B000770608F4B8CF80E090E00EC082E090E09F
:1031C0000BC082E090E008C080E090E005C082E0A3
:1031D00090E002C081E090E0DF91CF911F910F91CC
:1031E000FF90EF90DF90CF90BF90AF907F906F9067
:1031F0005F904F9008954F925F926F927F92AF923F
:10320000BF92CF92DF92EF92FF920F931F93CF93D3
:10321000DF93EC0108811981CE84DF84E888F98886
:1032200020E2C20ED11CE11CF11C8E899F89A88D61
:10323000B98D0097A105B10509F4F8C0C114D104F6
:10324000E0E2EE06F10408F0F4C05B01B701A6016C
:10325000517066277727452B462B472B09F0D7C09F
:103260000196A11DB11D8E8B9F8BA88FB98F4A89A6
:103270005B896C897D894115510561057105E1F412
:10328000F80187819085A0E0B0E0B701A6016894BD
:1032900014F876956795579547951694D1F7481782
:1032A00059076A077B0708F4B2C01E8A1F8A188E66
:1032B000198E84E090E0D4C0F80181859285019751
:1032C0002C01612C712CD701C601072E79E0B6952F
:1032D000A795979587957A95D1F7702D842195219B
:1032E000A621B721892B8A2B8B2B09F090C0CE0108
:1032F00018DC2B013C01623071058105910508F451
:103300009BC06F3F7F4F8F4F9F4F09F498C0F801CC
:103310008789908DA18DB28D481659066A067B0665
:1033200008F468C0AB2839F41E8A1F8A188E198EDB
:1033300084E090E095C04A895B896C897D89CE01E3
:10334000BDDD2B013C01611571058105910509F475
:1033500079C0613071058105910509F476C06F3F30
:103360007F4F8F4F9F4F09F473C0C8010E94B31065
:10337000892B09F070C040E052E060E070E0C801C5
:10338000C3960E946E0EB301A201C8010E94A00E56
:10339000F80167A770AB81AB92ABA12CB12C18C020
:1033A00081E0F8018383C8010E94B310892B09F0E2
:1033B00055C0FFEFAF1ABF0AF80187A590A9A1A9D0
:1033C000B2A90196A11DB11D87A790ABA1ABB2AB6D
:1033D000F80181859285A816B90610F387A590A9F2
:1033E000A1A9B2A98A199B09A109B10987A790AB24
:1033F000A1ABB2AB4A8A5B8A6C8A7D8AB301A20117
:10340000C8010E94A00E6E8B7F8B888F998FCE860D
:10341000DF86E88AF98A0D5C1F4FF1E0DF22C00EDB
:10342000D11EDB8ECA8E80E090E01AC084E090E06E
:1034300017C084E090E014C082E090E011C081E009
:1034400090E00EC087E090E00BC082E090E008C002
:1034500081E090E005C081E090E002C081E090E072
:10346000DF91CF911F910F91FF90EF90DF90CF9060
:10347000BF90AF907F906F905F904F900895EF92C4
:10348000FF920F931F93CF93DF93EC01E880F980B5
:1034900040E050E0BA0125DC009769F54E895F896C
:1034A000688D798DC7010E941B118C010097E1F492
:1034B000EA8DFB8D80818823C9F083858F738C838F
:1034C000838583FD0AC04BE050E0BE01645E7F4F00
:1034D000CF010E94770E892B61F060E070E0CE0191
:1034E0008ADE0097D9F207C0912F05C084E090E0F2
:1034F00002C0802F912FDF91CF911F910F91FF90EC
:10350000EF900895CF92DF92EF92FF920F931F9367
:10351000CF93DF9300D0CDB7DEB78C01FB017A8368
:103520006983DC01ED90FC9080818F3281F08C35D5
:1035300071F0F70183899489A589B689F80186839A
:103540009783A087B18711C03196FA83E983E98117
:10355000FA8180818F32C1F38C35B1F3D801169690
:103560001D921D921D921C921997E981FA8180810A
:10357000803250F480E8F80187A340E050E0BA01BF
:10358000C801AFDB6C014BC0BE016F5F7F4FC8014C
:103590000E946C0F6C01892B09F041C0C8016FDFDC
:1035A000D80197962C919797009779F084309105E0
:1035B00039F525FF06C022FFE7CF80E897968C9368
:1035C0002EC022FF1FC06C012AC022FD21C0F801BD
:1035D000848184FF1FC086859785A089B1899170F9
:1035E000B7016D5C7F4F680F791FC7010E94C80E3D
:1035F000D80116966D937D938D939C931997C4CFA4
:103600006C010DC00F2EF5E0CF2ED12CF02D07C090
:103610006C0105C00F2EF5E0CF2ED12CF02DC60188
:103620000F900F90DF91CF911F910F91FF90EF902E
:10363000DF90CF900895CF92DF92EF92FF920F9399
:103640001F93CF93DF93EC016B01E880F98040E09A
:1036500050E0BA0146DB009701F500E010E04E892A
:103660005F89688D798DC7010E941B110097A9F4AD
:10367000EA8DFB8D2081253E11F0211106C00F5FE0
:103680001F4F0C151D0519F408C000E010E061E0A3
:1036900070E0CE01B0DD009711F38430910511F494
:1036A00087E090E0DF91CF911F910F91FF90EF9015
:1036B000DF90CF900895EF92FF920F931F93CF93D7
:1036C000DF93EC01E880F98061E070E0B4DF8C0109
:1036D000892BF1F44E895F89688D798DC7010E942D
:1036E0001B118C01892BA1F440E250E060E070E0F6
:1036F0008A8D9B8D0E946E0EBE01645E7F4F4BE0F3
:1037000050E08A8D9B8D0E945F0E81E0F7018383DC
:10371000C801DF91CF911F910F91FF90EF90089515
:10372000EF92FF920F931F93CF93DF93EC017B01F6
:103730000881198184E090E025C0C8010E941B1116
:10374000009761F5EA8DFB8D3081332329F12385C4
:103750002F732C83353E81F03E3271F02F3061F0B3
:1037600030E02F7D41E050E02830310511F040E09D
:1037700050E04E155F0591F060E070E0CE013BDD5A
:10378000009761F44E895F89688D798D41155105E7
:103790006105710591F602C084E090E0009721F088
:1037A0001E8A1F8A188E198EDF91CF911F910F915B
:1037B000FF90EF900895CF92DF92EF92FF920F93D8
:1037C0001F93CF93DF93EC010E94B3107C01892BF0
:1037D00009F05CC08881833009F04DC08C81813054
:1037E00009F049C040E052E060E070E06E0183E320
:1037F000C80ED11CC6010E946E0E65E57AEACE01A4
:103800008F5C9D4F0E94550E42E552E561E671E4E2
:10381000C6010E94590E42E752E761E471E6CE010B
:10382000895E9D4F0E94590E4F85588969897A8912
:10383000CE01855E9D4F0E94590E4B855C856D853E
:103840007E85CE01815E9D4F0E94590E8F8D98A17D
:10385000A9A1BAA19C01AD012F5F3F4F4F4F5F4F10
:103860002FA738AB49AB5AAB01E010E0B601898114
:103870000E94120E1C8240E050E060E089810E94AC
:10388000230E892B19F0EE24E394F12CC701DF916C
:10389000CF911F910F91FF90EF90DF90CF900895FF
:1038A0001F93CF93DF9300D000D000D0CDB7DEB709
:1038B0009C838B837E836D83142F7A836983CE01EF
:1038C00001960E945010992334F1FC01EE0FFF1F66
:1038D000EF59FE4F0190F081E02D309709F01082F2
:1038E000EB81FC81309709F010822B813C81880F9D
:1038F000991FFC01EF59FE4F31832083232B71F078
:10390000113079F440E0BE016D5F7F4FCE01059626
:103910000E949E1108C08BE090E005C080E090E01E
:1039200002C080E090E026960FB6F894DEBF0FBE8E
:10393000CDBFDF91CF911F9108952F923F924F926B
:103940005F926F927F928F929F92AF92BF92CF922F
:10395000DF92EF92FF920F931F93CF93DF93CDB738
:10396000DEB7AC970FB6F894DEBF0FBECDBF7CA715
:103970006BA7009709F46FC1F42E1C01842F8F737D
:10398000782E482FBE01675D7F4FCE018B960E9437
:103990009E118C01892B09F055C189A59AA59A839E
:1039A00089836BA57CA5CE010196ACDD8C01892BAA
:1039B00029F488A5882314F406E010E08F2D8C717B
:1039C00009F479C00115110559F00430110521F4ED
:1039D000CE01019670DE8C01E72DE8607E2E0BC0D3
:1039E0008D81817119F4F2FC04C005C007E010E07C
:1039F00002C008E010E00115110509F06CC073FE6B
:103A00006AC08B8D9C8D40E050E061E270E00E96C4
:103A10000E94590E8B8D9C8D40E050E061E270E079
:103A200046960E94590EEB8DFC8D80E28387CB8CED
:103A3000DC8CE9A4FAA4B601C7010E94C80E4B01B0
:103A40005C0120E030E0A901B601C7010E94F30E3D
:103A50008B8D9C8D40E050E0BA014C960E94590E2F
:103A6000E9A5FAA581E0838381149104A104B1043E
:103A700091F1C7A4D0A8E1A8F2A800E010E0980155
:103A8000B501A401CE0101961BDB8C01892B19F530
:103A9000B701A60189A59AA50E941B118C01E9A571
:103AA000FAA581E0881A9108A108B1088386948656
:103AB000A586B68610C00115110569F48D8184FDB7
:103AC00005C0F1FE08C080FD04C005C004E010E0A0
:103AD00002C007E010E001151105A1F473FE03C058
:103AE000E72DE0647E2EE9A5FAA587A590A9A1A9F6
:103AF000B2A9F101848F958FA68FB78F8B8D9C8D86
:103B000091A380A30115110509F09CC0AB8CBC8C5E
:103B100049A45AA4B501C2010E94C80E6B017C01E0
:103B2000F1016683778380879187C5014C960E9457
:103B30003A0E4B015C01F101628773878487958798
:103B400051824082F20185819681F10193838283C3
:103B500076861786108E118E128E138E108A118A19
:103B6000128A138A75FE6EC081149104A104B104F7
:103B700009F468C0808A918AA28AB38AF2014184DA
:103B80005284612C712C032E39E0440C551C661CA8
:103B9000771C3A95D1F7302D1AC0B701A601C101A3
:103BA0000E9491156B017C016230710581059105C0
:103BB00010F402E010E08FEFC816D806E806F80609
:103BC00011F401E010E084189508A608B708011563
:103BD000110529F4481459046A047B04F0F2F10138
:103BE000C48AD58AE68AF78A0115110559F5D501E7
:103BF000C4019170AA27BB27892B8A2B8B2B11F12B
:103C0000B701A60189A59AA50E94A00E61157105AC
:103C100081059105A9F0072E79E0B694A7949794B1
:103C200087947A95D1F7702DDC01CB01880D991D11
:103C3000AA1DBB1DF101808F918FA28FB38F02C08F
:103C400002E010E00115110549F0F1011182108226
:103C5000802F912F05C089E090E002C0802F912F26
:103C6000AC960FB6F894DEBF0FBECDBFDF91CF91FB
:103C70001F910F91FF90EF90DF90CF90BF90AF908A
:103C80009F908F907F906F905F904F903F902F907C
:103C900008952F923F924F925F926F927F928F92F0
:103CA0009F92AF92BF92CF92DF92EF92FF920F93CB
:103CB0001F93CF93DF93CDB7DEB728970FB6F89455
:103CC000DEBF0FBECDBF7C013B015A014901F901A6
:103CD000118210828D83FE82BE016F5F7F4F0E9432
:103CE0008710009709F035C1F701278530E02115CD
:103CF000310509F029C1868580FF29C18285938518
:103D0000A485B5854089518962897389841B950B87
:103D1000A60BB70BA50160E070E084179507A60716
:103D2000B70708F00AC15C0108C1F70180899189D1
:103D3000A289B389AC01BD01517066277727452B55
:103D4000462B472B09F0B0C0E981FA810185128525
:103D500001501109AC01BD01032E39E0769567953C
:103D6000579547953A95D1F7302D04231523011522
:103D7000110569F5892B8A2B8B2B31F4F7016681AC
:103D800077818085918509C0F701448955896689C5
:103D900077898D819E810E94911562307105810520
:103DA000910528F482E0F701878790E0D2C06F3F49
:103DB000FFEF7F078F079F0729F481E0F7018787CF
:103DC00090E0C7C0F701648B758B868B978BF701EA
:103DD000448955896689778989819A819C838B83F7
:103DE0000E94A00E611571058105910529F482E0FC
:103DF000F701878790E0ADC01B012C01200E311E1A
:103E0000411C511C6501CD2CDD24C694C114D10484
:103E100009F445C0EB81FC8121853285C8018C0DF8
:103E20009D1D2817390718F46901C01AD10A8601A7
:103E3000A2019101B301EB81FC8181810E94010EFD
:103E4000892B29F081E0F701878790E082C0E98122
:103E5000FA8183818823F9F087A590A9A1A9B2A945
:103E600082199309A409B509A60160E070E08417DE
:103E70009507A607B70778F4BF016D5C7F4FF82F51
:103E8000FF0FF8871F8240E052E08F819885860DF2
:103E9000971D0E945F0EDC2CCC24DD0C36C0F70190
:103EA000208E318E428E538EF70180899189A289AE
:103EB000B389917020E032E06901C81AD90AAC14C4
:103EC000BD0408F46501F701408D518D628D738D3D
:103ED00089819A810E941B11892B29F081E0F701C9
:103EE000878790E036C089819A819C012D5C3F4F85
:103EF000F70180899189A289B3899170B901680F0E
:103F0000791FA601C3010E945F0E6C0C7D1CF70196
:103F100080899189A289B3898C0D9D1DA11DB11D38
:103F2000808B918BA28BB38BF401808191818C0D5E
:103F30009D1D91838083AC18BD08A114B10409F0C4
:103F4000F4CE80E090E005C0822F932F02C087E07E
:103F500090E028960FB6F894DEBF0FBECDBFDF917C
:103F6000CF911F910F91FF90EF90DF90CF90BF9076
:103F7000AF909F908F907F906F905F904F903F9009
:103F80002F9008952F923F924F925F926F927F925F
:103F90008F929F92AF92BF92CF92DF92EF92FF9259
:103FA0000F931F93CF93DF93CDB7DEB728970FB64C
:103FB000F894DEBF0FBECDBF7C013B015A01490121
:103FC000F901118210828D83FE82BE016F5F7F4FE7
:103FD0000E948710009709F0A1C1F701278530E002
:103FE0002115310509F095C1868581FF95C180892C
:103FF0009189A289B389AC01BD014A0D5B1D611D88
:10400000711D481759076A077B0708F077C15C01E3
:10401000A094B09473C1F70180899189A289B38972
:10402000AC01BD01517066277727452B462B472BE6
:1040300009F008C1E981FA81018512850150110951
:10404000AC01BD01032E39E07695679557954795EC
:104050003A95D1F7302D042315230115110509F0E8
:104060004BC0892B8A2B8B2B91F4F70166817781CA
:1040700080859185611571058105910589F440E080
:1040800050E0BA018D819E810E945E1709C0F70140
:1040900044895589668977898D819E810E945E1742
:1040A000611571058105910509F42CC16130710517
:1040B0008105910529F482E0F701878790E02EC100
:1040C0006F3FFFEF7F078F079F0729F481E0F7011C
:1040D000878790E023C1F701648B758B868B978B64
:1040E0002681378140855185232B242B252B21F4D4
:1040F000668377838087918729813A81F90147A573
:1041000050A961A972A9F701808D918DA28DB38DFF
:10411000481759076A077B0751F4C9010E94B31079
:10412000892B29F081E0F701878790E0F7C0F7013C
:10413000448955896689778989819A819C838B8393
:104140000E94A00E611571058105910529F482E098
:10415000F701878790E0E2C01B012C01200E311E81
:10416000411C511C6501CD2CDD24C694C114D10421
:1041700009F444C0EB81FC8121853285C8018C0D96
:104180009D1D2817390718F46901C01AD10A860144
:10419000A2019101B301EB81FC8181810E94120E89
:1041A000892B29F081E0F701878790E0B7C0E9818A
:1041B000FA8147A550A961A972A942195309640956
:1041C0007509C601A0E0B0E0481759076A077B07E8
:1041D00088F4242F220F28871F826F817885660D2F
:1041E000771D40E052E0CF01C3960E945F0EE98147
:1041F000FA811382DC2CCC24DD0C58C0F7014089F5
:1042000051896289738982859385A485B58548170C
:1042100059076A077B0788F08B819C810E94B31045
:10422000892B29F081E0F701878790E077C0E98149
:10423000FA8127A630AA41AA52AAF701208E318E10
:10424000428E538EF70180899189A289B38991703A
:1042500020E032E06901C81AD90AAC14BD0408F4A0
:104260006501F701408D518D628D738D89819A8131
:104270000E941B11892B29F081E0F701878790E0CC
:104280004DC029813A812D5C3F4FF701408951890A
:1042900062897389CA019170A601B301820F931FCD
:1042A0000E945F0EE981FA8181E083836C0C7D1CA2
:1042B000F70180899189A289B3898C0D9D1DA11D6B
:1042C000B11D808B918BA28BB38B42855385648506
:1042D000758584179507A607B70710F4DB01CA0197
:1042E000F70182879387A487B587F4018081918144
:1042F0008C0D9D1D91838083AC18BD08A114B10461
:1043000009F089CEF70186858064868780E090E099
:1043100005C0822F932F02C087E090E028960FB649
:10432000F894DEBF0FBECDBFDF91CF911F910F91EB
:10433000FF90EF90DF90CF90BF90AF909F908F90C5
:104340007F906F905F904F903F902F900895EF92E5
:10435000FF920F931F93CF93DF9300D0CDB7DEB7BB
:104360008C01BE016F5F7F4F0E948710009709F09C
:1043700040C0F801268526FF3CC0448D558D668DD2
:10438000778D89819A810E941B11009791F5F80120
:10439000E0A0F1A0F701838580628387F801268180
:1043A000378140855185B701808191810E94F30E4C
:1043B000F8014285538564857585C7014C960E9436
:1043C000590E40E050E061E270E0C70146960E945D
:1043D000590E60E070E0C70142960E94550E898137
:1043E0009A8121E0FC012383E6D9F80126852F7B01
:1043F00026870F900F90DF91CF911F910F91FF9023
:10440000EF9008950F931F93CF93DF9300D0CDB714
:10441000DEB78C019CDF009759F4BE016F5F7F4FC0
:10442000C8010E948710009719F4F80111821082C8
:104430000F900F90DF91CF911F910F910895EF9200
:10444000FF920F931F93CF93DF93CDB7DEB7AC9757
:104450000FB6F894DEBF0FBECDBF9CA78BA740E080
:10446000BE01675D7F4FCE018B960E949E118C012D
:10447000892B89F589A59AA59A8389836BA57CA543
:10448000CE0101963FD88C01892B01F588A58823A0
:104490005CF4E9A5FAA58F819885A985BA85838BF7
:1044A000948BA58BB68B12C08D8184FF0DC06B8D54
:1044B0007C8DE9A4FAA4C7010E94C80EF701638BA2
:1044C000748B858B968B02C005E010E004301105DB
:1044D00011F405E010E0C801AC960FB6F894DEBF09
:1044E0000FBECDBFDF91CF911F910F91FF90EF9045
:1044F00008958F929F92AF92BF92CF92DF92EF92E8
:10450000FF920F931F93CF93DF93CDB7DEB7C254C3
:10451000D1090FB6F894DEBF0FBECDBF23969FAF73
:104520008EAF23976B01FC01108240E0BE01675DF6
:104530007F4FCE018F5B9F4F0E949E118C01892B74
:1045400009F0C7C0E9A5FAA5FA83E98383899489AC
:10455000A589B6898F839887A987BA8776018CC089
:1045600040E250E060E070E0CE0101960E947116DA
:104570008C01892B09F08DC04F89588D698D7A8DFA
:1045800089A59AA50E941B118C01892B09F081C075
:104590006B8D7C8D89A59AA50E94C80E6F83788744
:1045A00089879A8740E050E0BA01CE0101960E94C7
:1045B00071168C01892B09F06CC060E070E0CE01AF
:1045C0000196AED88C01892BA1F46B8D7C8D89A5C9
:1045D0009AA50E94C80E86169706A806B90649F045
:1045E00060E070E0CE0101960E94FB188C01892BDF
:1045F00021F30430110511F402E010E0011511055A
:1046000009F047C0BE01655D7F4FCE0101960E9453
:10461000160F80E090E001C00196E4E3F0E0EC0FBB
:10462000FD1FE80FF91F20812111F6CF9C012D5F9E
:104630003F4FE216F30698F42AC0F1E0EF1AF108B2
:104640002396EEADFFAD2397EE0DFF1D0197A4E37A
:10465000B0E0AC0FBD1FA80FB91F2C9120830097AD
:1046600061F721E0E21AF1082396EEADFFAD239742
:10467000EE0DFF1D8FE280838F809884A984BA8419
:1046800081149104A104B10409F06ACF02C001E1D0
:1046900010E02396AEADBFAD239701151105C1F40F
:1046A000EC14FD0421F48FE28C93119611C0CD011E
:1046B00001962396EEADFFAD2397EE0DFF1D2081F1
:1046C0002C93F70131967F01DC01EC15FD0578F3A1
:1046D0001C92C801CE5BDF4F0FB6F894DEBF0FBE51
:1046E000CDBFDF91CF911F910F91FF90EF90DF90A1
:1046F000CF90BF90AF909F908F9008954F925F9210
:104700006F927F928F929F92AF92BF92CF92DF92E1
:10471000EF92FF920F931F93CF93DF93CDB7DEB746
:104720002A970FB6F894DEBF0FBECDBF8C016A0189
:104730007B01882E912EBE016F5F7F4F0E948710F4
:104740005C01892B21F4D8011F96AC90B12CA114E7
:10475000B10409F07EC1F80182859385A485B585F1
:104760008C159D05AE05BF0528F4268521FD02C0E8
:104770006C017D01D80150962D913D914D915C9138
:1047800053972B833C834D835E83F801108A118AF3
:10479000128A138AC114D104E104F10409F425C179
:1047A000E981FA8141845284612C712C032E39E015
:1047B000440C551C661C771C3A95D1F7302D232BE1
:1047C000242B252B09F446C0C701B601615071099D
:1047D00081099109A30192010E94F52C2F8338874A
:1047E00049875A872B813C814D815E812150310957
:1047F000410951092B833C834D835E83CA01B90172
:10480000A30192010E94F52C8F819885A985BA8514
:1048100082179307A407B507E8F088279927DC01DA
:1048200084199509A609B7092B813C814D815E81C8
:1048300082239323A423B523F801808B918BA28B31
:10484000B38BC81AD90AEA0AFB0A448955896689D2
:10485000778936C0D80116964D915D916D917C9106
:104860001997411551056105710519F540E050E0B2
:10487000BA01C8010E945E17AB01BC01413051056D
:104880006105710529F482E0F801878790E0E9C0AD
:104890004F3FFFEF5F076F077F0731F481E0D801DB
:1048A0001F968C9390E0DDC0F801468357836087A4
:1048B0007187D80154964D935D936D937C93579770
:1048C000411551056105710509F052C0C12CD12C6B
:1048D000760192C0C418D508E608F708F801808967
:1048E0009189A289B389840D951DA61DB71D808B62
:1048F000918BA28BB38B868581FF0CC0882D992D5F
:104900000E945E17AB01BC0141155105610571059F
:1049100039F435C0882D992D0E949115AB01BC0149
:104920004F3FFFEF5F076F077F0731F481E0D8014A
:104930001F968C9390E095C042305105610571053A
:1049400058F0E981FA818789908DA18DB28D481741
:1049500059076A077B0728F082E0F801878790E013
:1049600080C0D80154964D935D936D937C93579777
:104970004C145D046E047F0408F4ACCF03C0C12C5A
:10498000D12C7601F80180899189A289B3898C0D97
:104990009D1DAE1DBF1D808B918BA28BB38BD7014C
:1049A000C6019170AA27BB27892B8A2B8B2B09F173
:1049B00089819A810E94A00E61157105810591057A
:1049C00031F482E0D8011F968C9390E04AC00B2E00
:1049D000B9E0F694E794D794C794BA95D1F7B02D7F
:1049E000C60ED71EE81EF91E07C0C12CD12C7601B9
:1049F00003C0C12CD12C7601F80180899189A2894C
:104A0000B3894285538564857585481759076A07B8
:104A10007B0738F482879387A487B587268520642F
:104A200026879170AA27BB27892B8A2B8B2BA1F075
:104A3000F801808D918DA28DB38DC816D906EA0636
:104A4000FB0669F0C08ED18EE28EF38E8A2D9B2DEF
:104A500008C08A2D9B2D05C08A2D9B2D02C08A2D52
:104A60009B2D2A960FB6F894DEBF0FBECDBFDF9107
:104A7000CF911F910F91FF90EF90DF90CF90BF905B
:104A8000AF909F908F907F906F905F904F90089520
:104A9000EF92FF920F931F93CF93DF9300D000D03C
:104AA000CDB7DEB77C836B83009709F44DC07C01E2
:104AB00040E0BE016F5F7F4FCE0103960E949E11C2
:104AC0008C01892BC1F589819A81F70191838083BB
:104AD0006B817C81C7010E94821A8C01892B31F580
:104AE000F70187A188238CF0848184FF0CC0628D3C
:104AF000738D89819A810E94C80EF701668377833E
:104B00008087918702C005E010E00115110571F45E
:104B1000E981FA8185819681F7019383828340E060
:104B200050E0BA01C7010E9471168C0104301105D2
:104B300011F405E010E00115110549F0F7011182AB
:104B40001082802F912F05C089E090E002C0802F55
:104B5000912F0F900F900F900F90DF91CF911F9199
:104B60000F91FF90EF9008950F931F93CF93DF93D2
:104B700000D0CDB7DEB78C01BE016F5F7F4F0E94C2
:104B80008710009719F4F801118210820F900F908E
:104B9000DF91CF911F910F910895CF92DF92EF9205
:104BA000FF920F931F93CF93DF9300D0CDB7DEB763
:104BB0007C016B01BE016F5F7F4F0E9487108C01EB
:104BC000892B21F5C114D10441F440E050E0BA0131
:104BD000C7010E9471168C0119C060E070E0C70126
:104BE0000E94901B8430910509F08C01011511057C
:104BF00069F4B601C7010E94160F60E070E0C701BA
:104C00000E94FB188430910509F08C01C8010F90B7
:104C10000F90DF91CF911F910F91FF90EF90DF9058
:104C2000CF9008958EBD0DB407FEFDCF8EB50895CB
:104C3000FC0101C0F9018FEF8EBD0DB407FEFDCF61
:104C40008EB580838FEF8EBD0DB407FEFDCF9F0123
:104C50002E5F3F4F8EB581836250710959F70895D9
:104C6000FC0101C0F90180818EBD0DB407FEFDCFAE
:104C70009F012E5F3F4F81818EBD0DB407FEFDCF9A
:104C80006250710979F708959C01ADECBCECD5D662
:104C900096958795969587959695879580936401C7
:104CA0008FEFC0DF8F3F21F0909164019111F8CF19
:104CB00091E08F3F09F090E0892F90E0089585B151
:104CC000846085B98FEFAECF0895CF93DF9385B120
:104CD0008B7F85B98FEFA6DF84EF91E0D5DFEC0104
:104CE000892B11F4ECDF02C0C1E0D0E0CE01DF91EE
:104CF000CF9108950F931F93CF93DF93EC018B0116
:104D000084E1809365018FEF8DDF8F3F21F49091D7
:104D100065019111F8CF8E3F51F4B801CE0188DFC3
:104D20008FEF80DF8FEF7EDF81E090E002C080E0D8
:104D300090E0DF91CF911F910F9108950F931F93F2
:104D4000CF938C01C62F84EF91E09EDF0097C1F0D6
:104D50008C2F68DFCD3F91F060E072E0C80180DF0A
:104D60008FEF60DF8FEF5EDF8FEF5CDF8F7191E0A1
:104D7000853009F090E0892F90E002C081E090E05A
:104D8000CF911F910F910895FF920F931F93CF938F
:104D9000DF93C82FD42F152F062FF72E882344F426
:104DA000CF7740E050E0BA0187E3EEDF823038F59C
:104DB000CC3021F084DF89DF892B01F18C2F8064D6
:104DC00031DF8F2D2FDF802F2DDF812F2BDF8D2FD8
:104DD00029DFCC2311F081E001C085E9C83009F456
:104DE00087E820DFCC3011F48FEF1CDFCAE08FEFB3
:104DF00019DF882324F4C150D1F701C08FEFDF9170
:104E0000CF911F910F91FF900895EF92FF920F9312
:104E10001F93CF93DF9300D000D0CDB7DEB78AE0E9
:104E200080936501809165018111FCCF80910E0115
:104E300081FF03C080910E01B2C084B18F7E84B91E
:104E400084B1806284B984B1886084B984B184609B
:104E500084B983E58CBD1AE003C08FEFE3DE115007
:104E60001111FBCF40E050E0BA0180E08DDF8130CE
:104E700009F076C084E6809365014AEA51E060E07B
:104E800070E088E081DF813009F046C00DC0E02E7F
:104E9000F12C8FEFC7DEE1E0F0E0EC0FFD1FEE0D2F
:104EA000FF1D80830F5F01C0012F043080F38B81D1
:104EB000813009F057C08C818A3A09F055C0809141
:104EC0006501882341F040E050E060E070E489EA49
:104ED0005BDF8111F4CF80916501882309F446C01E
:104EE00040E050E0BA018AE34FDF882371F010E020
:104EF00044C0E12EF12C8FEF95DEE1E0F0E0EC0F05
:104F0000FD1FEE0DFF1D80831F5F143090F389811C
:104F100086FF2EC01CE031C040E050E0BA0189EAB3
:104F200033DF823018F412E009EA02C011E001E038
:104F300080916501882339F040E050E0BA01802F6C
:104F400023DF8111F5CF80916501882399F040E03E
:104F500052E060E070E080E117DF81110DC00DC00C
:104F600010E00BC010E009C010E007C010E005C061
:104F700014E003C010E001C010E0109363019FDE55
:104F8000112359F080910E018E7F80930E018CB514
:104F90008C7F8CBD8DB581608DBD80910E010F9091
:104FA0000F900F900F90DF91CF911F910F91FF9075
:104FB000EF90089580910E010895FF920F931F9333
:104FC000CF93DF938C01E9012097C9F180910E0105
:104FD00080FD38C08091630183FD09C0032E39E054
:104FE000440F551F661F771F3A95D1F7302DC230F9
:104FF000D10528F00F2EF2E1FF2EF02D04C00F2E68
:10500000F1E1FF2EF02D8F2DBFDE811111C060E088
:1050100072E0C8016FDE892B19F01E5F2197B9F786
:1050200082E1F81205C040E050E0BA018CE0ACDE4D
:1050300046DE81E0CD2B09F480E090E005C084E0FD
:1050400090E002C083E090E0DF91CF911F910F913B
:10505000FF900895CF92DF92EF92FF920F931F93EC
:10506000CF93DF938C016A017B01E901209709F45A
:105070004CC080910E0180FD4BC080910E0182FDDD
:105080004AC08091630183FD09C00B2EB9E0CC0CAE
:10509000DD1CEE1CFF1CBA95D1F7B02DC130D10537
:1050A00061F4B701A60188E16FDE811127C06EEFC0
:1050B000C80144DE892BE9F421C0867029F0AE01D5
:1050C00060E070E087E960DEB701A60189E15CDE9F
:1050D000811114C06CEFC80131DE892B19F01E5FFD
:1050E0002197C1F76DEF80E090E028DE892B21F059
:1050F00005C0C0E0D0E002C0C1E0D0E0E0DD81E06A
:10510000CD2B09F480E090E008C084E090E005C079
:1051100083E090E002C082E090E0DF91CF911F91A8
:105120000F91FF90EF90DF90CF9008958F929F9214
:10513000AF92BF92CF92DF92EF92FF920F931F93A5
:10514000CF93DF93CDB7DEB760970FB6F894DEBF8D
:105150000FBECDBFE82F8B0180910E0180FD31C3C2
:105160008E2F90E08A33910508F031C3FC01EC5C8E
:10517000FF4F5DC4AADD892B19F401E010E002C0E5
:1051800000E010E09CDDE02EF12E3DC340E050E059
:10519000BA0189E0F9DD81116FC060E170E0CE01F4
:1051A0000196A8DD892B09F46AC0898182958695CC
:1051B00086958370813039F58A85298530E0322FD4
:1051C0002227280F311D88858F7390E0A0E0B0E082
:1051D000DC0199278827820F931FA11DB11D01961D
:1051E000A11DB11D072E7AE0880F991FAA1FBB1FB2
:1051F0007A95D1F7702DF80180839183A283B383D0
:1052000000E010E03EC02E819B85991F9927991FD1
:105210008A852F70290F8370880F280F2E5F39859C
:10522000888590E0880F991F880F991F32953695D1
:1052300036953370AC01430F511D9F819370892FB8
:1052400090E0982F8827990F990F840F951F01964A
:10525000A0E0B0E030E02950310904C0880F991F68
:10526000AA1FBB1F2A95D2F7F80180839183A283DE
:10527000B38300E010E005C001E010E002C001E0EF
:1052800010E01DDDE02EF12EBEC28091630182FF91
:1052900033C040E050E0BA018DE876DD81118AC06C
:1052A0008FEFC0DC60E170E0CE01019623DD892B39
:1052B00039F401E010E086C08FEFB4DCFA9404C04A
:1052C0000F2EF0E3FF2EF02DF110F6CF2B85229557
:1052D0002F7080E190E0A0E0B0E004C0880F991F3B
:1052E000AA1FBB1F2A95D2F7F80180839183A2835E
:1052F000B38300E010E066C040E050E0BA0189E00E
:1053000043DD81115AC060E170E0CE010196F2DC0C
:10531000892B09F455C08091630181FF20C08B85E2
:105320008F7390E0880F991F2C8527FD01960196B9
:105330002E85229526952695237030E0215031093F
:1053400002C0880F991F2A95E2F7A0E0B0E0F801AB
:1053500080839183A283B38300E010E033C08B8508
:105360008C7790E0959587959595879501964C85D6
:10537000242F237030E0220F331F220F331F220F00
:10538000331F429546954770240F311D2F5F3F4FC5
:10539000289FA001299F500D389F500D1124CA014C
:1053A000A0E0B0E0F80180839183A283B38300E0A2
:1053B00010E008C001E010E005C001E010E002C00C
:1053C00001E010E07CDCE02EF12E1DC28091630133
:1053D000867009F401C2BE016F5F7F4F83E3A6DED2
:1053E0007C01892B09F0FCC189818295869586957F
:1053F000837019F48B8586FFF7C1D8014D915D91BB
:105400006D917C91139714968D909D90AD90BC906A
:1054100017978091630183FD12C0032E39E0440F7A
:10542000551F661F771F3A95D1F7302D072E79E06B
:10543000880C991CAA1CBB1C7A95D1F7702D80E2B0
:10544000A3DC8111D5C1B501A40181E29DDC8111EC
:10545000D3C140E050E0BA0186E296DC8111D0C1B0
:1054600080E395E711DC892B09F0CDC1EE24E394AC
:10547000F12CC9C180916301FB018083E12CF12CE7
:10548000C2C140E050E0BA0189E07EDC811109C070
:1054900060E170E0C8012EDC892B31F401E010E0FE
:1054A00005C001E010E002C000E010E008DCE02EE2
:1054B000F12EA9C140E050E0BA018AE065DC81111B
:1054C00009C060E170E0C80115DC892B31F401E00E
:1054D00010E005C001E010E002C000E010E0EFDBEA
:1054E000E02EF12E90C140E050E0BA018AE34CDC9E
:1054F000882371F001E010E012C06801FFEFCF1ABD
:10550000DF0A8FEF8FDBD8018C93FA94860103C0FA
:105510006894FF24F2F8F110F0CF00E010E0CFDB48
:10552000E02EF12E70C140E050E0BA018DE82CDC95
:1055300081110BC08FEF76DB60E470E0C801DADB2D
:10554000892B31F401E010E005C001E010E002C059
:1055500000E010E0B4DBE02EF12E55C180910E0189
:10556000816080930E01E12CF12C4DC1FB01408143
:1055700050E060E070E0032E3CE1440F551F661FD1
:10558000771F3A95D1F7302D83819481A581B6811B
:10559000072E79E0880F991FAA1FBB1F7A95D1F7B4
:1055A000702D482B592B6A2B7B2B8181928101977F
:1055B0009170A0E0B0E0482B592B6A2B7B2B7068D0
:1055C00080E3E2DB81113AC084E6809365018FEFCE
:1055D00029DB8F3F21F4909165019111F8CF8E3F27
:1055E00081F5D8011796CD90DC9018971196ED9023
:1055F000FC9012970CC05601BFEFAB1ABB0A8FEF9D
:1056000011DBF6018083F1E0EF1AF1086501E11486
:10561000F10489F7D80111968D919C91129702E0BF
:1056200012E0081B190B04C08FEFFCDA01501109BE
:1056300001151105C9F700E010E005C001E010E018
:1056400002C001E010E03BDBE02EF12EDCC0FB01EC
:10565000408150E060E070E0032E3CE1440F551FB4
:10566000661F771F3A95D1F7302D83819481A581EC
:10567000B681072E79E0880F991FAA1FBB1F7A9564
:10568000D1F7702D482B592B6A2B7B2B818192816E
:1056900001979170A0E0B0E0482B592B6A2B7B2B2F
:1056A000706881E371DB811134C08FEFBBDA8EEF5C
:1056B000B9DAD8011796ED91FC9118971196ED90F3
:1056C000FC9012970AC06F01BFEFCB1ADB0A8081F2
:1056D000A9DAE1E0EE1AF108F601E114F10499F714
:1056E000D80111968D919C91129702E012E0081B4F
:1056F000190B04C08FEF96DA01501109011511053D
:10570000C9F78FEF8FDA8F71853031F001E010E04B
:1057100005C001E010E002C000E010E0D0DAE02EA9
:10572000F12E71C0FB01408150E060E070E0032E7B
:105730003CE1440F551F661F771F3A95D1F7302D76
:1057400083819481A581B681072E79E0880F991F06
:10575000AA1FBB1F7A95D1F7702D482B592B6A2BA6
:105760007B2B828190E0A0E0B0E0482B592B6A2B84
:105770007B2B746881E308DB81111AC08FEF52DA4A
:105780008EEF50DAD80111968C914CDA01E012E0DC
:1057900004C08FEF47DA0150110901151105C9F74F
:1057A0008FEF40DA8F71853031F001E010E005C0F5
:1057B00001E010E002C000E010E081DAE02EF12EFE
:1057C00022C00F2EF3E0EF2EF12CF02D1CC06894B8
:1057D000EE24E2F8F12C17C0EE24E394F12C13C070
:1057E000EE24E394F12C0FC0EE24E394F12C0BC0D3
:1057F000EE24E394F12C07C0EE24E394F12C03C0D3
:10580000EE24E394F12CC70160960FB6F894DEBF46
:105810000FBECDBFDF91CF911F910F91FF90EF9001
:10582000DF90CF90BF90AF909F908F900895809120
:105830006501882319F0815080936501809164018E
:10584000882319F081508093640180910E01897F33
:1058500080930E0108958BB180688BB982E08A95A0
:10586000F1F700C08BB18F778BB90895CF93DF9399
:10587000D82F662321F08BB180628BB903C08BB126
:105880008F7D8BB98BB18F7B8BB987B18F6087B9D7
:10589000C8B1C07F8D2F82958F708C2B88B9DBDFCC
:1058A000DF70DC2BD8B9D7DFCF60C8B9DF91CF91DB
:1058B0000895882321F08BB180628BB903C08BB12E
:1058C0008F7D8BB98BB180648BB987B1807F87B9AD
:1058D0008BB180688BB982E08A95F1F700C096B1F0
:1058E0009295907F8BB18F778BB982E08A95F1F793
:1058F00000C08BB180688BB982E08A95F1F700C057
:1059000086B18F702BB12F772BB9892B089580E04A
:10591000D0DF8823E4F38AE08A95F1F700C080E0C5
:10592000C8CF0895CF93C82FF2DF60E08C2F9EDFA1
:10593000CF910895611103C08058F4CF0895805429
:10594000F1CF089581E0EECF0895CF93C82FDFDF28
:10595000CA3041F4803410F480E401C080E0805803
:10596000E1DF03C061E08C2F81DFCF910895CF93F9
:10597000C82F87B18F6087B98AB180628AB98AB12E
:1059800080648AB98AB180688AB98FEF9CE70197F1
:10599000F1F700C0000088B1826088B988B18160E9
:1059A00088B959DF8FE097E20197F1F700C0000056
:1059B00052DF9AEA9A95F1F700C04DDF8AEA8A959C
:1059C000F1F700C088B18E7F88B945DF9AEA9A95D1
:1059D000F1F700C088E2A6DF88E0A4DFB3DF86E04D
:1059E000A1DF8C2F9FDFCF910895A1E21A2EAA1B71
:1059F000BB1BFD010DC0AA1FBB1FEE1FFF1FA2177F
:105A0000B307E407F50720F0A21BB30BE40BF50B7B
:105A1000661F771F881F991F1A9469F76095709504
:105A2000809590959B01AC01BD01CF010895EE0FCB
:105A3000FF1F0590F491E02D0994A29FB001B39F40
:105A4000C001A39F700D811D1124911DB29F700D87
:105A5000811D1124911D0895F0DFA59F900DB49F25
:105A6000900DA49F800D911D11240895DC01FB0170
:105A70004150504058F049F005900D920020C1F778
:105A8000E61BF70B3197CF0108951C92059000207B
:105A9000E9F7F6CFFB01DC014150504030F08D9129
:105AA0000590801919F40020B9F7881B990B089507
:105AB000DC0101C06D9341505040E0F70895FC01B6
:105AC0008191861721F08823D9F799270895319776
:085AD000CF010895F894FFCF07
