S00C00006D61696E2E7372656373
S1130000C7C100000C94510DE0C10000DEC1000026
S1130010DCC10000DAC10000D8C100000C9413094F
S1130020D4C10000D2C10000D0C100000C942E0D38
S1130030CCC10000CAC100000C942510C6C1000048
S1130040C4C10000C2C10000C0C10000BEC10000A4
S1130050BCC10000BAC10000B8C10000B6C10000B4
S1130060B4C10000B2C10000EF2EFB2E1D327A2F66
S11300701B301D321D32E3301D321D321D321D3244
S11300801D321D321D321D321D321D321D321D32F4
S11300901D321D321D321D321D321D321D321D32E4
S11300A01D321D321D321D321D321D321D321D32D4
S11300B01D321D321D321D321D321D321D321D32C4
S11300C01D321D321D321D321D321D326F3076300D
S11300D08F30A830C830EC305D31C831232530333F
S11300E0642563202573002573205B25735D00253B
S11300F030336400232530336420545950453A2565
S113010073005243563A257300233F3F3F2054590E
S113011050453A3F3F3F005243563A3F3F3F3F3FEF
S11301203F3F3F2E3F3F3F00253033640023585864
S1130130582F25303364256320257300534E443AE9
S113014025730046525F25530072633D2575004FA9
S11301504B004449534B5F45525200494E545F454E
S11301605252004E4F545F5245414459004E4F5F26
S113017046494C45004E4F5F5041544800494E5645
S1130180414C49445F4E414D450044454E49454428
S113019000455849535400494E56414C49445F4F19
S11301A0424A4543540057524954455F50524F54B4
S11301B0454354454400494E56414C49445F4452DA
S11301C0495645004E4F545F454E41424C4544000C
S11301D04E4F5F46494C455F53595354454D004D6E
S11301E04B46535F41424F525445440054494D4598
S11301F04F5554004C4F434B4544004E4F545F45BC
S11302004E4F5547485F434F524500544F4F5F4D43
S1130210414E595F4F50454E5F46494C455300008F
S113022045584641542046523A25644D42004641C1
S11302305433322046523A25644D420046415431EB
S1130240362046523A25644D42004641543132200C
S113025046523A25644D420046523A25642E25649E
S1130260474200564F4C3A257300424C4F434B20B3
S1130270544F4F2053484F525421004552524F522D
S1130280002564002573005B456D70747920446912
S1130290725D005B4449525D002E2E205B474F2067
S11302A055505D00546F6F2073686F72743A2575F2
S11302B062004552523A257300C34B432D544150BA
S11302C0452062792041462E2000544150004B4382
S11302D02D44415445490000424C4B53495A452052
S11302E04558434545444544004D415820424C4FF0
S11302F0434B53210057524954452046494C45002D
S113030057524954452046494C4520484452004FD1
S113031050454E20464F522057524954450072636F
S1130320763D256420636C633D25640057524F4E2F
S11303304720434845434B53554D004F5645525271
S1130340554E2100494E464F3A2046494C452053CC
S11303504156454400454F4620746F6F20656172D5
S11303606C79210053454E442046494C4500494E82
S1130370544552525550544544210053442043415E
S1130380524400494E495449414C495A494E470048
S113039011241FBECFEFD8E0DEBFCDBF11E0A0E037
S11303A0B1E0ECE9F7E602C005900D92A235B10781
S11303B0D9F724E0A2E5B1E001C01D92AE3AB2073C
S11303C0E1F70E9476110C94CC331ACE8A3019F4DA
S11303D08DE001D08AE0FF93EF93E0915201F09118
S11303E05301309709F00995EF91FF910895FC01AD
S11303F08591803011F0EADFFBCF0895FF27E0E21A
S113040030E247FF0CC0419597FF09C0EDE26095CB
S1130410709580959095611D711D811D911D27FF1B
S113042002C0219530E350E2AA27660F771F881F88
S1130430991FAA1FA41710F0A41B63955A95A9F736
S1130440AA3008F0A95FA05DAF93F395611571051B
S11304508105910541F7ED3211F4EF93F395F2170D
S113046018F43F93F395FBCF8F91B0DFFA95E1F742
S11304700895E991F9918591803021F0853219F040
S1130480A5DFF9CF089520E0E89455915532C1F3E2
S1130490503311F4689455915A3348F4505390F3FF
S11304A0220F022E220F220F200D250FF4CF0EF45F
S11304B0219589919991533619F3533729F153357D
S11304C059F1BC0188279927E8945C3621F4899175
S11304D0999168945591543639F446EF7EF077FF3C
S11304E00DC08FEF9FEF0AC055374AE039F05835F9
S11304F040E121F0523642E009F00895FF93EF9372
S11305007DDFEF91FF91B7CFFF93EF93FC018191D2
S11305108030B9F35BDFFBCFFF93EF9368DFF1CF5C
S1130520DF93CF93CDB7DEB72596A3DFCF91DF91CD
S11305300895F70181937F010895DF93CF93CDB799
S1130540DEB72596E0915201F0915301EF93FF93AA
S1130550E9E9F2E0E0935201F0935301FF92EF9244
S1130560E990F99086DFF7011082EF90FF90FF91F8
S1130570EF91E0935201F0935301CF91DF910895ED
S11305800B01DC01ED91FD912227332744275527E8
S1130590E8949AE001C0319660816032E1F3A8F1F9
S11305A06D3211F46894F7CF6A3378F5603368F1EB
S11305B071F498E031966081613248F1623611F449
S11305C092E003C0683719F490E13196608161329A
S11305D0F0F0613608F060526053B8F06A3018F0F9
S11305E067506A3090F0691780F481E2771B08F451
S11305F0790F769557954795379527958A95B9F745
S1130600260F381F481F581FE0CF80E001C081E04B
S11306104EF466272095309540955095261F361F39
S1130620461F561FFE93EE93D0012D933D934D9399
S11306305D931124089580E090E069C0FC01EE0F01
S1130640FF1FE050FF4F2081223011F12330E9F1E8
S1130650213009F056C054B1FC01EE0FFF1FE050E9
S1130660FF4F21E030E0B901018002C0660F771F1F
S11306700A94E2F7462F4095452344B945B10180D9
S113068002C0220F331F0A94E2F7242B25B939C084
S113069057B1FC01EE0FFF1FE050FF4F21E030E0A7
S11306A0B901018002C0660F771F0A94E2F7462F52
S11306B04095452347B948B1018002C0220F331F3A
S11306C00A94E2F7242B28B91CC05AB1FC01EE0F9E
S11306D0FF1FE050FF4F21E030E0B901018002C06C
S11306E0660F771F0A94E2F7462F409545234AB9CF
S11306F04BB1018002C0220F331F0A94E2F7242B6E
S11307002BB9FC01EB5AFE4F2BE02083019683307A
S113071091050CF493CF089580E090E0A4C0FC010F
S1130720EE0FFF1FE050FF4F2081213019F02230DF
S113073019F004C023B103C026B101C029B120952A
S1130740FC01EE0FFF1FE050FF4F41E050E001803D
S113075002C0440F551F0A94E2F74223209154012A
S113076030E0082E02C0359527950A94E2F720FF61
S113077022C0442369F0FC01EB5AFE4F20812A3049
S1130780D0F5FC01EB5AFE4F20812F5F208333C04C
S1130790FC01EB5AFE4F108221E030E0082E02C02B
S11307A0220F331F0A94E2F730915401209523233A
S11307B02093540120C0442391F0FC01EB5AFE4FD6
S11307C0108221E030E0082E02C0220F331F0A9469
S11307D0E2F730915401232B209354010CC0FC0107
S11307E0EB5AFE4F20812A3030F4FC01EB5AFE4FC5
S11307F020812F5F2083FC01EB5AFE4F20812A3099
S113080089F5FC01EB5AFE4F20812F5F208344239E
S113081071F021E030E0082E02C0220F331F0A9449
S1130820E2F730917801232B209378010EC021E068
S113083030E0082E02C0220F331F0A94E2F73091F1
S11308407801209523232093780121E030E0082EBD
S113085002C0220F331F0A94E2F730917601232B52
S1130860209376010196833091050CF458CF0895B6
S11308700F931F93CF93DF938C0190931A0480936B
S1130880190440E050E0CFE4D1E009C0CE01019664
S1130890FE012491EC012111F9CF4F5F5F4F401706
S11308A0510721F0FE0184918111F0CF0E94D832CA
S11308B01F930F9389E491E09F938F9331DE61E05E
S11308C080E00E94D032DF93CF9383E491E09F9342
S11308D08F9326DEEDB7FEB738960FB6F894FEBFB9
S11308E00FBEEDBFDF91CF911F910F910895009737
S11308F061F0BEDF2FEF83ED90E321508040904004
S1130900E1F700C0000081E0089580E008950F93AE
S11309101F93CF93DF93CDB7DEB76E970FB6F894DE
S1130920DEBF0FBECDBF8C01109260011092620138
S1130930109261010E94D83280915A0190915B011A
S1130940009709F0BAC0809179018823C9F089E73A
S113095091E09F938F9384E892E09F938F93E0DDDF
S113096061E080E00E94D03289E992E09F938F9306
S1130970D7DD0F900F900F900F900F900F90DCC069
S113098040E050E08E010F5F1F4FB80182E491E018
S11309900E947F2B1F930F9383E692E09F938F9384
S11309A0BFDD61E080E00E94D032AE01435E5F4F64
S11309B0BE01675E7F4F82E491E00E94692AE6E807
S11309C0F1E0A185B285298D3A8D4B8D5C8D0E9415
S11309D06233DC01CB01072E79E0880F991FAA1F2F
S11309E0BB1F7A95D1F7702D072E74E1B695A795A4
S11309F0979587957A95D1F7702D20810F900F9058
S1130A000F900F90223049F118F42130B1F045C015
S1130A10233099F1243009F040C0BF93AF939F93E2
S1130A208F9380E292E09F938F937ADD0F900F90E3
S1130A300F900F900F900F907FC0BF93AF939F9331
S1130A408F938AE492E09F938F936ADD0F900F90C7
S1130A500F900F900F900F906FC0BF93AF939F9321
S1130A608F938CE392E09F938F935ADD0F900F90B6
S1130A700F900F900F900F905FC0BF93AF939F9311
S1130A808F938EE292E09F938F934ADD0F900F90A5
S1130A900F900F900F900F904FC0BF93AF939F9301
S1130AA08F9388E592E09F938F933ADD0F900F9098
S1130AB00F900F900F900F903FC0019761F4F801D1
S1130AC08185811108C087E892E09F938F9328DD88
S1130AD00F900F9031C0C80109969F938F9384E8BB
S1130AE092E09F938F931CDD61E080E00E94D032FE
S1130AF0F80180850F900F900F900F9084FF08C02D
S1130B0083E992E09F938F930BDD0F900F9014C0B5
S1130B10F80183818F9382818F9381818F93808168
S1130B208F9381E892E09F938F93FADC0F900F905C
S1130B300F900F900F900F906E960FB6F894DEBF43
S1130B400FBECDBFDF91CF911F910F910895CF9329
S1130B50DF9380915A0190915B011816190614F5E0
S1130B60019790935B0180935A0118161906BCF4FF
S1130B7060E070E081EF93E00E94242AC1E0D0E0BD
S1130B8007C069EB73E081EF93E00E94242A219669
S1130B9080915A0190915B018C179D0794F789EB22
S1130BA093E0B5DEDF91CF91089580915A01909141
S1130BB05B018F3F2FE79207E9F0019690935B0169
S1130BC080935A01009739F460E070E081EF93E07C
S1130BD00E94242A0FC01816190664F469EB73E006
S1130BE081EF93E00E94242A8091C203811102C004
S1130BF0AECF089589EB93E08ACE08951F93CF93E7
S1130C00DF93EC01162F60E070E081EF93E00E9427
S1130C10242A81E090E090935B0180935A0169EB70
S1130C2073E081EF93E00E94242A8091C203811132
S1130C3008C08FEF9FEF90935B0180935A01B5DF5B
S1130C4025C0BE0182EC93E00E94AF33892BA1F44E
S1130C508091C103982F907184FF06C0112321F065
S1130C6089EB93E054DE12C0911106C0111104C047
S1130C7089EB93E04CDE0AC080915A0190915B01AC
S1130C80019690935B0180935A01C9CFDF91CF9174
S1130C901F910895EF92FF920F931F93CF93DF93C9
S1130CA0F82EE92E062F142FE9010E94D832EF9274
S1130CB0FF928CE391E09F938F9332DC61E080E0BC
S1130CC00E94D0320F900F900F900F90C230D10538
S1130CD091F028F4209761F02197E1F018C0C53015
S1130CE0D10579F0C630D10579F0249781F406C096
S1130CF08EE091E011C08CE191E00EC082E291E0BF
S1130D000BC089E291E008C08FE291E005C086E360
S1130D1091E002C085E191E0003819F421E230E06D
S1130D2002C020E230E09F938F933F932F931F9252
S1130D301F938DE291E09F938F93F2DB8DB79EB763
S1130D4008960FB6F8949EBF0FBE8DBFDF91CF916A
S1130D501F910F91FF90EF900895CF93C82F61E0FA
S1130D6081E00E94D0321F92CF9388E291E09F935A
S1130D708F93D6DB0F900F900F900F90CF91089523
S1130D80FF920F931F93CF93DF93EC01162F042F41
S1130D90F52E0E94D832209799F487E191E09F9331
S1130DA08F93BEDB61E080E00E94D03289E091E065
S1130DB09F938F93B5DB0F900F900F900F901CC0F3
S1130DC0DF93CF9382E091E09F938F93A9DB61E05F
S1130DD080E00E94D032FF920F931F921F9384EF02
S1130DE090E09F938F939CDB8DB79EB70A960FB6C6
S1130DF0F8949EBF0FBE8DBFDF91CF911F910F91CD
S1130E00FF900895CF93C82F61E081E00E94D03213
S1130E101F92CF938FEE90E09F938F9381DB0F907F
S1130E200F900F900F90CF9108950F931F93CF932E
S1130E30DF93182F092FC62FD72F0E94D8320F9374
S1130E401F936EDB61E080E00E94D032DF93CF938A
S1130E5067DB2FEF83ED90E3215080409040E1F772
S1130E6000C000000F900F900F900F90DF91CF9172
S1130E701F910F910895CF93DF93CDB7DEB7C05480
S1130E80D1090FB6F894DEBF0FBECDBF6DE070E0A0
S1130E90CE0101960E94E92660E001C06F5F6D30CB
S1130EA048F4E1E0F0E0EC0FFD1FE60FF11D808156
S1130EB08111F4CF6150E1E0F0E0EC0FFD1FE60F8B
S1130EC0F11D80818F3281F470E06F5F7F4F81E08C
S1130ED090E08C0F9D1F680F791F4DE050E089E76B
S1130EE091E00E94B83302C06150E5CFC05CDF4F8F
S1130EF00FB6F894DEBF0FBECDBFDF91CF9108953A
S1130F00CF93DF93CDB7DEB72D970FB6F894DEBF3E
S1130F100FBECDBF80915A0190915B01181619063E
S1130F200CF0D4C08091C10384FDD0C089EB93E060
S1130F30A5D4882309F4CAC00E94D832809106013E
S1130F40909107019C01255031092230310518F098
S1130F5081309105F9F449E050E06FE174E0CE018D
S1130F6001960E94B83344E050E06CE174E0CE0195
S1130F700A960E94B83380E00AC0EAE0F0E0EC0F81
S1130F80FD1FE80FF11D9081905890838F5F83308F
S1130F90A0F341C08230910511F0049789F449E02F
S1130FA050E06CE174E0CE0101960E94B83344E055
S1130FB050E064E274E0CE010A960E94B8332BC07C
S1130FC06EE270E082EC93E00E94A433AC01FE0177
S1130FD03196A2ECB3E09D919193A417B50730F438
S1130FE09E01265F3F4FE217F307A8F31082FA0130
S1130FF03196DE011A9681918D938081882351F078
S1131000CA010496E817F90728F4CE010E96A8172A
S1131010B90788F31C92CE010A969F938F93099780
S11310209F938F9387EE90E09F938F9379DA61E09B
S113103080E00E94D0320F900F900F900F900F908D
S11310400F9080910601909107018230910591F0F3
S113105028F4009761F00197E1F018C085309105FC
S113106079F08630910579F0049781F406C08EE01A
S113107091E011C086E291E00EC08AE391E00BC0DA
S113108089E291E008C08FE291E005C086E391E037
S113109002C085E191E020910801203819F421E291
S11310A030E002C020E230E09F938F933F932F9370
S11310B080915F011F928F938CED90E09F938F93AB
S11310C02FDA0FB6F894DEBF0FBECDBF81E0809358
S11310D060012D960FB6F894DEBF0FBECDBFDF9131
S11310E0CF910895EF92FF920F931F93CF93DF93C5
S11310F000D0CDB7DEB740E050E0BA018FEC93E00A
S11311000E94EE27F4DBE82E882341F08FEC93E075
S11311100E947226F12C7DC0122F02C010E001E063
S11311209E012F5F3F4F41E850E06BE174E08FEC8C
S113113093E00E94B922DBDBF82E882331F08FEC98
S113114093E00E947226FE2C64C089819A818038C3
S1131150910561F4002351F080E8809308018CE14B
S113116094E090930A018093090142C0009711F41E
S11311700023F1F18138910549F08091080181380B
S113118029F48FEC93E00E94722643C00023C9F037
S113119020911B04223058F48BE194E090930A01CF
S11311A08093090181E88093080100E0B5CF8CE1C8
S11311B094E090930A018093090180E880930801E8
S11311C017C020911B04422F50E0812F90E001961C
S11311D04817590709F4A0CF2F3F09F49DCF8CE19C
S11311E094E090930A018093090180E880930801B8
S11311F040E050E0BA018FEC93E00E94EE2777DBE9
S1131200882329F08FEC93E00E94722602C0FF2409
S1131210F3948F2D0F900F90DF91CF911F910F9129
S1131220FF90EF9008951F920F920FB60F92112422
S11312302F933F934F935F936F937F938F939F93DA
S1131240AF93BF93EF93FF9380915C0191E0980F6C
S113125090935C01883220F00E949D1210925C01F0
S11312608091760180FF0CC08091780180FD08C0D8
S1131270809176018E7F8093760181E0809377015F
S11312808091760181FF13C0809176018D7F8093D8
S113129076018091780181FD0AC08091780182FFF6
S11312A006C081E090E090935901809358018091A9
S11312B0760182FF13C0809176018B7F8093760143
S11312C08091780182FD0AC08091780181FF06C077
S11312D082E090E090935901809358011DDA809147
S11312E06101909162010196909362018093610182
S11312F0FF91EF91BF91AF919F918F917F916F91EA
S11313005F914F913F912F910F900FBE0F901F90BF
S1131310189586E08093B10082E080937000089570
S113132082E08093B00087E08093B300F2CF089509
S113133091E080E007C0E92FF0E0E55EFB4F2081FB
S1131340820F9F5F9138B8F30895EBE1F4E0818157
S1131350228133819DE2980F973030F4821306C0C6
S1131360831731F080E0089580E0089580E00895C7
S113137081E00895AF92BF92CF92DF92EF92FF92F5
S11313800F931F93CF93DF9300D0CDB7DEB78C01BB
S1131390A9DEB82E882309F4C8C14091080150E0A1
S11313A06091090170910A019E012F5F3F4F8FECFC
S11313B093E00E94B9229BDA882331F08FEC93E00A
S11313C00E947226B12CB1C1C0DFA82E8823E9F097
S11313D081E090E09093070180930601D8016D911C
S11313E07D918D919C9110910801212F30E040E076
S11313F050E00E942B3320935F01103809F094C110
S113140081E080931B04BA2C90C16801B9E0CB0E33
S1131410D11C6EE270E0C6010E94A433FC017C0181
S11314208FEFE81AF80A93E5AEC02181022E000C72
S1131430330B492F50E02417350709F0A3C022814C
S1131440022E000C330B4217530709F09BC0238173
S1131450022E000C330B4217530709F093C010926D
S1131460070110920601A0910901B0910A01905858
S11314709C93A0910901B0910A0111969C93A091AB
S11314800901B0910A0112969C9320E023C0822F97
S113149090E0A601480F591F4E175F0788F4039682
S11314A0A0910901B0910A01AD01480F591FC8016B
S11314B0820F911DDC0119968C91DA018C9309C07D
S11314C00396A0910901B0910A01A80FB91F80E207
S11314D08C932F5F2830D8F240E050E0BA018FECB3
S11314E093E00E94EE2703DAD82E882331F08FECA4
S11314F093E00E947226BA2C18C1809108018B5087
S1131500E82EF12C6091090170910A01655F7F4F0B
S11315109E012F5F3F4FA7018FEC93E00E94B922F9
S1131520E6D9C82E882331F08FEC93E00E9472260E
S1131530BD2CFBC089819A81E816F90639F06AE668
S113154072E08BE792E071DCBC2CEFC0F801808183
S11315509181A281B381BC01CD01655F7F4F8F4F23
S11315609F4F10910801212F30E040E050E00E948D
S11315702B3320935F01103809F0D7C081E08093AA
S11315801B04D3C09F5F9A3508F44FCF40910801E4
S1131590403811F410921B0482E090E0909307010C
S11315A08093060180E043C0E82FF0E0E55EFB4F46
S11315B0918191324CF4992339F083E090E0909337
S11315C007018093060136C06091060170910701FE
S11315D06230710559F512C0E92FF0E0E55EFB4F6A
S11315E0318531324CF4332339F023E030E0309349
S11315F007012093060105C09F5F01C090E093306E
S113160058F320910601309107012230310571F41D
S1131610D8016D917D918D919C91242F30E040E013
S113162050E00E942B3320935F017FC08F5F88308E
S113163008F4BACF50E060E070E080910901909125
S11316400A010E949D3380E018C09601280F311DC5
S11316502E153F0558F4282F30E0F801E20FF31F50
S11316609185F901E55EFB4F918306C0E82FF0E018
S1131670E55EFB4F90E291838F5F883030F380E02A
S113168090E018C091110EC0E82FF0E03196EE0DF5
S1131690FF1D2081222331F0E82FF0E0E55EFB4FAF
S11316A0218707C0E82FF0E0E55EFB4F90E29183CD
S11316B091E08F5F833030F380E093E090932E04C9
S11316C080932D04F8016081718182819381F0906F
S11316D008012F2D30E040E050E00E942B332F5FB3
S11316E020935F01F0E8FF120BC0F8018081918123
S11316F0A281B3819D5F9093300480932F040DC029
S1131700F80180819181A281B38130E0821B930B27
S11317109D5F9093300480932F048FEF9FEF9093FD
S113172032048093310401C0BA2C8B2D0F900F909A
S1131730DF91CF911F910F91FF90EF90DF90CF90A9
S1131740BF90AF9008951F93CF93DF9300D0CDB790
S1131750DEB724E030E03093070120930601FC015A
S113176080819181A281B381BC01CD016051710955
S11317708109910921E830E040E050E00E942B33D8
S113178020935F0140E150E060E070E08FEC93E073
S11317900E94EE27ACD8811111C04091080150E09D
S11317A06091090170910A019E012F5F3F4F8FECF8
S11317B093E00E94B9229BD8882331F08FEC93E008
S11317C00E94722610E053C0C0DD182F882339F020
S11317D085E090E0909307018093060148C0409112
S11317E0080150E06091090170910A019E012F5F88
S11317F03F4F8FEC93E00E94B92279D8882329F0D7
S11318008FEC93E00E94722632C09FDD182F88234C
S113181061F086E090E09093070180930601809147
S11318205F01815080935F0122C040E150E060E09D
S113183070E08FEC93E00E94EE2759D8811111C01B
S11318404091080150E06091090170910A019E01E4
S11318502F5F3F4F8FEC93E00E94B92248D8882332
S113186029F08FEC93E00E94722601C011E0812FD1
S11318700F900F90DF91CF911F910895FF920F93D6
S11318801F93CF93DF9300D0CDB7DEB78C0181E8EF
S1131890809308018BE194E090930A0180930901FD
S11318A0F80180819181A281B38180389105A105DD
S11318B0B10578F50E94D832C80109969F938F9399
S11318C082EB92E09F938F930E94900261E080E00C
S11318D00E94D032F80183818F9382818F9381811A
S11318E08F9380818F9384EA92E09F938F930E94D9
S11318F09002FFEF23ED80E3F15020408040E1F7B8
S113190000C000000FB6F894DEBF0FBECDBFF12CAF
S113191038C041E0B801675F7F4F8FEC93E00E94CD
S11319200D210E947704F82E882331F08FEC93E088
S11319300E947226F12C25C09E012F5F3F4F40E18B
S113194050E06BE174E08FEC93E00E94B9220E94B6
S11319507704882329F08FEC93E00E94722611C04B
S113196049815A8169EB72E08BE194E00E948033F3
S1131970892B21F0C801FEDCF82E03C0C801E3DE88
S1131980F82E8F2D0F900F90DF91CF911F910F9113
S1131990FF90089510926F001092810016BA809102
S11319A05D0190915E01029721F410925E01109204
S11319B05D011092690110926C011092A1040895C6
S11319C0C4DC8823D1F010929D042FE134E01AC0C6
S11319D0AE2FB0E0AC5DBB4F8C9181323CF4F0E0B3
S11319E0E356FB4F10822CE134E00CC0AE2FB0E084
S11319F0A356BB4F8C93EF5F01C0E0E0E33040F3AC
S1131A002CE134E01092A00480E00CC0F901E80F4E
S1131A10F11D9081913244F0E82FF0E0EF55FB4F37
S1131A2090838F5F883090F3811109C049E050E0C2
S1131A306EEC72E081EA94E00E946C3388E090E0FE
S1131A40FC01EF55FB4F2EE2208344E050E06AECAA
S1131A5072E08E559B4F0C946C3308951F920F9235
S1131A600FB60F9211248F939F9310926B01809164
S1131A700B0190910C01039739F482E090E090936C
S1131A800C0180930B0106C084E090E090930C015C
S1131A9080930B019F918F910F900FBE0F901F9019
S1131AA018951F920F920FB60F9211242F938F93B4
S1131AB09F93EF93FF93809184009091850090937E
S1131AC064018093630185B1806885B980916B015D
S1131AD0882309F499C0E1E8F0E0108210928500AF
S1131AE01092840082E080936F008AE0808380916A
S1131AF00B0190910C01039739F084E090E09093EE
S1131B000C0180930B018FC080916301909164015B
S1131B108F3E924098F180916501909166018436E0
S1131B20910558F085E090E090930C0180930B01AF
S1131B3010926601109265011AC08091650190911E
S1131B406601019690936601809365018091670117
S1131B5090916801099728F010920C0110920B01E2
S1131B6006C081E090E090930C0180930B011092E9
S1131B7068011092670110926B0155C08091630156
S1131B80909164018837914008F1809163019091AC
S1131B9064018F3E9240D0F480916A0186958093CF
S1131BA06A018091670190916801019690936801A0
S1131BB080936701109266011092650180916A0119
S1131BC0806880936A0110926B012DC0809163013B
S1131BD090916401803B910530F180916301909173
S1131BE0640188379140F8F480916A018695809366
S1131BF06A011092680110926701109266011092B6
S1131C00650110926B010FC0E1E8F0E010821092C0
S1131C1085001092840082E080936F008AE08083C4
S1131C2081E080936B0185B18F7785B9FF91EF9146
S1131C309F918F912F910F900FBE0F901F90189529
S1131C4084B1806C84B985B18F7785B985B18F7B78
S1131C5085B98AB18B7F8AB98BB18B7F8BB98CB3F1
S1131C6081708CBB8DB381608DBB81E080936900F2
S1131C7080E09AEF9093890080938800109280000E
S1131C8089CE08958DB38E7F8DBB8AB18B7F8AB93F
S1131C9081CE0895CF93DF93CDB7DEB762970FB6A9
S1131CA0F894DEBF0FBECDBF4FB7F89481E00BC0F0
S1131CB020910B0130910C0183E090E090930C0192
S1131CC080930B0180E08111F3CF4FBF22303105A7
S1131CD009F449C138F421153105F1F021303105F9
S1131CE0D1F15BC12430310529F02530310509F4E7
S1131CF051C153C180915D0190915E01029709F039
S1131D004CC148DE8FEC93E00E9472266BE373E0D3
S1131D108BE792E08AD841C182E8EBE1F4E0DF018D
S1131D201D928A95E9F710926C0180915D01909162
S1131D305E01892B09F031C182E090E090935E014D
S1131D4080935D011092690140E050E060E080E022
S1131D5090E016D822C183B1806483B980915D017B
S1131D6090915E01029709F018C180916C0181384D
S1131D7080F4E0916C01F0E080916A01E55EFB4F34
S1131D80808380916C018F5F80936C0110926A0153
S1131D9004C180916C01813809F0D9C01A8A198A6A
S1131DA0C7DA90916A01891769F1F4DD8FEC93E049
S1131DB00E9472260E94D8328CE293E09F938F9304
S1131DC00E94900261E080E00E94D032B1DA9091EA
S1131DD06A011F928F931F929F938EE193E09F93CA
S1131DE08F930E949002BFEF23ED80E3B150204017
S1131DF08040E1F700C000000FB6F894DEBF0FBECC
S1131E00CDBFCBC08091690181115EC08FEC93E09E
S1131E100E947226D5DD4AE061EA74E08FEC93E01B
S1131E200E940D2190931A0480931904892B91F038
S1131E30B1DD8FEC93E00E94722680911904909199
S1131E401A040E9477046FE073E08BE792E00E942B
S1131E501507A3C04DE954E060911B0481EA94E0A6
S1131E600E94C00640E150E069EB72E0CE010196A9
S1131E700E948E339E012F5E3F4F40E150E0BE0131
S1131E806F5F7F4F8FEC93E00E94322490931A048B
S1131E9080931904892B21F489899A894097C1F088
S1131EA079DD8FEC93E00E94722680911904909161
S1131EB01A04009711F00E94770460E073E08BE746
S1131EC092E00E94150769C080911B040E940207DA
S1131ED09E012F5E3F4F41E850E06BE174E08FECD0
S1131EE093E00E94322490931A0480931904892B5E
S1131EF029F489899A8981389105A1F04BDD8FEC09
S1131F0093E00E9472268091190490911A0400971C
S1131F1011F00E94770465EF72E08BE792E00E9473
S1131F2015073BC0809169018F5F8093690180919F
S1131F306901811132C02EDD8FEC93E00E9472267C
S1131F4069EE72E084E493E00E94150726C022DD66
S1131F508FEC93E00E94722668ED72E08BE792E0CA
S1131F600E9415071AC080915D0190915E0102974D
S1131F70A1F410DD8FEC93E00E94722667ED72E00D
S1131F8084E493E00E94150760E081EA94E00E94F3
S1131F90FE0503C089EB93E08AD062960FB6F894ED
S1131FA0DEBF0FBECDBFDF91CF91089587BD16BCB4
S1131FB015BA82E084BD80936E0083E085BD0895E8
S1131FC0CF93DF93EC0181E090E090936E018093D6
S1131FD06D01209721F0C130D10529F002C08CE6B3
S1131FE003C08EE101C088E39BB192609BB9DEDF40
S1131FF0209731F080916D0190916E01892BC1F78A
S1132000DF91CF9108951F93CF93DF93182F809181
S11320106D0190916E01892BD1F7C0E0D1E00CC025
S11320208D2F812321F081E090E0CADF03C082E09C
S113203090E0C6DFDD0FCF5FC83090F380E090E022
S1132040BFDFDF91CF911F9108951F920F920FB6BA
S11320500F9211248F939F9380916D0190916E0143
S11320608130910521F068F0029799F40AC08BB190
S11320708D7F8BB982E090E090936E0180936D0127
S113208008C010926E0110926D0115BC16BC10921E
S11320906E009F918F910F900FBE0F901F90189517
S11320A08AB182608AB98BB18D7F8BB90895BF9252
S11320B0CF92DF92EF92FF920F931F93CF93DF9310
S11320C000D0CDB7DEB720915D0130915E01232BA6
S11320D009F0E5C07C0181E090E090935E0180937B
S11320E05D01D0DD10927701C701C8DB882309F4B4
S11320F0C8C0209106013091070140915F016091B1
S11321000801C70109960E944A06BB24B39410D95A
S113211080939C0481E0B81651F080915F01B81659
S113212069F00F2EF0EACF2ED12CF02D0DC00F2E1A
S1132130F0E7CF2EF7E1DF2EF02D06C00F2EF0EBE7
S1132140CF2EF4E1DF2EF02D80911B040E94AD060A
S113215080916D0190916E01892BD1F700E010E020
S113216005C081E090E02CDF0F5F1F4F0C151D05AB
S1132170C4F380E090E024DF10E018C0E12FF0E029
S1132180E55EFB4F80813FDF90917701992369F0F1
S1132190109277016EE673E084E693E00E941507DF
S11321A08FEC93E00E9472267AC01F5F123830F3DE
S11321B080915F01B8120DC080E090E001DF809152
S11321C06D0190916E01892BD1F78BB182608BB92F
S11321D054C04091080150E06091090170910A01D6
S11321E09E012F5F3F4F8FEC93E00E94B9220E9423
S11321F07704882339F065E573E08BE792E00E9469
S113220015073BC080910801482F50E029813A818D
S11322104217530739F06AE672E08BE792E00E94B6
S113222015072BC08038C9F4EBE1F4E080818F5F9F
S1132230808390E020915F0130E0215031098217C2
S1132240930759F48091060190910701009729F0B2
S1132250019719F08FEF80931B04809106019091F0
S11322600701069741F480911B048F3F21F480916C
S11322705F0180931B04B3944ACF8FEC93E00E94D8
S11322807226C7010E94870480916D0190916E01AE
S1132290892BD1F7D5DC10925E0110925D010F906D
S11322A00F90DF91CF911F910F91FF90EF90DF90EE
S11322B0CF90BF9008958FEF85B988B98BB9E4E6C4
S11322C0F0E0808180688083808181608083808168
S11322D08260808383B7817F83BF85B7806685BF33
S11322E08F7D85BF83B7816083BF0895CF93DF93CC
S11322F000D000D0CDB7DEB7DEDF8CE00E94ED3237
S11323008BED92E390935301809352010E941B033F
S1132310789406D80E94D83283E893E09F938F93F1
S11323200E94900261E080E00E94D0328BE793E04B
S11323309F938F930E9490028DE289838BE28A831C
S11323408CE78B8383E28C830F900F900F900F9018
S113235010E041E062E471E086E891E00E94C02070
S113236090931A04809319040097D1F08330910557
S113237099F461E08FE00E94D03201E0010FE1E0C6
S1132380F0E0EC0FFD1FE10FF11D80810E94DB32B4
S1132390043028F4102F04C00E94770401C010E018
S11323A08091190490911A04892B99F679DE48DCFE
S11323B06EE371E081EF93E00E94B8290E943B072D
S11323C08FEF9FEF90935B0180935A010E94D50594
S11323D061DC80915D0190915E01892BC9F7809148
S11323E05801909159018130910519F0029741F0FB
S11323F00DC00E94A705109259011092580106C001
S11324000E94D505109259011092580180917701CC
S1132410882309F43EC080915A0190915B01892B75
S1132420A1F40E943B0780E491E00E948F2661E4BE
S113243071E081EF93E00E94B82961E089E791E0BF
S11324400E94FE050E943B0720C08091C10384FFC7
S113245015C082EC93E00E948F260E943B0761E442
S113246071E081EF93E00E94B8298FEF9FEF909382
S11324705B0180935A010E94D50507C08091C20375
S1132480882319F089EB93E012DE10926001109218
S113249077018091610190916201019690936201AC
S11324A080936101813E9E4260F0809160018111C0
S11324B008C080915D0190915E01892B11F40E9406
S11324C08007889585CF811103C00C940F2E089541
S11324D081E00895811103C00C94342D089581E0A6
S11324E008950F931F93FB01811107C0BA01A9013D
S11324F0CF0198010E94122E02C084E090E01F9147
S11325000F9108950F931F93FB01811107C0BA0126
S1132510A901CF0198010E945F2E02C084E090E0DF
S11325201F910F910895811105C0862FBA010C9453
S1132530CB2E089584E090E008950C944D320895D4
S1132540FC01218130E0322F22278081A901482B10
S1132550CA010895FC016381862F90E0A0E0B0E0F9
S1132560BA2FA92F982F88272281822BBA2FA92F1F
S1132570982F88272181822BBA2FA92F982F88275B
S11325802081BC01CD01622B0895FC01608371831D
S11325900895FC0140835183628373830895DC01B1
S11325A0FB014115510549F080818C93415051093B
S11325B01196319641155105B9F70895FC016083D0
S11325C041505109319641155105C9F70895CF93EA
S11325D0DF93DC01FB01ED0121968C9190E0BF01BA
S11325E06F5F7F4F2081821B91094150510921F077
S11325F0DE01FB01009779F3DF91CF910895FC018F
S113260001C031968081882339F0282F082E000CD0
S1132610330B26173707A9F7082E000C990B0895DA
S11326200F931F93FC019A01AB0122503109410918
S113263051098789908DA18DB28D0297A109B109A5
S1132640281739074A075B0768F4A185B2850E94F9
S1132650623303A514A525A536A5600F711F821F3B
S1132660931F03C060E070E0CB011F910F910895A8
S1132670CF92DF92EF92FF920F931F93CF93DF934A
S11326808C01EB01CB014A965BDF6C01E12CF12C50
S1132690F8018081833061F4CE01449651DFA0E0DB
S11326A0B0E0DC0199278827C82AD92AEA2AFB2A1C
S11326B0C701B601DF91CF911F910F91FF90EF9069
S11326C0DF90CF900895CF92DF92EF92FF920F9315
S11326D01F93CF93DF938C01EB0169017A01B90158
S11326E0CE014A9652DFF8018081833031F4B7017C
S11326F088279927CE01449648DFDF91CF911F9117
S11327000F91FF90EF90DF90CF9008950F931F9358
S1132710CF93DF93EC01FB0111868E899F89A88DED
S1132720B98D892B8A2B8B2B09F441C0E0E0F0E0B2
S113273020E030E01EC0AA8DBB8DA9014F5F5F4F22
S1132740A20FB31F9C91903299F0953009F495EE45
S11327504930510539F4DB01AE0FBF1F8EE21996E3
S11327608C933196DB01AE0FBF1F19969C93319663
S11327709A012B303105F8F28B01E60FF71F118611
S1132780EA8DFB8D8385FB0180878A8D9B8D4C961A
S1132790E1DEF80160837183828393838A8D9B8D4C
S11327A04696D8DEF8017783668395838483DF9128
S11327B0CF911F910F9108954F925F926F927F92E4
S11327C08F929F92AF92BF92CF92DF92EF92FF923D
S11327D00F931F93CF93DF935C013B01FB01C081F7
S11327E0D1816C01FCE1CF0ED11C4BE050E060E2E2
S11327F070E0C601E3DE88818E3281F540E050E06E
S113280080E090E09C012F5F3F4FFE01E80FF91F2D
S113281080818E3259F42330310540F4F601E40FFF
S1132820F51F8083C9014F5F5F4FECCF8F3229F0D2
S11328308C3519F0813208F081C0C20FD31FF30127
S1132840D183C083813210F484E201C080E2F501B7
S113285087A380E090E083C0C80108C0E12CF12C7C
S113286080E090E06894882483F8912C8C010F5FB9
S11328701F4FFE01E80FF91F4080542CF0E2F415BD
S113288008F044C08FE2481631F09CE549120CC0B0
S113289002C00F5F1F4FFE01E00FF11F80818F32D6
S11328A0C1F38C35B1F332C0EEE24E1619F0E814E0
S11328B0F90490F0FBE08F16910409F442C08EE213
S11328C0581242C06894EE24E3F8F12C0F2EFBE07A
S11328D08F2E912CF02DC0CF4420CCF1642D70E0CC
S11328E083E491E08CDE892BA9F58FE9840D8A318C
S11328F028F40F2EF0EE5F2EF02D540CF601EE0DA1
S1132900FF1D5082F70131967F01A6CFC00FD11F62
S1132910F301D183C083EF2801F1F501848D853E55
S113292011F485E0848FF0E2F51510F084E001C025
S113293080E0F50187A380E090E011C086E090E09C
S11329400EC086E090E00BC086E090E008C086E010
S113295090E005C086E090E002C086E090E0DF9160
S1132960CF911F910F91FF90EF90DF90CF90BF9088
S1132970AF909F908F907F906F905F904F9008954D
S1132980CF93DF93EC01A881B981109729F48FEFDD
S11329909FEF2AC0319601C0FD019081913210F061
S11329A09A33C1F79A33A9F4AD014F5F5F4F2C916D
S11329B0022E000C330BC901C0978A30910560F4D4
S11329C0E417F50761F4009769F43196F983E88315
S11329D00BC080E090E008C08FEF9FEF05C08FEF41
S11329E09FEF02C08FEF9FEFDF91CF9108950F9378
S11329F01F93CF93DF93EC018B01892B91F0E88136
S1132A00F981309771F08081882359F025813681CE
S1132A108A819B812817390721F4818154DD80FF45
S1132A2006C0F8011182108289E090E007C0888115
S1132A309981F8019183808380E090E0DF91CF91C8
S1132A401F910F9108958F929F92AF92BF92CF9250
S1132A50DF92EF92FF920F931F93CF93DF93FC01CA
S1132A602381222309F442C0EC01C7A4D0A8E1A821
S1132A70F2A85C01F3E3AF0EB11C01E010E0A70182
S1132A809601B50189813EDD892B99F51B828BA1C5
S1132A909CA1ADA1BEA1B701A601481B590B6A0BAD
S1132AA07B0B8B8D9C8DAD8DBE8D481759076A07A6
S1132AB07B0710F58A80912C12C08B8D9C8DAD8D77
S1132AC0BE8DC80ED91EEA1EFB1E01E010E0A70150
S1132AD09601B501898116DD81E0881A9108E2E04A
S1132AE08E16910450F780E090E008C080E090E0FA
S1132AF005C081E090E002C080E090E0DF91CF91DA
S1132B001F910F91FF90EF90DF90CF90BF90AF9007
S1132B109F908F9008958F929F92AF92BF92EF9261
S1132B20FF920F931F93CF93DF93EC014A015B0154
S1132B308FA598A9A9A9BAA984179507A607B707C5
S1132B40E1F0CE0180DF7C01892BC9F401E010E0C3
S1132B50A5019401BE016D5C7F4F8981C2DC892B84
S1132B6039F0EE24E394F12C88248A94982C5401AF
S1132B708FA698AAA9AABAAA02C0E12CF12CC7016F
S1132B80DF91CF911F910F91FF90EF90BF90AF9085
S1132B909F908F900895CF93DF93EC011B828FEF6A
S1132BA09FEFDC018FA798ABA9ABBAABCE01B3DF23
S1132BB0892B31F5CE018F5C9D4FC2DC85359A4A55
S1132BC009F58BA9893E29F08B3EF1F48DA9803952
S1132BD0E9F4CE0187599F4FBDDCDC01CB01BB2753
S1132BE086349144A445B10599F0CE018B579F4F8B
S1132BF0B1DC663471448445934361F480E00BC0D6
S1132C0084E009C083E007C082E005C082E003C01D
S1132C1080E001C082E0DF91CF9108954F925F92EE
S1132C206F927F928F929F92AF92BF92CF92DF92D8
S1132C30EF92FF920F931F93CF93DF93CDB7DEB73D
S1132C40A0970FB6F894DEBF0FBECDBF6B01B42EB4
S1132C50DB011D921C9294DE7C0199230CF456C274
S1132C60FC01EE0FFF1FEF58FE4F0081118101158B
S1132C70110509F44EC2F60111830083FB2DFE7F7A
S1132C80BF2ED8018C91882369F011968C911BDC9E
S1132C9080FD08C0BB2009F43FC282FD40C280E031
S1132CA090E06FC2F8011082E1828E2D13DC80FD6A
S1132CB039C2BB2011F082FD38C240E050E0BA01B5
S1132CC0C80169DF823071F1C12CD12C760155C065
S1132CD0F701E295F295F07FFE27E07FFE27E254AC
S1132CE0FE4FC801C396E80FF91F8481882321F0A1
S1132CF0CF0108962FDC03C060E070E0CB01F70140
S1132D00EE0FFF1FEE0FFF1F21E030E02C0F3D1FE1
S1132D10E20FF31F60837183828393833FEFE31A8F
S1132D20F30A02C0E12CF12C44E0E416F10480F231
S1132D30A12CB12CF501EE0FFF1FEE0FFF1F61E078
S1132D4070E06C0F7D1FE60FF71FC080D180E2801A
S1132D50F380C114D104E104F10429F0B701A60100
S1132D60C80119DF01C083E0823038F07FEFA71A71
S1132D70B70A94E0A916B104E8F2843009F4D8C182
S1132D80823008F0D8C1C801CE96DADB81159240B2
S1132D9009F0D4C1C801875B9F4FD2DB9C0140E09E
S1132DA050E0298B3A8B4B8B5C8B232B242B252BCC
S1132DB041F4C801895A9F4FCDDB698B7A8B8B8B89
S1132DC09C8B49895A896B897C89D8015B964D9380
S1132DD05D936D937C935E97F801ED5BFF4FA0814B
S1132DE0F801A2838FEF8A0F823008F0AAC1B0E005
S1132DF09A01AB010E946233698F7A8F8B8F9C8F0B
S1132E00E05CFF4FA080B12CD8011A96BC92AE9220
S1132E101997A114B10409F497C1C50101978A2136
S1132E209B21892B09F093C1C8018C5B9F4F88DBE0
S1132E304C01F801908787838F709927892B09F0BB
S1132E4089C1C8018A5B9F4F7BDB2C01612C712CEB
S1132E50411451046104710431F4C8018D5A9F4F27
S1132E6079DB2B013C01C8018F5B9F4F69DB009725
S1132E7009F473C19C0140E050E02D8F3E8F4F8FC9
S1132E8058A3898D9A8DAB8DBC8D820F931FA41F7F
S1132E90B51F9401329522952F7023273F70232765
S1132EA0AC01BD01420F531F611D711D4D8B5E8B23
S1132EB06F8B788F441655066606770608F450C162
S1132EC0C301B2012D893E894F89588D621B730B52
S1132ED0840B950B950140E050E00E942B33DA01FE
S1132EE0C901211531054105510509F43CC1263FAD
S1132EF06FEF36074105510528F00F2EF3E0BF2E82
S1132F00F02D03C06894BB24B1F8863F9F40A1050F
S1132F10B10510F4BB24B39429013A0182E0480EB0
S1132F20511C611C711CD80157964D925D926D9293
S1132F307C925A97F801C78ED0A2E1A2F2A28D8D9D
S1132F409E8DAF8DB8A18C0D9D1DAE1DBF1D83A39D
S1132F5094A3A5A3B6A34D895E896F89788D4C0D82
S1132F605D1D6E1D7F1D43A754A765A776A7F3E0DB
S1132F70BF121EC0C801835A9F4FE2DA892B09F0A1
S1132F80F5C0892809F0F5C0C801815A9F4FE2DADB
S1132F90D80197966D937D938D939C939A97440C47
S1132FA0551C661C771C440C551C661C771C2DC0D4
S1132FB0892809F4E1C0298D3A8D4B8D5C8D820FEF
S1132FC0931FA41FB51FF80187A390A7A1A7B2A7B9
S1132FD0F2E0BF1205C0440C551C661C771C15C0DA
S1132FE0A3E0B0E0A30192010E946233DC01CB01B3
S1132FF0B695A7959795879521E042225524662496
S11330007724480E591E6A1E7B1E3FEF430E31E0A3
S1133010531E611C711C032E39E0769467945794F7
S113302047943A95D1F7302D49895A896B897C891F
S1133030441555056605770508F4A1C08FEF9FEF89
S1133040DC01F8018787908BA18BB28B83879487EF
S1133050A587B68780E88483F3E0BF1240C0C80127
S11330608D599F4F6DDA019709F039C0B701A60158
S11330704F5F5F4F6F4F7F4FC8014DDD892B79F54F
S1133080D80114961C92C8018F5C9D4F59DA85357E
S11330909A4A29F5C801C3965DDA623572458146BC
S11330A09144E9F4C801895E9D4F54DA623772474E
S11330B081449146A1F4C801855E9D4F4BDAD80145
S11330C01F966D937D938D939C935297C801815E57
S11330D09D4F40DAF8016387748785879687D80106
S11330E0BC9280916F019091700101969093700150
S11330F080936F0116969C938E931597F801138A0B
S1133100148A158A168A80E090E03BC08BE090E038
S113311038C08CE090E035C080E090E032C08AE0B6
S113312090E02FC083E090E02CC08AE090E029C0BA
S113313081E090E026C08DE090E023C08DE090E037
S113314020C08DE090E01DC08DE090E01AC08DE0BD
S113315090E017C08DE090E014C08DE090E011C0C5
S11331608DE090E00EC08DE090E00BC08DE090E02B
S113317008C08DE090E005C08DE090E002C08DE0D5
S113318090E0A0960FB6F894DEBF0FBECDBFDF91DE
S1133190CF911F910F91FF90EF90DF90CF90BF9050
S11331A0AF909F908F907F906F905F904F90089515
S11331B02F923F924F925F926F927F928F929F9243
S11331C0AF92BF92CF92DF92EF92FF920F931F9331
S11331D0CF93DF9300D000D0CDB7DEB74230510596
S11331E06105710508F4EDC0FC01C788D08CE18C41
S11331F0F28C4C155D056E057F0508F0E5C02801CD
S113320039016A017B019C838B838081823009F4BC
S113321075C0833009F498C0813009F0D8C04A01E0
S113322096948794840E951E43A154A165A176A11A
S1133230C401892F99278695480F591F611D711D57
S1133240CF0169DC8C01892B09F0C3C02B803C8041
S1133250F3E32F0E311C94012F5F3F4F3A832983F0
S113326031E09322F101E80DF91D4601570181E097
S113327088229924AA24BB24C0FE08C0208130E1FE
S1133280439EC00111242F70822B01C0842D8083A2
S113329081E0EB81FC81838343A154A165A176A1E4
S11332A089819A81892F99278695480F591F611D15
S11332B0711DCF0130DC8C01892B09F08AC0898112
S11332C09A819170F101E80FF91F89288A288B28C7
S11332D049F0689413F87694679457944794169435
S11332E0D1F706C09081907F852D8F70492E482A92
S11332F0408281E0EB81FC8183836BC0EB81FC81A4
S113330043A154A165A176A1BB27AF2D9E2D8D2D80
S1133310480F591F6A1F7B1FCF01FDDB8C01892BCE
S113332009F057C02B813C812D5C3F4FCC0CDD1C38
S1133330C6018E7F9170B201820F931F26D981E05E
S1133340EB81FC81838345C0EB81FC8143A154A1C3
S113335065A176A1D701C601689416F8B695A7951C
S1133360979587951694D1F7480F591F6A1F7B1FAD
S1133370CF01D1DB8C01892B61F5FFE07F228B81AA
S11333809C81C396CC0CDD1CCC0CDD1C2CEFC22222
S113339021E0D222C80ED91EC601DCD8DC01CB0143
S11333A088279927AA27B07FB301A201482B592B5C
S11333B06A2B7B2BC601EDD881E0EB81FC818383F2
S11333C008C002E010E005C002E010E002C002E024
S11333D010E0C8010F900F900F900F90DF91CF91E4
S11333E01F910F91FF90EF90DF90CF90BF90AF901F
S11333F09F908F907F906F905F904F903F902F9011
S11334000895AF92BF92CF92DF92EF92FF920F9303
S11334101F93CF93DF93FC01C081D18142305105CA
S11334206105710508F4A4C08F89988DA98DBA8DA2
S1133430481759076A077B0708F09FC06A017B0198
S11334408881823009F450C0833009F46CC0813023
S113345009F098C08A0116950795040F151F4BA112
S11334605CA16DA17EA1C801892F99278695480F7B
S1133470591F611D711DCE014EDB892B09F087C0D8
S11334805801FFEFAF1ABF0A1170FE01E00FF11FE0
S113349003A910E04BA15CA16DA17EA1C501892FF8
S11334A099278695480F591F611D711DCE0133DB85
S11334B0892B09F070C081E0B822CA0DDB1D6BA90D
S11334C070E0762F6627602B712BC0FE09C07295C1
S11334D062956F7067277F70672780E090E066C011
S11334E07F7080E090E062C04BA15CA16DA17EA1E1
S11334F0BB27AF2D9E2D8D2D480F591F6A1F7B1F93
S1133500CE0109DB892B09F04AC0CE01C396A6017E
S1133510440F551F4E7F5170840F951F11D8BC0165
S113352080E090E043C04BA15CA16DA17EA1D701D6
S1133530C601689416F8B695A7959795879516943D
S1133540D1F7480F591F6A1F7B1FCE01E4DA892B7C
S113355051F5E396A601440F551F440F551FCA01A8
S11335608C7F91708C0F9D1F0E94AA129F701EC0A9
S113357061E070E080E090E019C061E070E080E01C
S113358090E014C061E070E080E090E00FC06FEF65
S11335907FEFCB010BC06FEF7FEFCB0107C06FEF65
S11335A07FEFCB0103C06FEF7FEFCB01DF91CF91B2
S11335B01F910F91FF90EF90DF90CF90BF90AF904D
S11335C008954F925F926F927F928F929F92AF92E3
S11335D0BF92CF92DF92EF92FF920F931F93CF93FC
S11335E0DF93EC016A017B010881198141155105C2
S11335F080E26807710508F0ACC0DB01CA018F7175
S11336009927AA27BB27892B8A2B8B2B09F0A4C0C7
S11336104E875F87688B798B8E809F80A884B9845E
S113362081149104A104B10441F4F8018081833030
S113363020F087A090A4A1A4B2A481149104A104B1
S1133640B104F1F4F80187819085A0E0B0E0B701FE
S1133650A601689414F8769567955795479516943E
S1133660D1F7481759076A077B0708F078C087A184
S113367090A5A1A5B2A58E8B9F8BA88FB98F3FC0B3
S1133680F80141845284612C712C032E39E0440CDE
S1133690551C661C771C3A95D1F7302D22C0B50114
S11336A0A401CE01AEDE4B015C016F3F7F4F8F4F13
S11336B09F4F09F457C082E088169104A104B10415
S11336C008F453C0F8018789908DA18DB28D8816B6
S11336D09906AA06BB0608F04BC0C418D508E6082C
S11336E0F708C414D504E604F704C8F6B501A40128
S11336F0C8010E9410136E8B7F8B888F998F8A8AE2
S11337009B8AAC8ABD8A8E899F89A88DB98D0097C2
S1133710A105B10581F1B701A601032E39E0769523
S11337206795579547953A95D1F7302D840F951F96
S1133730A61FB71F8E8B9F8BA88FB98F0D5C1F4F51
S1133740F1E0DF22C00ED11EDB8ECA8E80E090E055
S113375014C082E090E011C082E090E00EC082E0EC
S113376090E00BC081E090E008C082E090E005C0EA
S113377082E090E002C082E090E0DF91CF911F915F
S11337800F91FF90EF90DF90CF90BF90AF909F90FC
S11337908F907F906F905F904F9008954F925F92BB
S11337A06F927F928F929F92AF92BF92CF92DF924D
S11337B0EF92FF920F931F93CF93DF938C012A0113
S11337C03B01FC01C081D1814115510561057105A1
S11337D099F48B849C84AD84BE8481149104A104E7
S11337E0B10429F18F89988DA98DBA8D881699060F
S11337F0AA06BB0608F524C004DE62307105810503
S1133800910508F496C06F3FFFEF7F078F079F076E
S113381009F494C0CF88D88CE98CFA8C6C157D059A
S11338208E059F0508F48EC05301420109C0812C06
S1133830912C5401839404C0812C912C54018394C1
S1133840750164012FEFC21AD20AE20AF20A8F89C3
S1133850988DA98DBA8DC816D906EA06FB0660F0C4
S113386082E088169104A104B10408F46FC0C12C4D
S1133870D12C76016894C1F8B701A601C801C1DD55
S1133880611571058105910599F061307105810516
S1133890910509F460C06F3FEFEF7E078E079E0726
S11338A009F45DC0C814D904EA04FB0459F65BC0EA
S11338B00FEF1FEF9801B701A601CE0179DC009745
S11338C059F4411451046104710431F097018601E3
S11338D0B301A201CE016CDC009721F5CB86DC8616
S11338E0ED86FE868F859889A989BA894F89588D76
S11338F0698D7A8D42505109610971094817590738
S11339006A077B0738F00197A109B1098F87988B63
S1133910A98BBA8B8C8181608C834C2D3D2D2E2DEF
S11339209F2D2AC0019721F54FEF3FEF2FEF9FEF17
S113393023C041E030E020E090E01EC0462F372F46
S1133940282F1AC0462F372F282F16C040E030E00A
S113395020E090E011C0462F372F282F0DC0462FAE
S1133960372F282F09C040E030E020E090E004C069
S113397041E030E020E090E0642F732F822FDF914C
S1133980CF911F910F91FF90EF90DF90CF90BF9058
S1133990AF909F908F907F906F905F904F9008951D
S11339A04F925F926F927F92AF92BF92CF92DF92CB
S11339B0EF92FF920F931F93CF93DF935C016A0101
S11339C07B01B901A801FC01C081D181F2E0CF16CD
S11339D0D104E104F10408F461C08F89988DA98DA4
S11339E0BA8DC816D906EA06FB0608F05AC0012BA0
S11339F0022B032B41F00FEF1FEF9801CE01D8DB10
S1133A00009709F059C0B701A601C501FADC2B01E2
S1133A103C01611571058105910509F445C06130CA
S1133A2071058105910509F442C08FEF48165806C7
S1133A306806780609F43EC000E010E09801B7017A
S1133A40A601CE01B5DB0097B9F58F859889A989C0
S1133A50BA894F89588D698D7A8D6A017B01E2E0BC
S1133A60CE1AD108E108F1088C159D05AE05BF05F5
S1133A7050F40196A11DB11D8F87988BA98BBA8B29
S1133A808C8181608C83730162014416550666063D
S1133A90770608F4B8CF80E090E00EC082E090E0B2
S1133AA00BC082E090E008C080E090E005C082E0B6
S1133AB090E002C081E090E0DF91CF911F910F91DF
S1133AC0FF90EF90DF90CF90BF90AF907F906F907A
S1133AD05F904F9008954F925F926F927F92AF9252
S1133AE0BF92CF92DF92EF92FF920F931F93CF93E7
S1133AF0DF93EC0108811981CE84DF84E888F9889A
S1133B0020E2C20ED11CE11CF11C8E899F89A88D74
S1133B10B98D0097A105B10509F4F8C0C114D10409
S1133B20E0E2EE06F10408F0F4C05B01B701A6017F
S1133B30517066277727452B462B472B09F0D7C0B2
S1133B400196A11DB11D8E8B9F8BA88FB98F4A89B9
S1133B505B896C897D894115510561057105E1F425
S1133B60F80187819085A0E0B0E0B701A6016894D0
S1133B7014F876956795579547951694D1F7481795
S1133B8059076A077B0708F4B2C01E8A1F8A188E79
S1133B90198E84E090E0D4C0F80181859285019764
S1133BA02C01612C712CD701C601072E79E0B69542
S1133BB0A795979587957A95D1F7702D84219521AE
S1133BC0A621B721892B8A2B8B2B09F090C0CE011B
S1133BD018DC2B013C01623071058105910508F464
S1133BE09BC06F3F7F4F8F4F9F4F09F498C0F801E0
S1133BF08789908DA18DB28D481659066A067B0679
S1133C0008F468C0AB2839F41E8A1F8A188E198EEE
S1133C1084E090E095C04A895B896C897D89CE01F6
S1133C20BDDD2B013C01611571058105910509F488
S1133C3079C0613071058105910509F476C06F3F43
S1133C407F4F8F4F9F4F09F473C0C8010E94231503
S1133C50892B09F070C040E052E060E070E0C801D8
S1133C60C3960E94DE12B301A201C8010E94101380
S1133C70F80167A770AB81AB92ABA12CB12C18C033
S1133C8081E0F8018383C8010E942315892B09F080
S1133C9055C0FFEFAF1ABF0AF80187A590A9A1A9E3
S1133CA0B2A90196A11DB11D87A790ABA1ABB2AB80
S1133CB0F80181859285A816B90610F387A590A905
S1133CC0A1A9B2A98A199B09A109B10987A790AB37
S1133CD0A1ABB2AB4A8A5B8A6C8A7D8AB301A2012A
S1133CE0C8010E9410136E8B7F8B888F998FCE86AC
S1133CF0DF86E88AF98A0D5C1F4FF1E0DF22C00EEF
S1133D00D11EDB8ECA8E80E090E01AC084E090E081
S1133D1017C084E090E014C082E090E011C081E01C
S1133D2090E00EC087E090E00BC082E090E008C015
S1133D3081E090E005C081E090E002C081E090E085
S1133D40DF91CF911F910F91FF90EF90DF90CF9073
S1133D50BF90AF907F906F905F904F900895EF92D7
S1133D60FF920F931F93CF93DF93EC01E880F980C8
S1133D7040E050E0BA0125DC009769F54E895F897F
S1133D80688D798DC7010E948B158C010097E1F431
S1133D90EA8DFB8D80818823C9F083858F738C83A2
S1133DA0838583FD0AC04BE050E0BE01645E7F4F13
S1133DB0CF010E94E712892B61F060E070E0CE0130
S1133DC08ADE0097D9F207C0912F05C084E090E005
S1133DD002C0802F912FDF91CF911F910F91FF90FF
S1133DE0EF900895CF92DF92EF92FF920F931F937B
S1133DF0CF93DF9300D0CDB7DEB78C01FB017A837C
S1133E006983DC01ED90FC9080818F3281F08C35E8
S1133E1071F0F70183899489A589B689F8018683AD
S1133E209783A087B18711C03196FA83E983E9812A
S1133E30FA8180818F32C1F38C35B1F3D8011696A3
S1133E401D921D921D921C921997E981FA8180811D
S1133E50803250F480E8F80187A340E050E0BA01D2
S1133E60C801AFDB6C014BC0BE016F5F7F4FC8015F
S1133E700E94DC136C01892B09F041C0C8016FDF7B
S1133E80D80197962C919797009779F084309105F3
S1133E9039F525FF06C022FFE7CF80E897968C937B
S1133EA02EC022FF1FC06C012AC022FD21C0F801D0
S1133EB0848184FF1FC086859785A089B18991700C
S1133EC0B7016D5C7F4F680F791FC7010E943813DB
S1133ED0D80116966D937D938D939C931997C4CFB7
S1133EE06C010DC00F2EF5E0CF2ED12CF02D07C0A4
S1133EF06C0105C00F2EF5E0CF2ED12CF02DC6019C
S1133F000F900F90DF91CF911F910F91FF90EF9041
S1133F10DF90CF900895CF92DF92EF92FF920F93AC
S1133F201F93CF93DF93EC016B01E880F98040E0AD
S1133F3050E0BA0146DB009701F500E010E04E893D
S1133F405F89688D798DC7010E948B150097A9F44C
S1133F50EA8DFB8D2081253E11F0211106C00F5FF3
S1133F601F4F0C151D0519F408C000E010E061E0B6
S1133F7070E0CE01B0DD009711F38430910511F4A7
S1133F8087E090E0DF91CF911F910F91FF90EF9028
S1133F90DF90CF900895EF92FF920F931F93CF93EA
S1133FA0DF93EC01E880F98061E070E0B4DF8C011C
S1133FB0892BF1F44E895F89688D798DC7010E9440
S1133FC08B158C01892BA1F440E250E060E070E095
S1133FD08A8D9B8D0E94DE12BE01645E7F4F4BE092
S1133FE050E08A8D9B8D0E94CF1281E0F70183837C
S1133FF0C801DF91CF911F910F91FF90EF90089529
S1134000EF92FF920F931F93CF93DF93EC017B0109
S11340100881198184E090E025C0C8010E948B15B5
S1134020009761F5EA8DFB8D3081332329F12385D7
S11340302F732C83353E81F03E3271F02F3061F0C6
S113404030E02F7D41E050E02830310511F040E0B0
S113405050E04E155F0591F060E070E0CE013BDD6D
S1134060009761F44E895F89688D798D41155105FA
S11340706105710591F602C084E090E0009721F09B
S11340801E8A1F8A188E198EDF91CF911F910F916E
S1134090FF90EF900895CF92DF92EF92FF920F93EB
S11340A01F93CF93DF93EC010E9423157C01892B8E
S11340B009F05CC08881833009F04DC08C81813067
S11340C009F049C040E052E060E070E06E0183E333
S11340D0C80ED11CC6010E94DE1265E57AEACE0143
S11340E08F5C9D4F0E94C51242E552E561E671E482
S11340F0C6010E94C91242E752E761E471E6CE01AB
S1134100895E9D4F0E94C9124F85588969897A89B1
S1134110CE01855E9D4F0E94C9124B855C856D85DD
S11341207E85CE01815E9D4F0E94C9128F8D98A11C
S1134130A9A1BAA19C01AD012F5F3F4F4F4F5F4F23
S11341402FA738AB49AB5AAB01E010E0B601898127
S11341500E9482121C8240E050E060E089810E944B
S11341609312892B19F0EE24E394F12CC701DF910B
S1134170CF911F910F91FF90EF90DF90CF90089512
S11341801F93CF93DF9300D000D000D0CDB7DEB71C
S11341909C838B837E836D83142F7A836983CE0102
S11341A001960E94C014992334F1FC01EE0FFF1F05
S11341B0EF58FE4F0190F081E02D309709F0108206
S11341C0EB81FC81309709F010822B813C81880FB0
S11341D0991FFC01EF58FE4F31832083232B71F08C
S11341E0113079F440E0BE016D5F7F4FCE0105963A
S11341F00E940E1608C08BE090E005C080E090E0BD
S113420002C080E090E026960FB6F894DEBF0FBEA1
S1134210CDBFDF91CF911F9108952F923F924F927E
S11342205F926F927F928F929F92AF92BF92CF9242
S1134230DF92EF92FF920F931F93CF93DF93CDB74B
S1134240DEB7AC970FB6F894DEBF0FBECDBF7CA728
S11342506BA7009709F46FC1F42E1C01842F8F7390
S1134260782E482FBE01675D7F4FCE018B960E944A
S11342700E168C01892B09F055C189A59AA59A833C
S113428089836BA57CA5CE010196ACDD8C01892BBD
S113429029F488A5882314F406E010E08F2D8C718E
S11342A009F479C00115110559F00430110521F400
S11342B0CE01019670DE8C01E72DE8607E2E0BC0E6
S11342C08D81817119F4F2FC04C005C007E010E08F
S11342D002C008E010E00115110509F06CC073FE7E
S11342E06AC08B8D9C8D40E050E061E270E00E96D8
S11342F00E94C9128B8D9C8D40E050E061E270E019
S113430046960E94C912EB8DFC8D80E28387CB8C8C
S1134310DC8CE9A4FAA4B601C7010E9438134B014E
S11343205C0120E030E0A901B601C7010E946313DB
S11343308B8D9C8D40E050E0BA014C960E94C912CE
S1134340E9A5FAA581E0838381149104A104B10451
S113435091F1C7A4D0A8E1A8F2A800E010E0980168
S1134360B501A401CE0101961BDB8C01892B19F543
S1134370B701A60189A59AA50E948B158C01E9A510
S1134380FAA581E0881A9108A108B1088386948669
S1134390A586B68610C00115110569F48D8184FDCA
S11343A005C0F1FE08C080FD04C005C004E010E0B3
S11343B002C007E010E001151105A1F473FE03C06B
S11343C0E72DE0647E2EE9A5FAA587A590A9A1A909
S11343D0B2A9F101848F958FA68FB78F8B8D9C8D99
S11343E091A380A30115110509F09CC0AB8CBC8C72
S11343F049A45AA4B501C2010E9438136B017C017F
S1134400F1016683778380879187C5014C960E946A
S1134410AA124B015C01F101628773878487958737
S113442051824082F20185819681F10193838283D6
S113443076861786108E118E128E138E108A118A2C
S1134440128A138A75FE6EC081149104A104B1040A
S113445009F468C0808A918AA28AB38AF2014184ED
S11344605284612C712C032E39E0440C551C661CBB
S1134470771C3A95D1F7302D1AC0B701A601C101B6
S11344800E94011A6B017C0162307105810591055E
S113449010F402E010E08FEFC816D806E806F8061C
S11344A011F401E010E084189508A608B708011576
S11344B0110529F4481459046A047B04F0F2F1014B
S11344C0C48AD58AE68AF78A0115110559F5D501FA
S11344D0C4019170AA27BB27892B8A2B8B2B11F13E
S11344E0B701A60189A59AA50E941013611571054B
S11344F081059105A9F0072E79E0B694A7949794C5
S113450087947A95D1F7702DDC01CB01880D991D24
S1134510AA1DBB1DF101808F918FA28FB38F02C0A2
S113452002E010E00115110549F0F1011182108239
S1134530802F912F05C089E090E002C0802F912F39
S1134540AC960FB6F894DEBF0FBECDBFDF91CF910E
S11345501F910F91FF90EF90DF90CF90BF90AF909D
S11345609F908F907F906F905F904F903F902F908F
S113457008952F923F924F925F926F927F928F9203
S11345809F92AF92BF92CF92DF92EF92FF920F93DE
S11345901F93CF93DF93CDB7DEB728970FB6F89468
S11345A0DEBF0FBECDBF7C013B015A014901F901B9
S11345B0118210828D83FE82BE016F5F7F4F0E9445
S11345C0F714009709F035C1F701278530E021156C
S11345D0310509F029C1868580FF29C1828593852B
S11345E0A485B5854089518962897389841B950B9B
S11345F0A60BB70BA50160E070E084179507A6072A
S1134600B70708F00AC15C0108C1F70180899189E4
S1134610A289B389AC01BD01517066277727452B68
S1134620462B472B09F0B0C0E981FA810185128538
S113463001501109AC01BD01032E39E0769567954F
S1134640579547953A95D1F7302D04231523011535
S1134650110569F5892B8A2B8B2B31F4F7016681BF
S113466077818085918509C0F701448955896689D8
S113467077898D819E810E94011A623071058105BE
S1134680910528F482E0F701878790E0D2C06F3F5C
S1134690FFEF7F078F079F0729F481E0F7018787E2
S11346A090E0C7C0F701648B758B868B978BF701FD
S11346B0448955896689778989819A819C838B830A
S11346C00E941013611571058105910529F482E09A
S11346D0F701878790E0ADC01B012C01200E311E2D
S11346E0411C511C6501CD2CDD24C694C114D10498
S11346F009F445C0EB81FC8121853285C8018C0D0C
S11347009D1D2817390718F46901C01AD10A8601BA
S1134710A2019101B301EB81FC8181810E9471129C
S1134720892B29F081E0F701878790E082C0E98135
S1134730FA8183818823F9F087A590A9A1A9B2A958
S113474082199309A409B509A60160E070E08417F1
S11347509507A607B70778F4BF016D5C7F4FF82F64
S1134760FF0FF8871F8240E052E08F819885860D05
S1134770971D0E94CF12DC2CCC24DD0C36C0F7012F
S1134780208E318E428E538EF70180899189A289C1
S1134790B389917020E032E06901C81AD90AAC14D7
S11347A0BD0408F46501F701408D518D628D738D50
S11347B089819A810E948B15892B29F081E0F70168
S11347C0878790E036C089819A819C012D5C3F4F98
S11347D0F70180899189A289B3899170B901680F21
S11347E0791FA601C3010E94CF126C0C7D1CF70136
S11347F080899189A289B3898C0D9D1DA11DB11D4C
S1134800808B918BA28BB38BF401808191818C0D71
S11348109D1D91838083AC18BD08A114B10409F0D7
S1134820F4CE80E090E005C0822F932F02C087E091
S113483090E028960FB6F894DEBF0FBECDBFDF918F
S1134840CF911F910F91FF90EF90DF90CF90BF9089
S1134850AF909F908F907F906F905F904F903F901C
S11348602F9008952F923F924F925F926F927F9272
S11348708F929F92AF92BF92CF92DF92EF92FF926C
S11348800F931F93CF93DF93CDB7DEB728970FB65F
S1134890F894DEBF0FBECDBF7C013B015A01490134
S11348A0F901118210828D83FE82BE016F5F7F4FFA
S11348B00E94F714009709F0A1C1F701278530E0A1
S11348C02115310509F095C1868581FF95C180893F
S11348D09189A289B389AC01BD014A0D5B1D611D9B
S11348E0711D481759076A077B0708F077C15C01F7
S11348F0A094B09473C1F70180899189A289B38986
S1134900AC01BD01517066277727452B462B472BF9
S113491009F008C1E981FA81018512850150110964
S1134920AC01BD01032E39E07695679557954795FF
S11349303A95D1F7302D042315230115110509F0FB
S11349404BC0892B8A2B8B2B91F4F70166817781DD
S113495080859185611571058105910589F440E093
S113496050E0BA018D819E810E94CE1B09C0F701DF
S113497044895589668977898D819E810E94CE1BE1
S1134980611571058105910509F42CC1613071052A
S11349908105910529F482E0F701878790E02EC113
S11349A06F3FFFEF7F078F079F0729F481E0F7012F
S11349B0878790E023C1F701648B758B868B978B77
S11349C02681378140855185232B242B252B21F4E7
S11349D0668377838087918729813A81F90147A586
S11349E050A961A972A9F701808D918DA28DB38D13
S11349F0481759076A077B0751F4C9010E94231518
S1134A00892B29F081E0F701878790E0F7C0F7014F
S1134A10448955896689778989819A819C838B83A6
S1134A200E941013611571058105910529F482E036
S1134A30F701878790E0E2C01B012C01200E311E94
S1134A40411C511C6501CD2CDD24C694C114D10434
S1134A5009F444C0EB81FC8121853285C8018C0DA9
S1134A609D1D2817390718F46901C01AD10A860157
S1134A70A2019101B301EB81FC8181810E94821228
S1134A80892B29F081E0F701878790E0B7C0E9819D
S1134A90FA8147A550A961A972A942195309640969
S1134AA07509C601A0E0B0E0481759076A077B07FB
S1134AB088F4242F220F28871F826F817885660D42
S1134AC0771D40E052E0CF01C3960E94CF12E981E6
S1134AD0FA811382DC2CCC24DD0C58C0F701408908
S1134AE051896289738982859385A485B585481720
S1134AF059076A077B0788F08B819C810E942315E4
S1134B00892B29F081E0F701878790E077C0E9815C
S1134B10FA8127A630AA41AA52AAF701208E318E23
S1134B20428E538EF70180899189A289B38991704D
S1134B3020E032E06901C81AD90AAC14BD0408F4B3
S1134B406501F701408D518D628D738D89819A8144
S1134B500E948B15892B29F081E0F701878790E06B
S1134B604DC029813A812D5C3F4FF701408951891D
S1134B7062897389CA019170A601B301820F931FE0
S1134B800E94CF12E981FA8181E083836C0C7D1C41
S1134B90F70180899189A289B3898C0D9D1DA11D7E
S1134BA0B11D808B918BA28BB38B42855385648519
S1134BB0758584179507A607B70710F4DB01CA01AA
S1134BC0F70182879387A487B587F4018081918157
S1134BD08C0D9D1D91838083AC18BD08A114B10474
S1134BE009F089CEF70186858064868780E090E0AD
S1134BF005C0822F932F02C087E090E028960FB65D
S1134C00F894DEBF0FBECDBFDF91CF911F910F91FE
S1134C10FF90EF90DF90CF90BF90AF909F908F90D8
S1134C207F906F905F904F903F902F900895EF92F8
S1134C30FF920F931F93CF93DF9300D0CDB7DEB7CE
S1134C408C01BE016F5F7F4F0E94F714009709F03B
S1134C5040C0F801268526FF3CC0448D558D668DE5
S1134C60778D89819A810E948B15009791F5F801BF
S1134C70E0A0F1A0F701838580628387F801268193
S1134C80378140855185B701808191810E946313EA
S1134C90F8014285538564857585C7014C960E9449
S1134CA0C91240E050E061E270E0C70146960E94FC
S1134CB0C91260E070E0C70142960E94C512898162
S1134CC09A8121E0FC012383E6D9F80126852F7B14
S1134CD026870F900F90DF91CF911F910F91FF9036
S1134CE0EF9008950F931F93CF93DF9300D0CDB728
S1134CF0DEB78C019CDF009759F4BE016F5F7F4FD4
S1134D00C8010E94F714009719F4F8011182108267
S1134D100F900F90DF91CF911F910F910895EF9213
S1134D20FF920F931F93CF93DF93CDB7DEB7AC976A
S1134D300FB6F894DEBF0FBECDBF9CA78BA740E093
S1134D40BE01675D7F4FCE018B960E940E168C01CB
S1134D50892B89F589A59AA59A8389836BA57CA556
S1134D60CE0101963FD88C01892B01F588A58823B3
S1134D705CF4E9A5FAA58F819885A985BA85838B0A
S1134D80948BA58BB68B12C08D8184FF0DC06B8D67
S1134D907C8DE9A4FAA4C7010E943813F701638B40
S1134DA0748B858B968B02C005E010E004301105EE
S1134DB011F405E010E0C801AC960FB6F894DEBF1C
S1134DC00FBECDBFDF91CF911F910F91FF90EF9058
S1134DD008958F929F92AF92BF92CF92DF92EF92FB
S1134DE0FF920F931F93CF93DF93CDB7DEB7C254D7
S1134DF0D1090FB6F894DEBF0FBECDBF23969FAF87
S1134E008EAF23976B01FC01108240E0BE01675D09
S1134E107F4FCE018F5B9F4F0E940E168C01892B12
S1134E2009F0C7C0E9A5FAA5FA83E98383899489BF
S1134E30A589B6898F839887A987BA8776018CC09C
S1134E4040E250E060E070E0CE0101960E94E11A79
S1134E508C01892B09F08DC04F89588D698D7A8D0D
S1134E6089A59AA50E948B158C01892B09F081C014
S1134E706B8D7C8D89A59AA50E9438136F837887E2
S1134E8089879A8740E050E0BA01CE0101960E94DA
S1134E90E11A8C01892B09F06CC060E070E0CE014E
S1134EA00196AED88C01892BA1F46B8D7C8D89A5DC
S1134EB09AA50E94381386169706A806B90649F0E3
S1134EC060E070E0CE0101960E946B1D8C01892B7D
S1134ED021F30430110511F402E010E0011511056D
S1134EE009F047C0BE01655D7F4FCE0101960E9467
S1134EF0861380E090E001C00196E4E3F0E0EC0F5B
S1134F00FD1FE80FF91F20812111F6CF9C012D5FB1
S1134F103F4FE216F30698F42AC0F1E0EF1AF108C5
S1134F202396EEADFFAD2397EE0DFF1D0197A4E38D
S1134F30B0E0AC0FBD1FA80FB91F2C9120830097C0
S1134F4061F721E0E21AF1082396EEADFFAD239755
S1134F50EE0DFF1D8FE280838F809884A984BA842C
S1134F6081149104A104B10409F06ACF02C001E1E3
S1134F7010E02396AEADBFAD239701151105C1F422
S1134F80EC14FD0421F48FE28C93119611C0CD0131
S1134F9001962396EEADFFAD2397EE0DFF1D208104
S1134FA02C93F70131967F01DC01EC15FD0578F3B4
S1134FB01C92C801CE5BDF4F0FB6F894DEBF0FBE64
S1134FC0CDBFDF91CF911F910F91FF90EF90DF90B4
S1134FD0CF90BF90AF909F908F9008954F925F9223
S1134FE06F927F928F929F92AF92BF92CF92DF92F5
S1134FF0EF92FF920F931F93CF93DF93CDB7DEB75A
S11350002A970FB6F894DEBF0FBECDBF8C016A019C
S11350107B01882E912EBE016F5F7F4F0E94F71493
S11350205C01892B21F4D8011F96AC90B12CA114FA
S1135030B10409F07EC1F80182859385A485B58504
S11350408C159D05AE05BF0528F4268521FD02C0FB
S11350506C017D01D80150962D913D914D915C914B
S113506053972B833C834D835E83F801108A118A06
S1135070128A138AC114D104E104F10409F425C18C
S1135080E981FA8141845284612C712C032E39E028
S1135090440C551C661C771C3A95D1F7302D232BF4
S11350A0242B252B09F446C0C701B60161507109B0
S11350B081099109A30192010E942B332F83388720
S11350C049875A872B813C814D815E81215031096A
S11350D0410951092B833C834D835E83CA01B90185
S11350E0A30192010E942B338F819885A985BA85EB
S11350F082179307A407B507E8F088279927DC01EE
S113510084199509A609B7092B813C814D815E81DB
S113511082239323A423B523F801808B918BA28B44
S1135120B38BC81AD90AEA0AFB0A448955896689E5
S1135130778936C0D80116964D915D916D917C9119
S11351401997411551056105710519F540E050E0C5
S1135150BA01C8010E94CE1BAB01BC01413051050C
S11351606105710529F482E0F801878790E0E9C0C0
S11351704F3FFFEF5F076F077F0731F481E0D801EE
S11351801F968C9390E0DDC0F801468357836087B7
S11351907187D80154964D935D936D937C93579783
S11351A0411551056105710509F052C0C12CD12C7E
S11351B0760192C0C418D508E608F708F80180897A
S11351C09189A289B389840D951DA61DB71D808B75
S11351D0918BA28BB38B868581FF0CC0882D992D72
S11351E00E94CE1BAB01BC0141155105610571053F
S11351F039F435C0882D992D0E94011AAB01BC01E8
S11352004F3FFFEF5F076F077F0731F481E0D8015D
S11352101F968C9390E095C042305105610571054D
S113522058F0E981FA818789908DA18DB28D481754
S113523059076A077B0728F082E0F801878790E026
S113524080C0D80154964D935D936D937C9357978A
S11352504C145D046E047F0408F4ACCF03C0C12C6D
S1135260D12C7601F80180899189A289B3898C0DAA
S11352709D1DAE1DBF1D808B918BA28BB38BD7015F
S1135280C6019170AA27BB27892B8A2B8B2B09F186
S113529089819A810E941013611571058105910518
S11352A031F482E0D8011F968C9390E04AC00B2E13
S11352B0B9E0F694E794D794C794BA95D1F7B02D92
S11352C0C60ED71EE81EF91E07C0C12CD12C7601CC
S11352D003C0C12CD12C7601F80180899189A2895F
S11352E0B3894285538564857585481759076A07CC
S11352F07B0738F482879387A487B5872685206443
S113530026879170AA27BB27892B8A2B8B2BA1F088
S1135310F801808D918DA28DB38DC816D906EA0649
S1135320FB0669F0C08ED18EE28EF38E8A2D9B2D02
S113533008C08A2D9B2D05C08A2D9B2D02C08A2D65
S11353409B2D2A960FB6F894DEBF0FBECDBFDF911A
S1135350CF911F910F91FF90EF90DF90CF90BF906E
S1135360AF909F908F907F906F905F904F90089533
S1135370EF92FF920F931F93CF93DF9300D000D04F
S1135380CDB7DEB77C836B83009709F44DC07C01F5
S113539040E0BE016F5F7F4FCE0103960E940E1660
S11353A08C01892BC1F589819A81F70191838083CE
S11353B06B817C81C7010E94F21E8C01892B31F51F
S11353C0F70187A188238CF0848184FF0CC0628D4F
S11353D0738D89819A810E943813F70166837783DC
S11353E08087918702C005E010E00115110571F472
S11353F0E981FA8185819681F7019383828340E074
S113540050E0BA01C7010E94E11A8C010430110571
S113541011F405E010E00115110549F0F7011182BE
S11354201082802F912F05C089E090E002C0802F68
S1135430912F0F900F900F900F90DF91CF911F91AC
S11354400F91FF90EF900895CF92DF92EF92FF9229
S11354500F931F93CF93DF9300D0CDB7DEB77C01BA
S11354606B01BE016F5F7F4F0E94F7148C01892B83
S113547021F5C114D10441F440E050E0BA01C70160
S11354800E94E11A8C0119C060E070E0C7010E941B
S113549000208430910509F08C010115110569F48F
S11354A0B601C7010E94861360E070E0C7010E9444
S11354B06B1D8430910509F08C01C8010F900F9089
S11354C0DF91CF911F910F91FF90EF90DF90CF90DC
S11354D008952F923F924F925F926F927F928F9294
S11354E09F92AF92BF92CF92DF92EF92FF920F936F
S11354F01F93CF93DF93CDB7DEB76A970FB6F894B7
S1135500DEBF0FBECDBF9A8B898B7A8F698F8A01DC
S113551040E0BE016F5F7F4FCE0141960E940E16A0
S11355209C8B8B8B892B09F0CFC0E981FA81D80140
S1135530ED93FC9387859089A189B289C788D08C23
S1135540E18CF28CB701A60142505109610971093D
S1135550481759076A077B0738F0E98DFA8D80836D
S11355609183A283B383B0C080818130B9F5FC8379
S1135570EB83C12CD12C76016894C1F8412C512CB9
S11355803201B701A601CE0103960E94011A6F3FB2
S1135590FFEF7F078F079F0709F47EC06130710515
S11355A08105910509F47DC0672B682B692B29F4CB
S11355B02FEF421A520A620A720A8FEFC81AD80AE7
S11355C0E80AF80AE981FA818789908DA18DB28D64
S11355D0C816D906EA06FB06A0F267C083A094A009
S11355E0A5A0B6A0212C312C00E010E0412C512CB8
S11355F0320101151105F9F4D501C4010196A11D6B
S1135600B11D8D8B9E8BAF8BB88FB501A4018981A1
S11356109A810E948B159C8B8B8B892B09F045C03A
S113562029803A8093E3290E311C8D889E88AF88A7
S1135630B88C00E012E0E981FA818081823081F443
S1135640C1010E94A012892B29F4AFEF4A1A5A0A09
S11356506A0A7A0AB2E02B0E311C0250110914C0F6
S1135660C1010E94AA12DC01CB01BF70892B8A2BD5
S11356708B2B29F4EFEF4E1A5E0A6E0A7E0AF4E0D1
S11356802F0E311C0450110921E0C21AD108E1087F
S1135690F10809F0AECF09C081E090E09C8B8B8BC0
S11356A004C0A2E0B0E0BC8BAB8BE98DFA8D4082E4
S11356B0518262827382E981FA814786508A618AC3
S11356C0728A8481816084838B899C896A960FB6EF
S11356D0F894DEBF0FBECDBFDF91CF911F910F9124
S11356E0FF90EF90DF90CF90BF90AF909F908F90FE
S11356F07F906F905F904F903F902F900895CF923E
S1135700DF92EF92FF920F931F93CF93DF93CDB766
S1135710DEB7AC970FB6F894DEBF0FBECDBF9CA723
S11357208BA77B016A0140E0BE01675D7F4FCE011C
S11357308B960E940E168C01892B09F049C0E11446
S1135740F10409F445C089A59AA59A8389831F8227
S1135750188619861A8640E050E0BA01CE010196F7
S11357600E94E11A009769F561E070E0CE010196AC
S11357700E940020009729F540E050E060E070E0CE
S11357809A012F5F3F4FD701A40FB51FEB8DFC8DFE
S1135790E60FF71FE081EC936F5F7F4FA9012B3079
S11357A0310570F3F701E20FF31F10822115310563
S11357B041F021503109F701E20FF31F40814032DB
S11357C089F38430910519F4F701108201C08C012A
S11357D00115110541F5C114D10429F189A59AA532
S11357E0FC01478D50A161A172A10E948B158C010F
S11357F0892BC9F4E9A5FAA58081833041F084306E
S113580019F484E690E005C087E290E002C083E4E6
S113581090E0F3968E0F9F1F0E94AA12F6016083F8
S1135820718382839383C801AC960FB6F894DEBF6C
S11358300FBECDBFDF91CF911F910F91FF90EF90DD
S1135840DF90CF90089584B1826084B985B18D7F53
S113585085B98EE180937501809175018111FCCF2A
S1135860089584B1826084B985B1826085B9089550
S11358708EBD0DB407FEFDCF8EB50895FC0101C0A9
S1135880F9018FEF8EBD0DB407FEFDCF8EB5808379
S11358908FEF8EBD0DB407FEFDCF9F012E5F3F4FEE
S11358A08EB581836250710959F70895FC0101C0D6
S11358B0F90180818EBD0DB407FEFDCF9F012E5FDF
S11358C03F4F81818EBD0DB407FEFDCF625071093B
S11358D079F708959C01ADECBCECE5D696958795D7
S11358E09695879596958795809374018FEFC0DF81
S11358F08F3F21F0909174019111F8CF91E08F3F87
S113590009F090E0892F90E0089585B1846085B90D
S11359108FEFAECF0895CF93DF9385B18B7F85B999
S11359208FEFA6DF84EF91E0D5DFEC01892B11F432
S1135930ECDF02C0C1E0D0E0CE01DF91CF91089549
S11359400F931F93CF93DF93EC018B0184E180933A
S113595075018FEF8DDF8F3F21F4909175019111C7
S1135960F8CF8E3F51F4B801CE0188DF8FEF80DF8E
S11359708FEF7EDF81E090E002C080E090E0DF9175
S1135980CF911F910F9108950F931F93CF938C0183
S1135990C62F84EF91E09EDF0097C1F08C2F68DF63
S11359A0CD3F91F060E072E0C80180DF8FEF60DFEF
S11359B08FEF5EDF8FEF5CDF8F7191E0853009F050
S11359C090E0892F90E002C081E090E0CF911F9198
S11359D00F910895FF920F931F93CF93DF93C82FD6
S11359E0D42F152F062FF72E882344F4CF7740E0C9
S11359F050E0BA0187E3EEDF823080F5CC3069F005
S1135A00C11107C085B1846085B985B18B7F85B923
S1135A1004C07BDF80DF892B01F18C2F806428DFB9
S1135A208F2D26DF802F24DF812F22DF8D2F20DF93
S1135A30CC2311F081E001C085E9C83009F487E87E
S1135A4017DFCC3011F48FEF13DFCAE08FEF10DFD4
S1135A50882324F4C150D1F701C08FEFDF91CF9197
S1135A601F910F91FF900895EF92FF920F931F9350
S1135A70CF93DF9300D000D0CDB7DEB7F2DE8AE05B
S1135A8080937501809175018111FCCF80910D0186
S1135A9081FF03C080910D01B7C0D5DE84B18F7E34
S1135AA084B984B18C6284B985B18F7E85B9E0EB09
S1135AB0F0E080818F73808382E58CBD1DBC1AE089
S1135AC003C08FEFD5DE11501111FBCF40E050E041
S1135AD0BA0180E07FDF813009F076C084E68093EC
S1135AE075014AEA51E060E070E088E073DF8130DC
S1135AF009F046C00DC0E02EF12C8FEFB9DEE1E0D5
S1135B00F0E0EC0FFD1FEE0DFF1D80830F5F01C061
S1135B10012F043080F38B81813009F057C08C81D0
S1135B208A3A09F055C080917501882341F040E01C
S1135B3050E060E070E489EA4DDF8111F4CF809198
S1135B407501882309F446C040E050E0BA018AE3B5
S1135B5041DF882371F010E044C0E12EF12C8FEF77
S1135B6087DEE1E0F0E0EC0FFD1FEE0DFF1D80830A
S1135B701F5F143090F3898186FF2EC01CE031C072
S1135B8040E050E0BA0189EA25DF823018F412E0DF
S1135B9009EA02C011E001E080917501882339F01F
S1135BA040E050E0BA01802F15DF8111F5CF8091DC
S1135BB07501882399F040E052E060E070E080E1F4
S1135BC009DF81110DC00DC010E00BC010E009C049
S1135BD010E007C010E005C014E003C010E001C0ED
S1135BE010E01093730191DE112359F080910D019F
S1135BF08E7F80930D018CB58C7F8CBD81E08DBD33
S1135C0001C02FDE80910D010F900F900F900F9027
S1135C10DF91CF911F910F91FF90EF9008958091A4
S1135C200D010895FF920F931F93CF93DF938C017F
S1135C30E9012097C9F180910D0180FD38C0809160
S1135C40730183FD09C0032E39E0440F551F661FFD
S1135C50771F3A95D1F7302DC230D10528F00F2E99
S1135C60F2E1FF2EF02D04C00F2EF1E1FF2EF02DF6
S1135C708F2DB0DE811111C060E072E0C80160DEDA
S1135C80892B19F01E5F2197B9F782E1F81205C03C
S1135C9040E050E0BA018CE09DDE37DE81E0CD2BA0
S1135CA009F480E090E005C084E090E002C083E065
S1135CB090E0DF91CF911F910F91FF900895CF92C3
S1135CC0DF92EF92FF920F931F93CF93DF938C0198
S1135CD06A017B01E901209709F44CC080910D0110
S1135CE080FD4BC080910D0182FD4AC080917301FB
