S00C00006D61696E2E7372656373
S113000015C10000F4C400002EC100002CC1000082
S11300102AC1000028C1000026C100000C94760A01
S113002022C1000020C100001EC100001CC100004C
S11300301AC1000018C100000C94AF0814C10000DC
S113004012C1000010C100000EC100000CC100006C
S11300500AC1000008C1000006C1000004C100007C
S113006002C1000000C10000572463248427E22455
S11300708325842784274B26842784278427842761
S11300808427842784278427842784278427842714
S11300908427842784278427842784278427842704
S11300A084278427842784278427842784278427F4
S11300B084278427842784278427842784278427E4
S11300C0842784278427842784278427D725DE252B
S11300D0F725102630265326C4262F2725303364CF
S11300E000235858582F2530336425632025730086
S11300F0534E443A25730046525F25530072633DC4
S11301002575004F4B004449534B5F4552520049FB
S11301104E545F455252004E4F545F52454144592C
S1130120004E4F5F46494C45004E4F5F5041544886
S113013000494E56414C49445F4E414D45004445AB
S11301404E49454400455849535400494E56414C84
S113015049445F4F424A4543540057524954455F0E
S113016050524F54454354454400494E56414C491E
S1130170445F4452495645004E4F545F454E4142F8
S11301804C4544004E4F5F46494C455F53595354C8
S1130190454D004D4B46535F41424F525445440038
S11301A054494D454F5554004C4F434B4544004E24
S11301B04F545F454E4F5547485F434F5245005497
S11301C04F4F5F4D414E595F4F50454E5F46494C2E
S11301D0455300002564002573005B456D707479F8
S11301E0204469725D005B4449525D005B524543A3
S11301F04F524420484552455D002E2E205B474F08
S11302002055505D00C34B432D5441504520627925
S11302102041462E2000546F6F2073686F72743A29
S1130220257562004552523A2573000011241FBE01
S1130230CFEFD8E0DEBFCDBF11E0A0E0B1E0EAEE41
S1130240F1E502C005900D92A638B107D9F724E074
S1130250A6E8B1E001C01D92A33CB207E1F70E94F9
S1130260D80A0C94F328CCCE8A3019F48DE001D04E
S11302708AE0FF93EF93E0918601F0918701309734
S113028009F00995EF91FF910895FC018591803063
S113029011F0EADFFBCF0895FF27E0E230E247FFE9
S11302A00CC0419597FF09C0EDE26095709580956B
S11302B09095611D711D811D911D27FF02C021951F
S11302C030E350E2AA27660F771F881F991FAA1FE1
S11302D0A41710F0A41B63955A95A9F7AA3008F047
S11302E0A95FA05DAF93F395611571058105910533
S11302F041F7ED3211F4EF93F395F21718F43F93AD
S1130300F395FBCF8F91B0DFFA95E1F70895E9916A
S1130310F9918591803021F0853219F0A5DFF9CF6C
S1130320089520E0E89455915532C1F3503311F407
S1130330689455915A3348F4505390F3220F022E87
S1130340220F220F200D250FF4CF0EF42195899151
S11303509991533619F3533729F1533559F1BC01A7
S113036088279927E8945C3621F4899199916894B7
S11303705591543639F446EF7EF077FF0DC08FEF78
S11303809FEF0AC055374AE039F0583540E121F073
S1130390523642E009F00895FF93EF937DDFEF9129
S11303A0FF91B7CFFF93EF93FC0181918030B9F3B4
S11303B05BDFFBCFFF93EF9368DFF1CFDF93CF9346
S11303C0CDB7DEB72596A3DFCF91DF910895F7016E
S11303D081937F010895DF93CF93CDB7DEB7259640
S11303E0E0918601F0918701EF93FF93E7EEF1E04E
S11303F0E0938601F0938701FF92EF92E990F990E0
S113040086DFF7011082EF90FF90FF91EF91E09368
S11304108601F0938701CF91DF9108950B01DC01F0
S1130420ED91FD912227332744275527E8949AE03C
S113043001C0319660816032E1F3A8F16D3211F4AC
S11304406894F7CF6A3378F5603368F171F498E013
S113045031966081613248F1623611F492E003C052
S1130460683719F490E1319660816132F0F06136B9
S113047008F060526053B8F06A3018F067506A3080
S113048090F0691780F481E2771B08F4790F769570
S113049057954795379527958A95B9F7260F381FAD
S11304A0481F581FE0CF80E001C081E04EF466276A
S11304B02095309540955095261F361F461F561F90
S11304C0FE93EE93D0012D933D934D935D931124B0
S11304D0089580E090E069C0FC01EE0FFF1FE0503A
S11304E0FF4F2081223011F12330E9F1213009F04E
S11304F056C054B1FC01EE0FFF1FE050FF4F21E046
S113050030E0B901018002C0660F771F0A94E2F758
S1130510462F4095452344B945B1018002C0220FBE
S1130520331F0A94E2F7242B25B939C057B1FC01D3
S1130530EE0FFF1FE050FF4F21E030E0B9010180D2
S113054002C0660F771F0A94E2F7462F40954523B1
S113055047B948B1018002C0220F331F0A94E2F761
S1130560242B28B91CC05AB1FC01EE0FFF1FE05028
S1130570FF4F21E030E0B901018002C0660F771F10
S11305800A94E2F7462F409545234AB94BB10180BE
S113059002C0220F331F0A94E2F7242B2BB9FC016B
S11305A0E757FE4F23E020830196833091050CF436
S11305B093CF089580E090E0A4C0FC01EE0FFF1FEC
S11305C0E050FF4F2081213019F0223019F004C08F
S11305D023B103C026B101C029B12095FC01EE0F5F
S11305E0FF1FE050FF4F41E050E0018002C0440F84
S11305F0551F0A94E2F742232091880130E0082E27
S113060002C0359527950A94E2F720FF22C04423BF
S113061069F0FC01E757FE4F20812230D0F5FC0140
S1130620E757FE4F20812F5F208333C0FC01E7573B
S1130630FE4F108221E030E0082E02C0220F331F4B
S11306400A94E2F7309188012095232320938801AE
S113065020C0442391F0FC01E757FE4F108221E0B3
S113066030E0082E02C0220F331F0A94E2F73091C3
S11306708801232B209388010CC0FC01E757FE4F0F
S11306802081223030F4FC01E757FE4F20812F5F98
S11306902083FC01E757FE4F2081223089F5FC01BD
S11306A0E757FE4F20812F5F2083442371F021E020
S11306B030E0082E02C0220F331F0A94E2F7309173
S11306C09E01232B20939E010EC021E030E0082ED2
S11306D002C0220F331F0A94E2F730919E01209545
S11306E0232320939E0121E030E0082E02C0220F34
S11306F0331F0A94E2F730919C01232B20939C0131
S11307000196833091050CF458CF08950F931F93ED
S1130710CF93DF938C0140E050E0C3E0D1E009C007
S1130720CE010196FE012491EC012111F9CF4F5F16
S11307305F4F4017510721F0FE0184918111F0CFE2
S11307400E943F281F930F938DEF90E09F938F9308
S113075035DE61E080E00E943728DF93CF9387EF96
S113076090E09F938F932ADEEDB7FEB738960FB6CD
S1130770F894FEBF0FBEEDBFDF91CF911F910F9193
S11307800895009761F0C2DF2FEF81E19AE72150CD
S113079080409040E1F700C0000081E0089580E0CF
S11307A00895CF93DF93EC010E943F2880918E013E
S11307B090918F01009721F081309105D1F032C0E2
S11307C08FE991E09F938F9387ED91E09F938F93AF
S11307D0F5DD61E080E00E9437288CEE91E09F9384
S11307E08F93ECDD0F900F900F900F900F900F9060
S11307F055C08FE991E09F938F9387ED91E09F938C
S11308008F93DCDD61E080E00E9437288AEF91E07D
S11308109F938F93D3DD0F900F900F900F900F90B5
S11308200F903CC0029759F48985811108C08AED64
S113083091E09F938F93C2DD0F900F902FC0CE0154
S113084009969F938F9387ED91E09F938F93B6DDE5
S113085061E080E00E94372888850F900F900F9008
S11308600F9084FF08C086EE91E09F938F93A6DDDE
S11308700F900F9013C08B818F938A818F938981FE
S11308808F9388818F9384ED91E09F938F9396DD6E
S11308900F900F900F900F900F900F90DF91CF91CA
S11308A00895EF92FF920F931F93CF93DF93F82E47
S11308B0E92E062F142FE9010E943F28EF92FF92A0
S11308C080EF90E09F938F9379DD61E080E00E9458
S11308D037280F900F900F900F90C230D10591F0F0
S11308E028F4209761F02197E1F018C0C530D105B4
S11308F079F0C630D10579F0249781F406C08CE0F4
S113090091E011C08EE191E00EC08AE191E00BC04C
S113091081E291E008C087E291E005C08EE291E0B7
S113092002C083E191E0003819F421E230E002C012
S113093020E230E09F938F933F932F931F921F9356
S113094081EE90E09F938F9339DD8DB79EB7089623
S11309500FB6F8949EBF0FBE8DBFDF91CF911F914C
S11309600F91FF90EF900895CF93C82F61E081E03D
S11309700E9437281F92CF938CED90E09F938F9322
S11309801DDD0F900F900F900F90CF9108950F934E
S11309901F93CF93DF93C82FD92F162F072F0E94B1
S11309A03F28DF93CF93C7EDD1E0DF93CF9306DDEC
S11309B061E080E00E9437280F931F93DF93CF9369
S11309C0FDDC8FEF91E12AE7815090402040E1F770
S11309D000C000008DB79EB708960FB6F8949EBF6E
S11309E00FBE8DBFDF91CF911F910F9108951F927C
S11309F00F920FB60F9211240F900FBE0F901F90FD
S1130A0018958AB18B7F8AB98BB18B7F8BB98DB3E3
S1130A108E7F8DBB81E08093690008958CB38170D3
S1130A208CBB8DB381608DBB089587BD16BC15BA90
S1130A3082E084BD80936E0083E085BD0895CF93EA
S1130A40DF93EC0183B1866083B981E090E09093F9
S1130A50940180939301209721F0C130D10529F0AE
S1130A6002C08CE603C08EE101C088E39BB19260B2
S1130A709BB9DBDF209731F0809193019091940131
S1130A80892BC1F783B1866083B9DF91CF91089533
S1130A901F93CF93DF93182F80919301909194012A
S1130AA0892BD1F7C0E0D1E00CC08D2F812321F038
S1130AB081E090E0C4DF03C082E090E0C0DFDD0F9E
S1130AC0CF5FC83090F380E090E0B9DFDF91CF9141
S1130AD01F910895ECEAF1E08181228133819DE246
S1130AE0980F973030F4821306C0831731F080E0FA
S1130AF0089580E0089580E0089581E00895CF93FB
S1130B00DF9340E050E0BA018EE292E00E941B1FA6
S1130B1038DED82F882321F18EE292E00E949F1DB7
S1130B20D0E032C08EE292E00E949F1D2DC08091E1
S1130B30AC018230A8F08DEA91E090930A01809391
S1130B40090180E88093080140E050E0BA018EE298
S1130B5092E00E941B1F15DE811111C0D1E014C068
S1130B6021E931E041E850E06CEA71E08EE292E084
S1130B700E94CB1B06DEC82F8823C9F2D3CF8EE296
S1130B8092E00E949F1DDC2F8D2FDF91CF9108955D
S1130B90CF9324E030E03093070120930601FC0159
S1130BA080819181A281B381BC01CD016051710921
S1130BB08109910921E830E040E050E00E94922848
S1130BC02093900140E150E060E070E08EE292E01A
S1130BD00E941B1FD6DD811110C04091080150E016
S1130BE06091090170910A0121E931E08EE292E0FD
S1130BF00E94CB1BC6DD882331F08EE292E00E9476
S1130C009F1DC0E051C066DFC82F882339F085E0FE
S1130C1090E0909307018093060146C0409108013B
S1130C2050E06091090170910A0121E931E08EE2FE
S1130C3092E00E94CB1BA5DD882329F08EE292E08E
S1130C400E949F1D31C046DFC82F882361F086E0D3
S1130C5090E0909307018093060180919001815068
S1130C608093900121C040E150E060E070E08EE2AA
S1130C7092E00E941B1F85DD811110C04091080184
S1130C8050E06091090170910A0121E931E08EE29E
S1130C9092E00E94CB1B75DD882329F08EE292E05E
S1130CA00E949F1D01C0C1E08C2FCF910895CF9267
S1130CB0DF92EF92FF920F931F93CF93DF93EC0198
S1130CC01EDFD82E882309F4BFC14091080150E0EB
S1130CD06091090170910A0121E931E08EE292E00C
S1130CE00E94CB1B4EDD882331F08EE292E00E94FD
S1130CF09F1DD12CA9C1EEDEC82E8823E1F081E02E
S1130D0090E09093070180930601688179818A813C
S1130D109B81C09108012C2F30E040E050E00E94FC
S1130D20922820939001C03809F08DC181E080930E
S1130D30AC01DC2C89C18E01075F1F4F6EE270E0AD
S1130D40C8010E94E828FC017C018FEFE81AF80A28
S1130D5093E5ADC02181022E000C330B492F50E0E6
S1130D602417350709F0A2C02281022E000C330B90
S1130D704217530709F09AC02381022E000C330B4B
S1130D804217530709F092C010920701109206010E
S1130D90A0910901B0910A0190589C93A091090176
S1130DA0B0910A0111969C93A0910901B0910A0196
S1130DB012969C9320E023C0822F90E0A801480F54
S1130DC0591F4E175F0788F40396A0910901B0914B
S1130DD00A01AD01480F591FCE01820F911DDC019C
S1130DE019968C91DA018C9309C00396A09109019C
S1130DF0B0910A01A80FB91F80E28C932F5F2830AD
S1130E00D8F240E050E0BA018EE292E00E941B1F4B
S1130E10B8DCF82E882331F08EE292E00E949F1D08
S1130E20DC2C12C1009108010B5010E06091090103
S1130E3070910A01655F7F4F21E931E0A8018EE2DC
S1130E4092E00E94CB1B9DDCE82E882331F08EE2D9
S1130E5092E00E949F1DDF2CF7C080919101909138
S1130E6092010817190739F062E371E081E491E017
S1130E708EDDDE2CE9C088819981AA81BB81BC0109
S1130E80CD01655F7F4F8F4F9F4FC09108012C2F7D
S1130E9030E040E050E00E94922820939001C03856
S1130EA009F0D2C081E08093AC01CEC09F5F9A3537
S1130EB008F450CF20910801203811F41092AC01AD
S1130EC082E090E0909307018093060180E041C0A6
S1130ED0E82FF0E0E455FE4F918191324CF49923D0
S1130EE039F083E090E0909307018093060134C0C9
S1130EF060910601709107016230710549F512C0D5
S1130F00E92FF0E0E455FE4F318531324CF43323C0
S1130F1039F063E070E0709307016093060105C047
S1130F209F5F01C090E0933058F360910601709187
S1130F3007016230710561F4688179818A819B813E
S1130F4030E040E050E00E949228209390017CC061
S1130F508F5F883008F4BCCF422F50E060E070E02F
S1130F608091090190910A010E94E12880E018C053
S1130F709801280F311D2E153F0558F4282F30E015
S1130F80FE01E20FF31F9185F901E455FE4F9183B1
S1130F9006C0E82FF0E0E455FE4F90E291838F5FA6
S1130FA0883030F380E090E018C091110EC0E82F33
S1130FB0F0E03196EE0DFF1D2081222331F0E82F61
S1130FC0F0E0E455FE4F218707C0E82FF0E0E45538
S1130FD0FE4F90E2918391E08F5F833030F380E0A5
S1130FE093E09093BF018093BE01688179818A81E7
S1130FF09B8110910801212F30E040E050E00E94D5
S113100092282F5F20939001103851F488819981A0
S1131010AA81BB819D5F9093C1018093C0010CC0E4
S113102088819981AA81BB8130E0821B930B9D5FEB
S11310309093C1018093C0018FEF9FEF9093C30100
S11310408093C20101C0DC2C8D2DDF91CF911F91C3
S11310500F91FF90EF90DF90CF9008951F93CF935F
S1131060DF93EC0181E8809308018CEA91E090938E
S11310700A018093090188819981AA81BB81803802
S11310809105A105B10578F50E943F28CE01099686
S11310909F938F9384E292E09F938F938FD961E023
S11310A080E00E9437288B818F938A818F93898176
S11310B08F9388818F9386E192E09F938F937ED95B
S11310C02FEF81E19AE7215080409040E1F700C082
S11310D000008DB79EB70A960FB6F8949EBF0FBE58
S11310E08DBF10E037C041E0BE01675F7F4F8EE2E5
S11310F092E00E941F1A45DB182F882331F08EE2FC
S113110092E00E949F1D10E025C021E931E040E1FA
S113111050E06CEA71E08EE292E00E94CB1B31DB7E
S1131120882329F08EE292E00E949F1D13C0409113
S113113091015091920165E072E08CEA91E00E9485
S1131140D328892B21F0CE01B2DD182F03C0CE01A4
S11311501FDD182F812FDF91CF911F9108951F92CA
S11311600F920FB60F9211248F939F9385B18064D1
S113117085B980919301909194018130910521F07A
S113118068F0029799F40AC08BB18D7F8BB982E025
S113119090E0909394018093930108C0109294017D
S11311A01092930115BC16BC10926E0085B18F7B12
S11311B085B99F918F910F900FBE0F901F90189536
S11311C08AB182608AB98BB18D7F8BB984B1806416
S11311D084B985B18F7B85B908950F931F93CF93FD
S11311E0DF93EC0110929D0139DF882309F4EFC0ED
S11311F0209106013091070140919001609108010E
S1131200CE0109964EDB10922D0281E00BC0E82F2F
S1131210F0E0E455FE4F9081EDE2F2E02081920F80
S113122090838F5F813898F38091AC01813039F0DD
S113123018F08F3FD1F016C000E717E121C02091CC
S1131240060130910701A901455051094230510569
S113125078F02115310579F02130310579F400E772
S113126017E10EC000EA10E00BC000EB14E108C067
S113127000E717E105C000E717E102C000EA10E04B
S113128073DB8091930190919401892BD1F7C0E095
S1131290D0E004C081E090E0D2DB2196C017D107F2
S11312A0CCF380E090E0CBDBC0E007C0EC2FF0E0B3
S11312B0E455FE4F8081ECDBCF5FC238B8F38091F8
S11312C09D01882341F010929D0168E471E085E559
S11312D091E05DDB78C080910601909107019C014B
S11312E0255031092230310520F0009711F0019783
S11312F031F49091AC0180919001981721F0809184
S1131300AC018F3F69F480E090E099DB8091930118
S113131090919401892BD1F78BB182608BB953C022
S11313204091080150E06091090170910A0121E99E
S113133031E08EE292E00E94CB1B23DA882331F065
S11313406FE571E08EE691E022DB3DC080910801FB
S1131350482F50E020919101309192014217530798
S113136031F062E371E081E491E011DB2CC080385C
S1131370C9F4ECEAF1E080818F5F808390E02091F2
S1131380900130E0215031098217930759F480917C
S1131390060190910701009729F0019719F08FEF4A
S11313A08093AC018091060190910701069709F0A2
S11313B02ACF8091AC018F3F09F025CF8091900115
S11313C08093AC0120CF8EE292E00E949F1DDF91BA
S11313D0CF911F910F9108958DE48093B30082E023
S11313E08093B00095E09093B100809370000895CD
S11313F08FEF85B988B98BB9E4E6F0E08081806825
S11314008083808181608083808188608083808103
S11314108260808383B7817F83BF85B7806685BF01
S11314208F7D85BF83B7816083BF0895CF93DF939A
S113143080918E0190918F01181619064CF5019731
S113144090938F0180938E018BE994E00E94512147
S113145080918E0190918F010297BCF065E771E055
S11314608BE994E00E94E520C2E0D0E007C065E883
S113147074E08BE994E00E946A21219680918E01A8
S113148090918F018C179D0794F785E894E089D992
S1131490DF91CF91089580918E0190918F018F3FBC
S11314A02FE79207F9F0019690938F0180938E01B4
S11314B0029731F465E771E08BE994E00E94E5203E
S11314C080918E0190918F01029764F065E874E039
S11314D08BE994E00E946A2180918E04811102C0FC
S11314E0A5CF089585E894E05CC908951F920F92F2
S11314F00FB60F9211242F933F934F935F936F93E3
S11315007F938F939F93AF93BF93EF93FF9327D1D1
S113151080919C0180FF0CC080919E0180FD08C0D9
S113152080919C018E7F80939C0181E080939D013A
S113153080919C0181FF13C080919C018D7F8093D9
S11315409C0180919E0181FD0AC080919E0182FFD1
S113155006C081E090E090938D0180938C0180918E
S11315609C0182FF13C080919C018B7F80939C011E
S113157080919E0182FD0AC080919E0181FF06C078
S113158082E090E090938D0180938C0113D8FF91B9
S1131590EF91BF91AF919F918F917F916F915F91E7
S11315A04F913F912F910F900FBE0F901F90189560
S11315B01FDF8CE00E94542882E498E29093870114
S11315C0809386010E946902FBDD1BDA05DF7894B3
S11315D041E064E571E082E592E00E94D2199093C3
S11315E0510280935002009751F090D82FEF84E37A
S11315F09CE0215080409040E1F700C000008091C1
S1131600500290915102892B19F76DE070E08FE937
S113161091E00E94161E8FEF9FEF90938F018093AD
S11316208E0139DF80918C0190918D01813091057B
S113163019F0029739F00BC0F9DE10928D01109267
S11316408C0105C028DF10928D0110928C018091CD
S11316509D01882309F447C080918E0190918F01E8
S1131660009719F0019729F016C085E894E0D6D9BF
S113167038C084E791E00E94BC1D6DE070E08FE902
S113168091E00E94161E8FEF9FEF90938F0180933D
S11316908E0101DF26C080918D0484FF12C08EE884
S11316A094E00E94BC1D6DE070E08FE991E00E941F
S11316B0161E8FEF9FEF90938F0180938E01EBDEC8
S11316C010C080918E04882361F085E894E085DD64
S11316D08091930190919401892BD1F785E894E04E
S11316E060D810929D0188959DCF811103C00C9400
S11316F07723089581E00895811103C00C94A222F8
S1131700089581E008950F931F93FB01811107C091
S1131710BA01A901CF0198010E947A2302C084E092
S113172090E01F910F9108950F931F93FB01811176
S113173007C0BA01A901CF0198010E94C72302C0C2
S113174084E090E01F910F910895811105C0862FC8
S1131750BA010C943324089584E090E008950C9425
S1131760B4270895FC01218130E0322F22278081A3
S1131770A901482BCA010895FC016381862F90E0DA
S1131780A0E0B0E0BA2FA92F982F88272281822BBE
S1131790BA2FA92F982F88272181822BBA2FA92FFE
S11317A0982F88272081BC01CD01622B0895FC016C
S11317B0608371830895FC01408351836283738342
S11317C00895DC01FB014115510549F080818C939A
S11317D0415051091196319641155105B9F70895B3
S11317E0FC01608341505109319641155105C9F7F7
S11317F00895CF93DF93DC01FB01ED0121968C91D9
S113180090E0BF016F5F7F4F2081821B910941509F
S1131810510921F0DE01FB01009779F3DF91CF91AB
S11318200895FC0101C031968081882339F0282F66
S1131830082E000C330B26173707A9F7082E000CC7
S1131840990B08950F931F93FC019A01AB01225049
S11318503109410951098789908DA18DB28D029773
S1131860A109B109281739074A075B0768F4A1855C
S1131870B2850E94C92803A514A525A536A5600F25
S1131880711F821F931F03C060E070E0CB011F91A2
S11318900F910895CF92DF92EF92FF920F931F93CF
S11318A0CF93DF938C01EB01CB014A965BDF6C0194
S11318B0E12CF12CF8018081833061F4CE0144964F
S11318C051DFA0E0B0E0DC0199278827C82AD92A93
S11318D0EA2AFB2AC701B601DF91CF911F910F912C
S11318E0FF90EF90DF90CF900895CF92DF92EF9228
S11318F0FF920F931F93CF93DF938C01EB01690148
S11319007A01B901CE014A9652DFF8018081833011
S113191031F4B70188279927CE01449648DFDF9137
S1131920CF911F910F91FF90EF90DF90CF9008958A
S11319300F931F93CF93DF93EC01FB0111868E89E4
S11319409F89A88DB98D892B8A2B8B2B09F441C0D3
S1131950E0E0F0E020E030E01EC0AA8DBB8DA901DC
S11319604F5F5F4FA20FB31F9C91903299F0953057
S113197009F495EE4930510539F4DB01AE0FBF1F70
S11319808EE219968C933196DB01AE0FBF1F199628
S11319909C9331969A012B303105F8F28B01E60FB6
S11319A0F71F1186EA8DFB8D8385FB0180878A8D65
S11319B09B8D4C96E1DEF80160837183828393836F
S11319C08A8D9B8D4696D8DEF8017783668395834E
S11319D08483DF91CF911F910F9108954F925F926D
S11319E06F927F928F929F92AF92BF92CF92DF922B
S11319F0EF92FF920F931F93CF93DF935C013B0110
S1131A00FB01C081D1816C01FCE1CF0ED11C4BE004
S1131A1050E060E270E0C601E3DE88818E3281F539
S1131A2040E050E080E090E09C012F5F3F4FFE01DA
S1131A30E80FF91F80818E3259F42330310540F4C8
S1131A40F601E40FF51F8083C9014F5F5F4FECCFB0
S1131A508F3229F08C3519F0813208F081C0C20F21
S1131A60D31FF301D183C083813210F484E201C017
S1131A7080E2F50187A380E090E083C0C80108C03C
S1131A80E12CF12C80E090E06894882483F8912C78
S1131A908C010F5F1F4FFE01E80FF91F4080542C8B
S1131AA0F0E2F41508F044C08FE2481631F09CE5EA
S1131AB049120CC002C00F5F1F4FFE01E00FF11F5F
S1131AC080818F32C1F38C35B1F332C0EEE24E1611
S1131AD019F0E814F90490F0FBE08F16910409F46E
S1131AE042C08EE2581242C06894EE24E3F8F12C0E
S1131AF00F2EFBE08F2E912CF02DC0CF4420CCF183
S1131B00642D70E087E791E08CDE892BA9F58FE9DD
S1131B10840D8A3128F40F2EF0EE5F2EF02D540C34
S1131B20F601EE0DFF1D5082F70131967F01A6CF1D
S1131B30C00FD11FF301D183C083EF2801F1F50158
S1131B40848D853E11F485E0848FF0E2F51510F064
S1131B5084E001C080E0F50187A380E090E011C03B
S1131B6086E090E00EC086E090E00BC086E090E056
S1131B7008C086E090E005C086E090E002C086E000
S1131B8090E0DF91CF911F910F91FF90EF90DF9044
S1131B90CF90BF90AF909F908F907F906F905F9009
S1131BA04F900895CF93DF93EC01A881B9811097EA
S1131BB029F48FEF9FEF2AC0319601C0FD01908177
S1131BC0913210F09A33C1F79A33A9F4AD014F5F03
S1131BD05F4F2C91022E000C330BC901C0978A3041
S1131BE0910560F4E417F50761F4009769F4319600
S1131BF0F983E8830BC080E090E008C08FEF9FEF8B
S1131C0005C08FEF9FEF02C08FEF9FEFDF91CF9161
S1131C1008950F931F93CF93DF93EC018B01892BCE
S1131C2091F0E881F981309771F08081882359F02F
S1131C30258136818A819B812817390721F4818186
S1131C4054DD80FF06C0F8011182108289E090E023
S1131C5007C088819981F8019183808380E090E0B6
S1131C60DF91CF911F910F9108958F929F92AF9220
S1131C70BF92CF92DF92EF92FF920F931F93CF9375
S1131C80DF93FC012381222309F442C0EC01C7A4A1
S1131C90D0A8E1A8F2A85C01F3E3AF0EB11C01E007
S1131CA010E0A7019601B50189813EDD892B99F5E4
S1131CB01B828BA19CA1ADA1BEA1B701A601481BAB
S1131CC0590B6A0B7B0B8B8D9C8DAD8DBE8D48178C
S1131CD059076A077B0710F58A80912C12C08B8DF7
S1131CE09C8DAD8DBE8DC80ED91EEA1EFB1E01E073
S1131CF010E0A7019601B501898116DD81E0881AFB
S1131D009108E2E08E16910450F780E090E008C05C
S1131D1080E090E005C081E090E002C080E090E0C7
S1131D20DF91CF911F910F91FF90EF90DF90CF90B3
S1131D30BF90AF909F908F9008958F929F92AF9293
S1131D40BF92EF92FF920F931F93CF93DF93EC0117
S1131D504A015B018FA598A9A9A9BAA98417950777
S1131D60A607B707E1F0CE0180DF7C01892BC9F417
S1131D7001E010E0A5019401BE016D5C7F4F8981F3
S1131D80C2DC892B39F0EE24E394F12C88248A9464
S1131D90982C54018FA698AAA9AABAAA02C0E12C29
S1131DA0F12CC701DF91CF911F910F91FF90EF901C
S1131DB0BF90AF909F908F900895CF93DF93EC01E5
S1131DC01B828FEF9FEFDC018FA798ABA9ABBAAB57
S1131DD0CE01B3DF892B31F5CE018F5C9D4FC2DC80
S1131DE085359A4A09F58BA9893E29F08B3EF1F491
S1131DF08DA98039E9F4CE0187599F4FBDDCDC0100
S1131E00CB01BB2786349144A445B10599F0CE019A
S1131E108B579F4FB1DC663471448445934361F41E
S1131E2080E00BC084E009C083E007C082E005C005
S1131E3082E003C080E001C082E0DF91CF91089589
S1131E404F925F926F927F928F929F92AF92BF92C6
S1131E50CF92DF92EF92FF920F931F93CF93DF9372
S1131E60CDB7DEB7A0970FB6F894DEBF0FBECDBFD7
S1131E706B01B42EDB011D921C9294DE7C0199232C
S1131E800CF456C2FC01EE0FFF1FE956FE4F008111
S1131E9011810115110509F44EC2F6011183008365
S1131EA0FB2DFE7FBF2ED8018C91882369F01196FB
S1131EB08C911BDC80FD08C0BB2009F43FC282FD6D
S1131EC040C280E090E06FC2F8011082E1828E2D62
S1131ED013DC80FD39C2BB2011F082FD38C240E022
S1131EE050E0BA01C80169DF823071F1C12CD12CF4
S1131EF0760155C0F701E295F295F07FFE27E07F69
S1131F00FE27E254FE4FC801C396E80FF91F8481EF
S1131F10882321F0CF0108962FDC03C060E070E035
S1131F20CB01F701EE0FFF1FEE0FFF1F21E030E0A2
S1131F302C0F3D1FE20FF31F608371838283938311
S1131F403FEFE31AF30A02C0E12CF12C44E0E4165B
S1131F50F10480F2A12CB12CF501EE0FFF1FEE0F5E
S1131F60FF1F61E070E06C0F7D1FE60FF71FC0805C
S1131F70D180E280F380C114D104E104F10429F09A
S1131F80B701A601C80119DF01C083E0823038F02F
S1131F907FEFA71AB70A94E0A916B104E8F28430D7
S1131FA009F4D8C1823008F0D8C1C801CE96DADB72
S1131FB08115924009F0D4C1C801875B9F4FD2DBE1
S1131FC09C0140E050E0298B3A8B4B8B5C8B232B9C
S1131FD0242B252B41F4C801895A9F4FCDDB698BF3
S1131FE07A8B8B8B9C8B49895A896B897C89D80124
S1131FF05B964D935D936D937C935E97F801ED5BD7
S1132000FF4FA081F801A2838FEF8A0F823008F07E
S1132010AAC1B0E09A01AB010E94C928698F7A8FE6
S11320208B8F9C8FE05CFF4FA080B12CD8011A9657
S1132030BC92AE921997A114B10409F497C1C501D9
S113204001978A219B21892B09F093C1C8018C5BDC
S11320509F4F88DB4C01F801908787838F70992705
S1132060892B09F089C1C8018A5B9F4F7BDB2C0156
S1132070612C712C411451046104710431F4C801C0
S11320808D5A9F4F79DB2B013C01C8018F5B9F4F19
S113209069DB009709F473C19C0140E050E02D8F87
S11320A03E8F4F8F58A3898D9A8DAB8DBC8D820F37
S11320B0931FA41FB51F9401329522952F702327D7
S11320C03F702327AC01BD01420F531F611D711DD9
S11320D04D8B5E8B6F8B788F44165506660677069C
S11320E008F450C1C301B2012D893E894F89588D2E
S11320F0621B730B840B950B950140E050E00E942A
S11321009228DA01C901211531054105510509F467
S11321103CC1263F6FEF36074105510528F00F2ECD
S1132120F3E0BF2EF02D03C06894BB24B1F8863FC2
S11321309F40A105B10510F4BB24B39429013A01D1
S113214082E0480E511C611C711CD80157964D92B7
S11321505D926D927C925A97F801C78ED0A2E1A24B
S1132160F2A28D8D9E8DAF8DB8A18C0D9D1DAE1DDF
S1132170BF1D83A394A3A5A3B6A34D895E896F89CC
S1132180788D4C0D5D1D6E1D7F1D43A754A765A75B
S113219076A7F3E0BF121EC0C801835A9F4FE2DA4C
S11321A0892B09F0F5C0892809F0F5C0C801815AC6
S11321B09F4FE2DAD80197966D937D938D939C930C
S11321C09A97440C551C661C771C440C551C661CC1
S11321D0771C2DC0892809F4E1C0298D3A8D4B8DD7
S11321E05C8D820F931FA41FB51FF80187A390A7CE
S11321F0A1A7B2A7F2E0BF1205C0440C551C661C8F
S1132200771C15C0A3E0B0E0A30192010E94C92885
S1132210DC01CB01B695A7959795879521E04222DD
S1132220552466247724480E591E6A1E7B1E3FEFF0
S1132230430E31E0531E611C711C032E39E0769469
S11322406794579447943A95D1F7302D49895A8920
S11322506B897C89441555056605770508F4A1C08A
S11322608FEF9FEFDC01F8018787908BA18BB28BF6
S113227083879487A587B68780E88483F3E0BF12B9
S113228040C0C8018D599F4F6DDA019709F039C0DC
S1132290B701A6014F5F5F4F6F4F7F4FC8014DDD00
S11322A0892B79F5D80114961C92C8018F5C9D4F37
S11322B059DA85359A4A29F5C801C3965DDA62353B
S11322C0724581469144E9F4C801895E9D4F54DA10
S11322D06237724781449146A1F4C801855E9D4FDF
S11322E04BDAD8011F966D937D938D939C935297EF
S11322F0C801815E9D4F40DAF80163877487858742
S11323009687D801BC92809195019091960101968F
S1132310909396018093950116969C938E931597AE
S1132320F801138A148A158A168A80E090E03BC06B
S11323308BE090E038C08CE090E035C080E090E025
S113234032C08AE090E02FC083E090E02CC08AE0A5
S113235090E029C081E090E026C08DE090E023C0A9
S11323608DE090E020C08DE090E01DC08DE090E015
S11323701AC08DE090E017C08DE090E014C08DE0AD
S113238090E011C08DE090E00EC08DE090E00BC0B5
S11323908DE090E008C08DE090E005C08DE090E015
S11323A002C08DE090E0A0960FB6F894DEBF0FBE99
S11323B0CDBFDF91CF911F910F91FF90EF90DF90F0
S11323C0CF90BF90AF909F908F907F906F905F90D1
S11323D04F9008952F923F924F925F926F927F9207
S11323E08F929F92AF92BF92CF92DF92EF92FF9221
S11323F00F931F93CF93DF9300D000D0CDB7DEB7F8
S1132400423051056105710508F4EDC0FC01C7882F
S1132410D08CE18CF28C4C155D056E057F0508F0BF
S1132420E5C0280139016A017B019C838B8380818B
S1132430823009F475C0833009F498C0813009F002
S1132440D8C04A0196948794840E951E43A154A142
S113245065A176A1C401892F99278695480F591F34
S1132460611D711DCF0169DC8C01892B09F0C3C08A
S11324702B803C80F3E32F0E311C94012F5F3F4FE0
S11324803A83298331E09322F101E80DF91D4601D5
S1132490570181E088229924AA24BB24C0FE08C0E5
S11324A0208130E1439EC00111242F70822B01C092
S11324B0842D808381E0EB81FC81838343A154A13B
S11324C065A176A189819A81892F99278695480FDC
S11324D0591F611D711DCF0130DC8C01892B09F05E
S11324E08AC089819A819170F101E80FF91F8928C6
S11324F08A288B2849F0689413F876946794579443
S113250047941694D1F706C09081907F852D8F70E3
S1132510492E482A408281E0EB81FC8183836BC091
S1132520EB81FC8143A154A165A176A1BB27AF2D0A
S11325309E2D8D2D480F591F6A1F7B1FCF01FDDB78
S11325408C01892B09F057C02B813C812D5C3F4FB6
S1132550CC0CDD1CC6018E7F9170B201820F931FDB
S113256026D981E0EB81FC81838345C0EB81FC812A
S113257043A154A165A176A1D701C601689416F8B8
S1132580B695A795979587951694D1F7480F591F37
S11325906A1F7B1FCF01D1DB8C01892B61F5FFE022
S11325A07F228B819C81C396CC0CDD1CCC0CDD1C62
S11325B02CEFC22221E0D222C80ED91EC601DCD8DB
S11325C0DC01CB0188279927AA27B07FB301A20198
S11325D0482B592B6A2B7B2BC601EDD881E0EB816C
S11325E0FC81838308C002E010E005C002E010E033
S11325F002C002E010E0C8010F900F900F900F90FE
S1132600DF91CF911F910F91FF90EF90DF90CF90CA
S1132610BF90AF909F908F907F906F905F904F90FE
S11326203F902F900895AF92BF92CF92DF92EF9296
S1132630FF920F931F93CF93DF93FC01C081D1814D
S1132640423051056105710508F4A4C08F89988D45
S1132650A98DBA8D481759076A077B0708F09FC0F0
S11326606A017B018881823009F450C0833009F407
S11326706CC0813009F098C08A0116950795040F43
S1132680151F4BA15CA16DA17EA1C801892F9927BB
S11326908695480F591F611D711DCE014EDB892B94
S11326A009F087C05801FFEFAF1ABF0A1170FE018D
S11326B0E00FF11F03A910E04BA15CA16DA17EA165
S11326C0C501892F99278695480F591F611D711DD2
S11326D0CE0133DB892B09F070C081E0B822CA0D2A
S11326E0DB1D6BA970E0762F6627602B712BC0FE73
S11326F009C0729562956F7067277F70672780E0C5
S113270090E066C07F7080E090E062C04BA15CA165
S11327106DA17EA1BB27AF2D9E2D8D2D480F591F76
S11327206A1F7B1FCE0109DB892B09F04AC0CE0149
S1132730C396A601440F551F4E7F5170840F951FF9
S113274011D8BC0180E090E043C04BA15CA16DA115
S11327507EA1D701C601689416F8B695A7959795FA
S113276087951694D1F7480F591F6A1F7B1FCE0116
S1132770E4DA892B51F5E396A601440F551F440F63
S1132780551FCA018C7F91708C0F9D1F0E94BC0B3A
S11327909F701EC061E070E080E090E019C061E0CD
S11327A070E080E090E014C061E070E080E090E0D0
S11327B00FC06FEF7FEFCB010BC06FEF7FEFCB014B
S11327C007C06FEF7FEFCB0103C06FEF7FEFCB014B
S11327D0DF91CF911F910F91FF90EF90DF90CF90F9
S11327E0BF90AF9008954F925F926F927F928F92B5
S11327F09F92AF92BF92CF92DF92EF92FF920F938C
S11328001F93CF93DF93EC016A017B010881198147
S11328104115510580E26807710508F0ACC0DB0181
S1132820CA018F719927AA27BB27892B8A2B8B2B47
S113283009F0A4C04E875F87688B798B8E809F8058
S1132840A884B98481149104A104B10441F4F80169
S11328508081833020F087A090A4A1A4B2A4811425
S11328609104A104B104F1F4F80187819085A0E0FA
S1132870B0E0B701A601689414F87695679557956A
S113288047951694D1F7481759076A077B0708F04C
S113289078C087A190A5A1A5B2A58E8B9F8BA88F88
S11328A0B98F3FC0F80141845284612C712C032EEE
S11328B039E0440C551C661C771C3A95D1F7302D31
S11328C022C0B501A401CE01AEDE4B015C016F3F15
S11328D07F4F8F4F9F4F09F457C082E088169104B1
S11328E0A104B10408F453C0F8018789908DA18D27
S11328F0B28D88169906AA06BB0608F04BC0C41808
S1132900D508E608F708C414D504E604F704C8F6A5
S1132910B501A401C8010E94220C6E8B7F8B888FA5
S1132920998F8A8A9B8AAC8ABD8A8E899F89A88D51
S1132930B98D0097A105B10581F1B701A601032E58
S113294039E076956795579547953A95D1F7302DA7
S1132950840F951FA61FB71F8E8B9F8BA88FB98FCF
S11329600D5C1F4FF1E0DF22C00ED11EDB8ECA8E3C
S113297080E090E014C082E090E011C082E090E03A
S11329800EC082E090E00BC081E090E008C082E0DD
S113299090E005C082E090E002C082E090E0DF9128
S11329A0CF911F910F91FF90EF90DF90CF90BF9048
S11329B0AF909F908F907F906F905F904F9008950D
S11329C04F925F926F927F928F929F92AF92BF923B
S11329D0CF92DF92EF92FF920F931F93CF93DF93E7
S11329E08C012A013B01FC01C081D18141155105B3
S11329F06105710599F48B849C84AD84BE84811433
S1132A009104A104B10429F18F89988DA98DBA8DFF
S1132A1088169906AA06BB0608F524C004DE6230AF
S1132A2071058105910508F496C06F3FFFEF7F079C
S1132A308F079F0709F494C0CF88D88CE98CFA8C4F
S1132A406C157D058E059F0508F48EC05301420167
S1132A5009C0812C912C5401839404C0812C912CA5
S1132A6054018394750164012FEFC21AD20AE20A59
S1132A70F20A8F89988DA98DBA8DC816D906EA06EF
S1132A80FB0660F082E088169104A104B10408F406
S1132A906FC0C12CD12C76016894C1F8B701A6018E
S1132AA0C801C1DD611571058105910599F0613099
S1132AB071058105910509F460C06F3FEFEF7E0752
S1132AC08E079E0709F45DC0C814D904EA04FB0408
S1132AD059F65BC00FEF1FEF9801B701A601CE01B5
S1132AE079DC009759F4411451046104710431F004
S1132AF097018601B301A201CE016CDC009721F598
S1132B00CB86DC86ED86FE868F859889A989BA896D
S1132B104F89588D698D7A8D425051096109710927
S1132B20481759076A077B0738F00197A109B109CB
S1132B308F87988BA98BBA8B8C8181608C834C2D69
S1132B403D2D2E2D9F2D2AC0019721F54FEF3FEFEC
S1132B502FEF9FEF23C041E030E020E090E01EC063
S1132B60462F372F282F1AC0462F372F282F16C04D
S1132B7040E030E020E090E011C0462F372F282FAE
S1132B800DC0462F372F282F09C040E030E020E049
S1132B9090E004C041E030E020E090E0642F732F27
S1132BA0822FDF91CF911F910F91FF90EF90DF90D3
S1132BB0CF90BF90AF909F908F907F906F905F90D9
S1132BC04F9008954F925F926F927F92AF92BF920F
S1132BD0CF92DF92EF92FF920F931F93CF93DF93E5
S1132BE05C016A017B01B901A801FC01C081D181AA
S1132BF0F2E0CF16D104E104F10408F461C08F8936
S1132C00988DA98DBA8DC816D906EA06FB0608F078
S1132C105AC0012B022B032B41F00FEF1FEF980139
S1132C20CE01D8DB009709F059C0B701A601C50150
S1132C30FADC2B013C01611571058105910509F44C
S1132C4045C0613071058105910509F442C08FEFDB
S1132C50481658066806780609F43EC000E010E0FD
S1132C609801B701A601CE01B5DB0097B9F58F85B0
S1132C709889A989BA894F89588D698D7A8D6A0195
S1132C807B01E2E0CE1AD108E108F1088C159D051C
S1132C90AE05BF0550F40196A11DB11D8F87988B19
S1132CA0A98BBA8B8C8181608C8373016201441679
S1132CB055066606770608F4B8CF80E090E00EC0AB
S1132CC082E090E00BC082E090E008C080E090E0F9
S1132CD005C082E090E002C081E090E0DF91CF91F6
S1132CE01F910F91FF90EF90DF90CF90BF90AF9026
S1132CF07F906F905F904F9008954F925F926F9284
S1132D007F92AF92BF92CF92DF92EF92FF920F9396
S1132D101F93CF93DF93EC0108811981CE84DF8464
S1132D20E888F98820E2C20ED11CE11CF11C8E89CE
S1132D309F89A88DB98D0097A105B10509F4F8C044
S1132D40C114D104E0E2EE06F10408F0F4C05B0122
S1132D50B701A601517066277727452B462B472BD1
S1132D6009F0D7C00196A11DB11D8E8B9F8BA88F32
S1132D70B98F4A895B896C897D8941155105610543
S1132D807105E1F4F80187819085A0E0B0E0B70116
S1132D90A601689414F87695679557954795169407
S1132DA0D1F7481759076A077B0708F4B2C01E8A8F
S1132DB01F8A188E198E84E090E0D4C0F8018185B2
S1132DC0928501972C01612C712CD701C601072E25
S1132DD079E0B695A795979587957A95D1F7702D53
S1132DE084219521A621B721892B8A2B8B2B09F0CD
S1132DF090C0CE0118DC2B013C01623071058105C5
S1132E00910508F49BC06F3F7F4F8F4F9F4F09F48C
S1132E1098C0F8018789908DA18DB28D4816590606
S1132E206A067B0608F468C0AB2839F41E8A1F8A38
S1132E30188E198E84E090E095C04A895B896C896C
S1132E407D89CE01BDDD2B013C0161157105810534
S1132E50910509F479C0613071058105910509F482
S1132E6076C06F3F7F4F8F4F9F4F09F473C0C801E7
S1132E700E94350E892B09F070C040E052E060E0FA
S1132E8070E0C801C3960E94F00BB301A201C8010F
S1132E900E94220CF80167A770AB81AB92ABA12C06
S1132EA0B12C18C081E0F8018383C8010E94350E5B
S1132EB0892B09F055C0FFEFAF1ABF0AF80187A5A7
S1132EC090A9A1A9B2A90196A11DB11D87A790AB94
S1132ED0A1ABB2ABF80181859285A816B90610F3AF
S1132EE087A590A9A1A9B2A98A199B09A109B10929
S1132EF087A790ABA1ABB2AB4A8A5B8A6C8A7D8A06
S1132F00B301A201C8010E94220C6E8B7F8B888FB3
S1132F10998FCE86DF86E88AF98A0D5C1F4FF1E02F
S1132F20DF22C00ED11EDB8ECA8E80E090E01AC074
S1132F3084E090E017C084E090E014C082E090E068
S1132F4011C081E090E00EC087E090E00BC082E009
S1132F5090E008C081E090E005C081E090E002C00C
S1132F6081E090E0DF91CF911F910F91FF90EF905E
S1132F70DF90CF90BF90AF907F906F905F904F9015
S1132F800895EF92FF920F931F93CF93DF93EC0179
S1132F90E880F98040E050E0BA0125DC009769F54B
S1132FA04E895F89688D798DC7010E949D0E8C01C1
S1132FB00097E1F4EA8DFB8D80818823C9F0838535
S1132FC08F738C83838583FD0AC04BE050E0BE0180
S1132FD0645E7F4FCF010E94F90B892B61F060E0A2
S1132FE070E0CE018ADE0097D9F207C0912F05C0A8
S1132FF084E090E002C0802F912FDF91CF911F9148
S11330000F91FF90EF900895CF92DF92EF92FF928D
S11330100F931F93CF93DF9300D0CDB7DEB78C010E
S1133020FB017A836983DC01ED90FC9080818F320F
S113303081F08C3571F0F70183899489A589B6896B
S1133040F80186839783A087B18711C03196FA83EC
S1133050E983E981FA8180818F32C1F38C35B1F340
S1133060D80116961D921D921D921C921997E98102
S1133070FA818081803250F480E8F80187A340E02F
S113308050E0BA01C801AFDB6C014BC0BE016F5FF9
S11330907F4FC8010E94EE0C6C01892B09F041C0DE
S11330A0C8016FDFD80197962C919797009779F014
S11330B08430910539F525FF06C022FFE7CF80E86B
S11330C097968C932EC022FF1FC06C012AC022FD4C
S11330D021C0F801848184FF1FC086859785A0895B
S11330E0B1899170B7016D5C7F4F680F791FC7017B
S11330F00E944A0CD80116966D937D938D939C93F0
S11331001997C4CF6C010DC00F2EF5E0CF2ED12C32
S1133110F02D07C06C0105C00F2EF5E0CF2ED12C89
S1133120F02DC6010F900F90DF91CF911F910F9159
S1133130FF90EF90DF90CF900895CF92DF92EF92BF
S1133140FF920F931F93CF93DF93EC016B01E88001
S1133150F98040E050E0BA0146DB009701F500E059
S113316010E04E895F89688D798DC7010E949D0E9C
S11331700097A9F4EA8DFB8D2081253E11F02111E1
S113318006C00F5F1F4F0C151D0519F408C000E0A1
S113319010E061E070E0CE01B0DD009711F38430FF
S11331A0910511F487E090E0DF91CF911F910F9189
S11331B0FF90EF90DF90CF900895EF92FF920F93DE
S11331C01F93CF93DF93EC01E880F98061E070E016
S11331D0B4DF8C01892BF1F44E895F89688D798D78
S11331E0C7010E949D0E8C01892BA1F440E250E09E
S11331F060E070E08A8D9B8D0E94F00BBE01645EDE
S11332007F4F4BE050E08A8D9B8D0E94E10B81E063
S1133210F7018383C801DF91CF911F910F91FF9034
S1133220EF900895EF92FF920F931F93CF93DF9344
S1133230EC017B010881198184E090E025C0C8017C
S11332400E949D0E009761F5EA8DFB8D308133233A
S113325029F123852F732C83353E81F03E3271F0A2
S11332602F3061F030E02F7D41E050E0283031050F
S113327011F040E050E04E155F0591F060E070E021
S1133280CE013BDD009761F44E895F89688D798DAD
S1133290411551056105710591F602C084E090E085
S11332A0009721F01E8A1F8A188E198EDF91CF9104
S11332B01F910F91FF90EF900895CF92DF92EF92BC
S11332C0FF920F931F93CF93DF93EC010E94350E6F
S11332D07C01892B09F05CC08881833009F04DC0E2
S11332E08C81813009F049C040E052E060E070E038
S11332F06E0183E3C80ED11CC6010E94F00B65E584
S11333007AEACE018F5C9D4F0E94D70B42E552E5CD
S113331061E671E4C6010E94DB0B42E752E761E417
S113332071E6CE01895E9D4F0E94DB0B4F85588963
S113333069897A89CE01855E9D4F0E94DB0B4B859E
S11333405C856D857E85CE01815E9D4F0E94DB0B81
S11333508F8D98A1A9A1BAA19C01AD012F5F3F4F08
S11333604F4F5F4F2FA738AB49AB5AAB01E010E08A
S1133370B60189810E94940B1C8240E050E060E019
S113338089810E94A50B892B19F0EE24E394F12C7A
S1133390C701DF91CF911F910F91FF90EF90DF90C4
S11333A0CF9008951F93CF93DF9300D000D000D027
S11333B0CDB7DEB79C838B837E836D83142F7A8392
S11333C06983CE0101960E94D20D992334F1FC0148
S11333D0EE0FFF1FE956FE4F0190F081E02D30976C
S11333E009F01082EB81FC81309709F010822B8167
S11333F03C81880F991FFC01E956FE4F31832083DD
S1133400232B71F0113079F440E0BE016D5F7F4FE2
S1133410CE0105960E94200F08C08BE090E005C005
S113342080E090E002C080E090E026960FB6F89429
S1133430DEBF0FBECDBFDF91CF911F9108952F92B4
S11334403F924F925F926F927F928F929F92AF9230
S1133450BF92CF92DF92EF92FF920F931F93CF937D
S1133460DF93CDB7DEB7AC970FB6F894DEBF0FBECF
S1133470CDBF7CA76BA7009709F46FC1F42E1C0184
S1133480842F8F73782E482FBE01675D7F4FCE0146
S11334908B960E94200F8C01892B09F055C189A5B8
S11334A09AA59A8389836BA57CA5CE010196ACDD90
S11334B08C01892B29F488A5882314F406E010E0F4
S11334C08F2D8C7109F479C00115110559F0043060
S11334D0110521F4CE01019670DE8C01E72DE86020
S11334E07E2E0BC08D81817119F4F2FC04C005C0DD
S11334F007E010E002C008E010E00115110509F032
S11335006CC073FE6AC08B8D9C8D40E050E061E21C
S113351070E00E960E94DB0B8B8D9C8D40E050E09A
S113352061E270E046960E94DB0BEB8DFC8D80E23D
S11335308387CB8CDC8CE9A4FAA4B601C7010E9472
S11335404A0C4B015C0120E030E0A901B601C7013F
S11335500E94750C8B8D9C8D40E050E0BA014C9616
S11335600E94DB0BE9A5FAA581E083838114910411
S1133570A104B10491F1C7A4D0A8E1A8F2A800E085
S113358010E09801B501A401CE0101961BDB8C016A
S1133590892B19F5B701A60189A59AA50E949D0E4C
S11335A08C01E9A5FAA581E0881A9108A108B1085F
S11335B083869486A586B68610C00115110569F424
S11335C08D8184FD05C0F1FE08C080FD04C005C0E6
S11335D004E010E002C007E010E001151105A1F4B9
S11335E073FE03C0E72DE0647E2EE9A5FAA587A546
S11335F090A9A1A9B2A9F101848F958FA68FB78F45
S11336008B8D9C8D91A380A30115110509F09CC09D
S1133610AB8CBC8C49A45AA4B501C2010E944A0CCB
S11336206B017C01F1016683778380879187C501F3
S11336304C960E94BC0B4B015C01F10162877387BD
S11336408487958751824082F20185819681F101B8
S11336509383828376861786108E118E128E138E34
S1133660108A118A128A138A75FE6EC0811491041D
S1133670A104B10409F468C0808A918AA28AB38A39
S1133680F20141845284612C712C032E39E0440CE4
S1133690551C661C771C3A95D1F7302D1AC0B7011A
S11336A0A601C1010E9413136B017C0162307105F4
S11336B08105910510F402E010E08FEFC816D806DA
S11336C0E806F80611F401E010E084189508A6084D
S11336D0B7080115110529F4481459046A047B0438
S11336E0F0F2F101C48AD58AE68AF78A0115110538
S11336F059F5D501C4019170AA27BB27892B8A2BC0
S11337008B2B11F1B701A60189A59AA50E94220C61
S11337106115710581059105A9F0072E79E0B6942C
S1133720A794979487947A95D1F7702DDC01CB01F7
S1133730880D991DAA1DBB1DF101808F918FA28F49
S1133740B38F02C002E010E00115110549F0F10148
S113375011821082802F912F05C089E090E002C071
S1133760802F912FAC960FB6F894DEBF0FBECDBF5D
S1133770DF91CF911F910F91FF90EF90DF90CF9049
S1133780BF90AF909F908F907F906F905F904F907D
S11337903F902F9008952F923F924F925F926F9295
S11337A07F928F929F92AF92BF92CF92DF92EF92CD
S11337B0FF920F931F93CF93DF93CDB7DEB7289774
S11337C00FB6F894DEBF0FBECDBF7C013B015A019A
S11337D04901F901118210828D83FE82BE016F5F5F
S11337E07F4F0E94090E009709F035C1F701278524
S11337F030E02115310509F029C1868580FF29C1F2
S113380082859385A485B5854089518962897389A8
S1133810841B950BA60BB70BA50160E070E0841721
S11338209507A607B70708F00AC15C0108C1F701AC
S113383080899189A289B389AC01BD015170662741
S11338407727452B462B472B09F0B0C0E981FA8135
S11338500185128501501109AC01BD01032E39E027
S113386076956795579547953A95D1F7302D04236A
S113387015230115110569F5892B8A2B8B2B31F43E
S1133880F701668177818085918509C0F7014489B4
S11338905589668977898D819E810E9413136230D0
S11338A071058105910528F482E0F701878790E08E
S11338B0D2C06F3FFFEF7F078F079F0729F481E096
S11338C0F701878790E0C7C0F701648B758B868BFF
S11338D0978BF701448955896689778989819A810B
S11338E09C838B830E94220C6115710581059105CF
S11338F029F482E0F701878790E0ADC01B012C0119
S1133900200E311E411C511C6501CD2CDD24C694B2
S1133910C114D10409F445C0EB81FC8121853285B1
S1133920C8018C0D9D1D2817390718F46901C01AA8
S1133930D10A8601A2019101B301EB81FC8181814D
S11339400E94830B892B29F081E0F701878790E09F
S113395082C0E981FA8183818823F9F087A590A93F
S1133960A1A9B2A982199309A409B509A60160E025
S113397070E084179507A607B70778F4BF016D5C5C
S11339807F4FF82FFF0FF8871F8240E052E08F81AE
S11339909885860D971D0E94E10BDC2CCC24DD0C50
S11339A036C0F701208E318E428E538EF701808906
S11339B09189A289B389917020E032E06901C81A23
S11339C0D90AAC14BD0408F46501F701408D518D8A
S11339D0628D738D89819A810E949D0E892B29F0B5
S11339E081E0F701878790E036C089819A819C0144
S11339F02D5C3F4FF70180899189A289B389917029
S1133A00B901680F791FA601C3010E94E10B6C0C78
S1133A107D1CF70180899189A289B3898C0D9D1D34
S1133A20A11DB11D808B918BA28BB38BF40180817E
S1133A3091818C0D9D1D91838083AC18BD08A114C8
S1133A40B10409F0F4CE80E090E005C0822F932FFA
S1133A5002C087E090E028960FB6F894DEBF0FBE50
S1133A60CDBFDF91CF911F910F91FF90EF90DF9029
S1133A70CF90BF90AF909F908F907F906F905F900A
S1133A804F903F902F900895EF92FF920F931F93C2
S1133A90CF93DF9300D0CDB7DEB78C01BE016F5F4B
S1133AA07F4F0E94090E009709F040C0F801268557
S1133AB026FF3CC0448D558D668D778D89819A8112
S1133AC00E949D0E009791F5F801E0A0F1A0F70186
S1133AD0838580628387F8012681378140855185FB
S1133AE0B701808191810E94750CF801428553854C
S1133AF064857585C7014C960E94DB0B40E050E05D
S1133B0061E270E0C70146960E94DB0B60E070E062
S1133B10C70142960E94D70B89819A8121E0FC015A
S1133B202383CBDBF80126852F7B26870F900F900C
S1133B30DF91CF911F910F91FF90EF9008950F9314
S1133B401F93CF93DF9300D0CDB7DEB78C019CDFFA
S1133B50009759F4BE016F5F7F4FC8010E94090EA0
S1133B60009719F4F801118210820F900F90DF91E1
S1133B70CF911F910F910895EF92FF920F931F938E
S1133B80CF93DF93CDB7DEB7AC970FB6F894DEBF13
S1133B900FBECDBF9CA78BA740E0BE01675D7F4FE2
S1133BA0CE018B960E94200F8C01892B89F589A563
S1133BB09AA59A8389836BA57CA5CE01019624DA04
S1133BC08C01892B01F588A588235CF4E9A5FAA565
S1133BD08F819885A985BA85838B948BA58BB68BA9
S1133BE012C08D8184FF0DC06B8D7C8DE9A4FAA475
S1133BF0C7010E944A0CF701638B748B858B968BEB
S1133C0002C005E010E00430110511F405E010E0F5
S1133C10C801AC960FB6F894DEBF0FBECDBFDF91DE
S1133C20CF911F910F91FF90EF9008958F929F92E3
S1133C30AF92BF92CF92DF92EF92FF920F931F93B6
S1133C40CF93DF93CDB7DEB7C254D1090FB6F89442
S1133C50DEBF0FBECDBF23969FAF8EAF23976B0100
S1133C60FC01108240E0BE01675D7F4FCE018F5B97
S1133C709F4F0E94200F8C01892B09F0C7C0E9A532
S1133C80FAA5FA83E98383899489A589B6898F8300
S1133C909887A987BA8776018CC040E250E060E03B
S1133CA070E0CE0101960E94F3138C01892B09F078
S1133CB08DC04F89588D698D7A8D89A59AA50E94EA
S1133CC09D0E8C01892B09F081C06B8D7C8D89A59B
S1133CD09AA50E944A0C6F83788789879A8740E067
S1133CE050E0BA01CE0101960E94F3138C01892B96
S1133CF009F06CC060E070E0CE01019693DA8C01AB
S1133D00892BA1F46B8D7C8D89A59AA50E944A0C00
S1133D1086169706A806B90649F060E070E0CE0161
S1133D2001960E947D168C01892B21F30430110524
S1133D3011F402E010E00115110509F047C0BE01BD
S1133D40655D7F4FCE0101960E94980C80E090E063
S1133D5001C00196E4E3F0E0EC0FFD1FE80FF91F4A
S1133D6020812111F6CF9C012D5F3F4FE216F3060F
S1133D7098F42AC0F1E0EF1AF1082396EEADFFADF6
S1133D802397EE0DFF1D0197A4E3B0E0AC0FBD1F18
S1133D90A80FB91F2C912083009761F721E0E21A44
S1133DA0F1082396EEADFFAD2397EE0DFF1D8FE2D4
S1133DB080838F809884A984BA8481149104A10497
S1133DC0B10409F06ACF02C001E110E02396AEAD60
S1133DD0BFAD239701151105C1F4EC14FD0421F4C2
S1133DE08FE28C93119611C0CD0101962396EEAD0E
S1133DF0FFAD2397EE0DFF1D20812C93F701319623
S1133E007F01DC01EC15FD0578F31C92C801CE5B43
S1133E10DF4F0FB6F894DEBF0FBECDBFDF91CF9159
S1133E201F910F91FF90EF90DF90CF90BF90AF90D4
S1133E309F908F9008954F925F926F927F928F928E
S1133E409F92AF92BF92CF92DF92EF92FF920F9325
S1133E501F93CF93DF93CDB7DEB72A970FB6F894AD
S1133E60DEBF0FBECDBF8C016A017B01882E912E6F
S1133E70BE016F5F7F4F0E94090E5C01892B21F404
S1133E80D8011F96AC90B12CA114B10409F07EC1E5
S1133E90F80182859385A485B5858C159D05AE05AD
S1133EA0BF0528F4268521FD02C06C017D01D801DF
S1133EB050962D913D914D915C9153972B833C836A
S1133EC04D835E83F801108A118A128A138AC11401
S1133ED0D104E104F10409F425C1E981FA814184A2
S1133EE05284612C712C032E39E0440C551C661C41
S1133EF0771C3A95D1F7302D232B242B252B09F44D
S1133F0046C0C701B6016150710981099109A30135
S1133F1092010E9492282F83388749875A872B81E0
S1133F203C814D815E8121503109410951092B8326
S1133F303C834D835E83CA01B901A30192010E94AF
S1133F4092288F819885A985BA8582179307A4073B
S1133F50B507E8F088279927DC0184199509A60993
S1133F60B7092B813C814D815E8182239323A42355
S1133F70B523F801808B918BA28BB38BC81AD90A15
S1133F80EA0AFB0A448955896689778936C0D801CB
S1133F9016964D915D916D917C911997411551053E
S1133FA06105710519F540E050E0BA01C8010E94AD
S1133FB0E014AB01BC01413051056105710529F4E0
S1133FC082E0F801878790E0E9C04F3FFFEF5F0789
S1133FD06F077F0731F481E0D8011F968C9390E03E
S1133FE0DDC0F8014683578360877187D8015496F2
S1133FF04D935D936D937C935797411551056105DE
S1134000710509F052C0C12CD12C760192C0C4189C
S1134010D508E608F708F80180899189A289B3894F
S1134020840D951DA61DB71D808B918BA28BB38B20
S1134030868581FF0CC0882D992D0E94E014AB0168
S1134040BC01411551056105710539F435C0882D50
S1134050992D0E941313AB01BC014F3FFFEF5F0783
S11340606F077F0731F481E0D8011F968C9390E0AD
S113407095C0423051056105710558F0E981FA8116
S11340808789908DA18DB28D481759076A077B07E0
S113409028F082E0F801878790E080C0D801549628
S11340A04D935D936D937C9357974C145D046E040C
S11340B07F0408F4ACCF03C0C12CD12C7601F801E5
S11340C080899189A289B3898C0D9D1DAE1DBF1D68
S11340D0808B918BA28BB38BD701C6019170AA27D9
S11340E0BB27892B8A2B8B2B09F189819A810E940A
S11340F0220C611571058105910531F482E0D80126
S11341001F968C9390E04AC00B2EB9E0F694E79486
S1134110D794C794BA95D1F7B02DC60ED71EE81E12
S1134120F91E07C0C12CD12C760103C0C12CD12C9F
S11341307601F80180899189A289B38942855385E2
S113414064857585481759076A077B0738F48287A1
S11341509387A487B5872685206426879170AA272C
S1134160BB27892B8A2B8B2BA1F0F801808D918D95
S1134170A28DB38DC816D906EA06FB0669F0C08E77
S1134180D18EE28EF38E8A2D9B2D08C08A2D9B2D15
S113419005C08A2D9B2D02C08A2D9B2D2A960FB611
S11341A0F894DEBF0FBECDBFDF91CF911F910F9169
S11341B0FF90EF90DF90CF90BF90AF909F908F9043
S11341C07F906F905F904F900895EF92FF920F93BE
S11341D01F93CF93DF9300D000D0CDB7DEB77C839D
S11341E06B83009709F44DC07C0140E0BE016F5F12
S11341F07F4FCE0103960E94200F8C01892BC1F5BD
S113420089819A81F701918380836B817C81C701C5
S11342100E9404188C01892B31F5F70187A18823AA
S11342208CF0848184FF0CC0628D738D89819A81A6
S11342300E944A0CF701668377838087918702C0C6
S113424005E010E00115110571F4E981FA81858119
S11342509681F7019383828340E050E0BA01C7015D
S11342600E94F3138C010430110511F405E010E0F1
S11342700115110549F0F70111821082802F912F49
S113428005C089E090E002C0802F912F0F900F901D
S11342900F900F90DF91CF911F910F91FF90EF90AE
S11342A008950F931F93CF93DF9300D0CDB7DEB75C
S11342B08C01BE016F5F7F4F0E94090E009719F4B5
S11342C0F801118210820F900F90DF91CF911F910E
S11342D00F910895CF92DF92EF92FF920F931F9365
S11342E0CF93DF9300D0CDB7DEB77C016B01BE0165
S11342F06F5F7F4F0E94090E8C01892B21F5C11439
S1134300D10441F440E050E0BA01C7010E94F31324
S11343108C0119C060E070E0C7010E94121984305A
S1134320910509F08C010115110569F4B601C70165
S11343300E94980C60E070E0C7010E947D168430F2
S1134340910509F08C01C8010F900F90DF91CF9176
S11343501F910F91FF90EF90DF90CF9008958EBD45
S11343600DB407FEFDCF8EB50895FC0101C0F9011F
S11343708FEF8EBD0DB407FEFDCF8EB580838FEF1A
S11343808EBD0DB407FEFDCF9F012E5F3F4F8EB54E
S113439081836250710959F70895FC0101C0F90144
S11343A080818EBD0DB407FEFDCF9F012E5F3F4F70
S11343B081818EBD0DB407FEFDCF6250710979F77E
S11343C008959C01ADECBCECD5D696958795969551
S11343D087959695879580939A018FEFC0DF8F3FDD
S11343E021F090919A019111F8CF91E08F3F09F05B
S11343F090E0892F90E0089585B1846085B98FEFAE
S1134400AECF0895CF93DF9385B18B7F85B98FEFBE
S1134410A6DF84EF91E0D5DFEC01892B11F4ECDF0A
S113442002C0C1E0D0E0CE01DF91CF9108950F9397
S11344301F93CF93DF93EC018B0184E180939B0165
S11344408FEF8DDF8F3F21F490919B019111F8CF75
S11344508E3F51F4B801CE0188DF8FEF80DF8FEFFC
S11344607EDF81E090E002C080E090E0DF91CF91B8
S11344701F910F9108950F931F93CF938C01C62F13
S113448084EF91E09EDF0097C1F08C2F68DFCD3F71
S113449091F060E072E0C80180DF8FEF60DF8FEFA2
S11344A05EDF8FEF5CDF8F7191E0853009F090E083
S11344B0892F90E002C081E090E0CF911F910F918D
S11344C00895FF920F931F93CF93DF93C82FD42F98
S11344D0152F062FF72E882344F4CF7740E050E0C1
S11344E0BA0187E3EEDF823038F5CC3021F084DF87
S11344F089DF892B01F18C2F806431DF8F2D2FDF31
S1134500802F2DDF812F2BDF8D2F29DFCC2311F07E
S113451081E001C085E9C83009F487E820DFCC30A8
S113452011F48FEF1CDFCAE08FEF19DF882324F426
S1134530C150D1F701C08FEFDF91CF911F910F913F
S1134540FF900895EF92FF920F931F93CF93DF9301
S113455000D000D0CDB7DEB78AE080939B01809174
S11345609B018111FCCF80910B0181FF03C08091DD
S11345700B01B2C084B18F7E84B984B1806284B9E6
S113458084B1886084B984B1846084B983E58CBDC6
S11345901AE003C08FEFE3DE11501111FBCF40E0AE
S11345A050E0BA0180E08DDF813009F076C084E606
S11345B080939B014AEA51E060E070E088E081DF8B
S11345C0813009F046C00DC0E02EF12C8FEFC7DE1C
S11345D0E1E0F0E0EC0FFD1FEE0DFF1D80830F5FA7
S11345E001C0012F043080F38B81813009F057C062
S11345F08C818A3A09F055C080919B01882341F04F
S113460040E050E060E070E489EA5BDF8111F4CFC0
S113461080919B01882309F446C040E050E0BA0130
S11346208AE34FDF882371F010E044C0E12EF12CBF
S11346308FEF95DEE1E0F0E0EC0FFD1FEE0DFF1DC6
S113464080831F5F143090F3898186FF2EC01CE0A5
S113465031C040E050E0BA0189EA33DF823018F417
S113466012E009EA02C011E001E080919B01882375
S113467039F040E050E0BA01802F23DF8111F5CFFB
S113468080919B01882399F040E052E060E070E063
S113469080E117DF81110DC00DC010E00BC010E0E8
S11346A009C010E007C010E005C014E003C010E02A
S11346B001C010E0109399019FDE112359F08091FD
S11346C00B018E7F80930B018CB58C7F8CBD8DB5D7
S11346D081608DBD80910B010F900F900F900F9012
S11346E0DF91CF911F910F91FF90EF9008958091EA
S11346F00B010895FF920F931F93CF93DF938C01C7
S1134700E9012097C9F180910B0180FD38C08091A7
S1134710990183FD09C0032E39E0440F551F661F1C
S1134720771F3A95D1F7302DC230D10528F00F2EDE
S1134730F2E1FF2EF02D04C00F2EF1E1FF2EF02D3B
S11347408F2DBFDE811111C060E072E0C8016FDE01
S1134750892B19F01E5F2197B9F782E1F81205C081
S113476040E050E0BA018CE0ACDE46DE81E0CD2BC7
S113477009F480E090E005C084E090E002C083E0AA
S113478090E0DF91CF911F910F91FF900895CF9208
S1134790DF92EF92FF920F931F93CF93DF938C01DD
S11347A06A017B01E901209709F44CC080910B0157
S11347B080FD4BC080910B0182FD4AC0809199011C
S11347C083FD09C00B2EB9E0CC0CDD1CEE1CFF1CD4
S11347D0BA95D1F7B02DC130D10561F4B701A60166
S11347E088E16FDE811127C06EEFC80144DE892B9A
S11347F0E9F421C0867029F0AE0160E070E087E939
S113480060DEB701A60189E15CDE811114C06CEFA2
S1134810C80131DE892B19F01E5F2197C1F76DEFB6
S113482080E090E028DE892B21F005C0C0E0D0E0D4
S113483002C0C1E0D0E0E0DD81E0CD2B09F480E0EE
S113484090E008C084E090E005C083E090E002C0FE
S113485082E090E0DF91CF911F910F91FF90EF9054
S1134860DF90CF9008958F929F92AF92BF92CF9294
S1134870DF92EF92FF920F931F93CF93DF93CDB705
S1134880DEB760970FB6F894DEBF0FBECDBFE82F3A
S11348908B0180910B0180FD31C38E2F90E08A3310
S11348A0910508F031C3FC01EC5CFF4F5DC4AADD47
S11348B0892B19F401E010E002C000E010E09CDD57
S11348C0E02EF12E3DC340E050E0BA0189E0F9DD6D
S11348D081116FC060E170E0CE010196A8DD892BE3
S11348E009F46AC0898182958695869583708130A2
S11348F039F58A85298530E0322F2227280F311D8A
S113490088858F7390E0A0E0B0E0DC0199278827C8
S1134910820F931FA11DB11D0196A11DB11D072E6C
S11349207AE0880F991FAA1FBB1F7A95D1F7702DC3
S1134930F80180839183A283B38300E010E03EC03A
S11349402E819B85991F9927991F8A852F70290F7E
S11349508370880F280F2E5F3985888590E0880F33
S1134960991F880F991F3295369536953370AC018F
S1134970430F511D9F819370892F90E0982F8827B2
S1134980990F990F840F951F0196A0E0B0E030E0D5
S11349902950310904C0880F991FAA1FBB1F2A95EB
S11349A0D2F7F80180839183A283B38300E010E0FF
S11349B005C001E010E002C001E010E01DDDE02EC2
S11349C0F12EBEC28091990182FF33C040E050E0D5
S11349D0BA018DE876DD81118AC08FEFC0DC60E119
S11349E070E0CE01019623DD892B39F401E010E05B
S11349F086C08FEFB4DCFA9404C00F2EF0E3FF2ED0
S1134A00F02DF110F6CF2B8522952F7080E190E0E8
S1134A10A0E0B0E004C0880F991FAA1FBB1F2A950D
S1134A20D2F7F80180839183A283B38300E010E07E
S1134A3066C040E050E0BA0189E043DD81115AC00C
S1134A4060E170E0CE010196F2DC892B09F455C0D7
S1134A508091990181FF20C08B858F7390E0880F2E
S1134A60991F2C8527FD019601962E852295269562
S1134A702695237030E02150310902C0880F991F18
S1134A802A95E2F7A0E0B0E0F80180839183A28345
S1134A90B38300E010E033C08B858C7790E095956C
S1134AA087959595879501964C85242F237030E042
S1134AB0220F331F220F331F220F331F42954695B7
S1134AC04770240F311D2F5F3F4F289FA001299F5E
S1134AD0500D389F500D1124CA01A0E0B0E0F80138
S1134AE080839183A283B38300E010E008C001E0D7
S1134AF010E005C001E010E002C001E010E07CDC41
S1134B00E02EF12E1DC280919901867009F401C234
S1134B10BE016F5F7F4F83E3A6DE7C01892B09F022
S1134B20FCC18981829586958695837019F48B855D
S1134B3086FFF7C1D8014D915D916D917C911397DA
S1134B4014968D909D90AD90BC901797809199018B
S1134B5083FD12C0032E39E0440F551F661F771FD3
S1134B603A95D1F7302D072E79E0880C991CAA1CB0
S1134B70BB1C7A95D1F7702D80E2A3DC8111D5C1DD
S1134B80B501A40181E29DDC8111D3C140E050E074
S1134B90BA0186E296DC8111D0C180E395E711DC8D
S1134BA0892B09F0CDC1EE24E394F12CC9C1809185
S1134BB09901FB018083E12CF12CC2C140E050E05B
S1134BC0BA0189E07EDC811109C060E170E0C801AE
S1134BD02EDC892B31F401E010E005C001E010E087
S1134BE002C000E010E008DCE02EF12EA9C140E094
S1134BF050E0BA018AE065DC811109C060E170E02F
S1134C00C80115DC892B31F401E010E005C001E096
S1134C1010E002C000E010E0EFDBE02EF12E90C1C6
S1134C2040E050E0BA018AE34CDC882371F001E0F3
S1134C3010E012C06801FFEFCF1ADF0A8FEF8FDB9D
S1134C40D8018C93FA94860103C06894FF24F2F887
S1134C50F110F0CF00E010E0CFDBE02EF12E70C1B8
S1134C6040E050E0BA018DE82CDC81110BC08FEFDD
S1134C7076DB60E470E0C801DADB892B31F401E013
S1134C8010E005C001E010E002C000E010E0B4DB79
S1134C90E02EF12E55C180910B01816080930B01B0
S1134CA0E12CF12C4DC1FB01408150E060E070E04B
S1134CB0032E3CE1440F551F661F771F3A95D1F729
S1134CC0302D83819481A581B681072E79E0880FE8
S1134CD0991FAA1FBB1F7A95D1F7702D482B592B0A
S1134CE06A2B7B2B8181928101979170A0E0B0E0C7
S1134CF0482B592B6A2B7B2B706880E3E2DB8111F4
S1134D003AC084E680939B018FEF29DB8F3F21F427
S1134D1090919B019111F8CF8E3F81F5D8011796A0
S1134D20CD90DC9018971196ED90FC9012970CC0E2
S1134D305601BFEFAB1ABB0A8FEF11DBF60180837C
S1134D40F1E0EF1AF1086501E114F10489F7D801E3
S1134D5011968D919C91129702E012E0081B190B99
S1134D6004C08FEFFCDA0150110901151105C9F7D0
S1134D7000E010E005C001E010E002C001E010E036
S1134D803BDBE02EF12EDCC0FB01408150E060E013
S1134D9070E0032E3CE1440F551F661F771F3A95C0
S1134DA0D1F7302D83819481A581B681072E79E0D6
S1134DB0880F991FAA1FBB1F7A95D1F7702D482B16
S1134DC0592B6A2B7B2B8181928101979170A0E0F2
S1134DD0B0E0482B592B6A2B7B2B706881E371DB85
S1134DE0811134C08FEFBBDA8EEFB9DAD801179690
S1134DF0ED91FC9118971196ED90FC9012970AC0D2
S1134E006F01BFEFCB1ADB0A8081A9DAE1E0EE1A69
S1134E10F108F601E114F10499F7D80111968D9186
S1134E209C91129702E012E0081B190B04C08FEF4B
S1134E3096DA0150110901151105C9F78FEF8FDAC0
S1134E408F71853031F001E010E005C001E010E021
S1134E5002C000E010E0D0DAE02EF12E71C0FB01B8
S1134E60408150E060E070E0032E3CE1440F551FA8
S1134E70661F771F3A95D1F7302D83819481A581E0
S1134E80B681072E79E0880F991FAA1FBB1F7A9558
S1134E90D1F7702D482B592B6A2B7B2B828190E004
S1134EA0A0E0B0E0482B592B6A2B7B2B746881E37C
S1134EB008DB81111AC08FEF52DA8EEF50DAD80175
S1134EC011968C914CDA01E012E004C08FEF47DABE
S1134ED00150110901151105C9F78FEF40DA8F71DF
S1134EE0853031F001E010E005C001E010E002C0BF
S1134EF000E010E081DAE02EF12E22C00F2EF3E064
S1134F00EF2EF12CF02D1CC06894EE24E2F8F12C65
S1134F1017C0EE24E394F12C13C0EE24E394F12C97
S1134F200FC0EE24E394F12C0BC0EE24E394F12C97
S1134F3007C0EE24E394F12C03C0EE24E394F12C97
S1134F40C70160960FB6F894DEBF0FBECDBFDF91E8
S1134F50CF911F910F91FF90EF90DF90CF90BF9072
S1134F60AF909F908F90089580919B01882319F0B2
S1134F70815080939B0180919A01882319F081507C
S1134F8080939A0180910B01897F80930B0108958E
S1134F908BB180688BB982E08A95F1F700C08BB140
S1134FA08F778BB90895CF93DF93D82F662321F0A1
S1134FB08BB180628BB903C08BB18F7D8BB98BB100
S1134FC08F7B8BB987B18F6087B9C8B1C07F8D2FB4
S1134FD082958F708C2B88B9DBDFDF70DC2BD8B91E
S1134FE0D7DFCF60C8B9DF91CF910895882321F02E
S1134FF08BB180628BB903C08BB18F7D8BB98BB1C0
S113500080648BB987B1807F87B98BB180688BB995
S113501082E08A95F1F700C096B19295907F8BB1AA
S11350208F778BB982E08A95F1F700C08BB18068E5
S11350308BB982E08A95F1F700C086B18F702BB1ED
S11350402F772BB9892B089580E0D0DF8823E4F3F0
S11350508AE08A95F1F700C080E0C8CF0895CF9325
S1135060C82FF2DF60E08C2F9EDFCF91089561118D
S113507003C08058F4CF08958054F1CF089581E09F
S1135080EECF0895CF93C82FDFDFCA3041F48034C8
S113509010F480E401C080E08058E1DF03C061E0E7
S11350A08C2F81DFCF910895CF93C82F87B18F6064
S11350B087B98AB180628AB98AB180648AB98AB1AF
S11350C080688AB98FEF9CE70197F1F700C0000070
S11350D088B1826088B988B1816088B959DF8FE06E
S11350E097E20197F1F700C0000052DF9AEA9A951F
S11350F0F1F700C04DDF8AEA8A95F1F700C088B164
S11351008E7F88B945DF9AEA9A95F1F700C088E264
S1135110A6DF88E0A4DFB3DF86E0A1DF8C2F9FDF6A
S1135120CF910895A1E21A2EAA1BBB1BFD010DC04D
S1135130AA1FBB1FEE1FFF1FA217B307E407F50743
S113514020F0A21BB30BE40BF50B661F771F881F1F
S1135150991F1A9469F760957095809590959B01B5
S1135160AC01BD01CF010895EE0FFF1F0590F4912E
S1135170E02D0994A29FB001B39FC001A39F700DBD
S1135180811D1124911DB29F700D811D1124911D4B
S11351900895F0DFA59F900DB49F900DA49F800DFE
S11351A0911D11240895FB01DC014150504030F061
S11351B08D910590801919F40020B9F7881B990B7B
S11351C00895DC0101C06D9341505040E0F708950B
S11351D0FC018191861721F08823D9F79927089536
S10D51E03197CF010895F894FFCF32
S11351EA010002040205030080AC0101425F4E4F34
S11351FA484400425F57484452005441505F4D436B
S113520A005441505F42005441505F425800524199
S113521A5700426C6B20746F6F2073686F7274212D
S113522A004552524F523A00494E54455252555033
S113523A544544210053454E442046494C450045B3
S113524A4F4620746F6F206561726C792100455254
S113525A524F52002E2E00222A2B2C3A3B3C3D3E22
S109526A3F5B5D7C7F0048
S9030000FC
